:02000004085F93
:10B0000000B05F08FCFF5F0800000600200005019B
:08B010000401B414000000006B
:10B018000E480F4908B5884205D00E4A824202D030
:10B028000D4B121A98470D480D4A00210D4B121A64
:10B0380098470D480D49884205D00D4A824202D0F2
:10B04800054B121A9847014808BD00BF64AD0710A8
:10B05800A0F55F08DCAD07102D0D1110DCAD071051
:10B06800E8AF0710A10E1110E0BA3F0288B05F08E0
:0CB07800F8FF3F0219B05F080000000064
:08B088007CB05F0834FB3F02BD
:10B0900081F0004102E000BF83F0004330B54FEA89
:10B0A00041044FEA430594EA050F08BF90EA020FF6
:10B0B0001FBF54EA000C55EA020C7FEA645C7FEA89
:10B0C000655C00F0E2804FEA5454D4EB5555B8BFAC
:10B0D0006D420CDD2C4480EA020281EA030382EA1D
:10B0E000000083EA010180EA020281EA0303362DAF
:10B0F00088BF30BD11F0004F4FEA01314FF4801C82
:10B100004CEA113102D0404261EB410113F0004F93
:10B110004FEA03334CEA133302D0524263EB43034A
:10B1200094EA050F00F0A780A4F10104D5F1200EE8
:10B130000DDB02FA0EFC22FA05F2801841F1000143
:10B1400003FA0EF2801843FA05F359410EE0A5F117
:10B1500020050EF1200E012A03FA0EFC28BF4CF048
:10B16000020C43FA05F3C01851EBE37101F00045FE
:10B1700007D54FF0000EDCF1000C7EEB00006EEB0B
:10B180000101B1F5801F1BD3B1F5001F0CD3490895
:10B190005FEA30004FEA3C0C04F101044FEA4452EC
:10B1A00012F5800F80F09A80BCF1004F08BF5FEA73
:10B1B000500C50F1000041EB045141EA050130BD53
:10B1C0005FEA4C0C404141EB0101013C28BFB1F565
:10B1D000801FE9D291F0000F04BF01460020B1FAB0
:10B1E00081F308BF2033A3F10B03B3F120020CDA83
:10B1F0000C3208DD02F1140CC2F10C0201FA0CF061
:10B2000021FA02F10CE002F11402D8BFC2F1200CC5
:10B2100001FA02F120FA0CFCDCBF41EA0C0190407B
:10B22000E41AA2BF01EB0451294330BD6FEA0404C4
:10B230001F3C1CDA0C340EDC04F11404C4F12002AF
:10B2400020FA04F001FA02F340EA030021FA04F3C1
:10B2500045EA030130BDC4F10C04C4F1200220FA18
:10B2600002F001FA04F340EA0300294630BD21FA56
:10B2700004F0294630BD94F0000F83F4801306BF1C
:10B2800081F480110134013D4EE77FEA645C18BF10
:10B290007FEA655C29D094EA050F08BF90EA020FA7
:10B2A00005D054EA000C04BF1946104630BD91EA9F
:10B2B000030F1EBF0021002030BD5FEA545C05D1A2
:10B2C0004000494128BF41F0004130BD14F58004E1
:10B2D0003CBF01F5801130BD01F0004545F0FE4155
:10B2E00041F470014FF0000030BD7FEA645C1ABF8A
:10B2F000194610467FEA655C1CBF0B46024650EAC1
:10B30000013406BF52EA033591EA030F41F40021EC
:10B3100030BD00BF90F0000F04BF0021704730B572
:10B320004FF4806404F132044FF000054FF0000147
:10B3300050E700BF90F0000F04BF0021704730B508
:10B340004FF4806404F1320410F0004548BF4042DD
:10B350004FF000013EE700BF42004FEAE2014FEA32
:10B3600031014FEA02701FBF12F07F4393F07F4F0D
:10B3700081F06051704732F07F4208BF704793F010
:10B380007F4F04BF41F40021704730B54FF4607423
:10B3900001F0004521F000411CE700BF50EA010226
:10B3A00008BF704730B54FF000050AE050EA0102CF
:10B3B00008BF704730B511F0004502D5404261EB3F
:10B3C00041014FF4806404F132045FEA915C3FF480
:10B3D000D8AE4FF003025FEADC0C18BF03325FEA1D
:10B3E000DC0C18BF033202EBDC02C2F1200300FACE
:10B3F00003FC20FA02F001FA03FE40EA0E0021FAF3
:10B4000002F11444BDE600BF70B54FF0FF0C4CF4E0
:10B41000E06C1CEA11541DBF1CEA135594EA0C0F92
:10B4200095EA0C0F00F0DEF82C4481EA030621EACD
:10B430004C5123EA4C5350EA013518BF52EA033508
:10B4400041F4801143F4801338D0A0FB02CE4FF0BA
:10B450000005E1FB02E506F00042E0FB03E54FF0EA
:10B460000006E1FB03569CF0000F18BF4EF0010EE2
:10B47000A4F1FF04B6F5007F64F5407404D25FEADE
:10B480004E0E6D4146EB060642EAC62141EA555191
:10B490004FEAC52040EA5E504FEACE2EB4F1FD0CD3
:10B4A00088BFBCF5E06F1ED8BEF1004F08BF5FEA51
:10B4B000500E50F1000041EB045170BD06F0004603
:10B4C00046EA010140EA020081EA0301B4EB5C04B0
:10B4D000C2BFD4EB0C0541EA045170BD41F48011A8
:10B4E0004FF0000E013C00F3AB8014F1360FDEBFCD
:10B4F000002001F0004170BDC4F10004203C35DAA9
:10B500000C341BDC04F11404C4F1200500FA05F32B
:10B5100020FA04F001FA05F240EA020001F00042CC
:10B5200021F0004110EBD37021FA04F642EB060142
:10B530005EEA430E08BF20EAD37070BDC4F10C046C
:10B54000C4F1200500FA04F320FA05F001FA04F230
:10B5500040EA020001F0004110EBD37041F100011C
:10B560005EEA430E08BF20EAD37070BDC4F1200527
:10B5700000FA05F24EEA020E20FA04F301FA05F28F
:10B5800043EA020321FA04F001F0004121FA04F237
:10B5900020EA020000EBD3705EEA430E08BF20EA07
:10B5A000D37070BD94F0000F0FD101F00046400041
:10B5B00041EB010111F4801F08BF013CF7D041EAC3
:10B5C000060195F0000F18BF704703F000465200C7
:10B5D00043EB030313F4801F08BF013DF7D043EA98
:10B5E0000603704794EA0C0F0CEA135518BF95EA4E
:10B5F0000C0F0CD050EA410618BF52EA4306D1D1D5
:10B6000081EA030101F000414FF0000070BD50EAF3
:10B61000410606BF1046194652EA430619D094EA7D
:10B620000C0F02D150EA013613D195EA0C0F05D167
:10B6300052EA03361CBF104619460AD181EA0301BB
:10B6400001F0004141F0FE4141F470014FF0000073
:10B6500070BD41F0FE4141F4780170BD70B54FF00E
:10B66000FF0C4CF4E06C1CEA11541DBF1CEA13558E
:10B6700094EA0C0F95EA0C0F00F0A7F8A4EB050470
:10B6800081EA030E52EA03354FEA013100F0888067
:10B690004FEA03334FF0805545EA131343EA126330
:10B6A0004FEA022245EA111545EA10654FEA0026E5
:10B6B0000EF000419D4208BF964244F1FD0404F59E
:10B6C000407402D25B084FEA3202B61A65EB0305FA
:10B6D0005B084FEA32024FF480104FF4002CB6EBB7
:10B6E000020E75EB030E22BFB61A754640EA0C0037
:10B6F0005B084FEA3202B6EB020E75EB030E22BF77
:10B70000B61A754640EA5C005B084FEA3202B6EBB7
:10B71000020E75EB030E22BFB61A754640EA9C0076
:10B720005B084FEA3202B6EB020E75EB030E22BF46
:10B73000B61A754640EADC0055EA060E18D04FEA04
:10B74000051545EA16754FEA06164FEAC30343EAA4
:10B7500052734FEAC2025FEA1C1CC0D111F4801F71
:10B760000BD141EA00014FF000004FF0004CB6E76A
:10B7700011F4801F04BF01430020B4F1FD0C88BF09
:10B78000BCF5E06F3FF6AFAEB5EB030C04BFB6EB14
:10B79000020C5FEA500C50F1000041EB045170BD07
:10B7A0000EF0004E4EEA113114EB5C04C2BFD4EB34
:10B7B0000C0541EA045170BD41F480114FF0000EB8
:10B7C000013C90E645EA060E8DE60CEA135594EA34
:10B7D0000C0F08BF95EA0C0F3FF43BAF94EA0C0F37
:10B7E0000AD150EA01347FF434AF95EA0C0F7FF4AC
:10B7F00025AF104619462CE795EA0C0F06D152EA00
:10B8000003353FF4FDAE1046194622E750EA4106E3
:10B8100018BF52EA43067FF4C5AE50EA41047FF4F4
:10B820000DAF52EA43057FF4EBAE12E74FEA410257
:10B83000B2F1E04324BFB3F5001CDCF1FE5C0DD98E
:10B8400001F0004C4FEAC0024CEA5070B2F1004FD8
:10B8500040EB830008BF20F00100704711F0804FDB
:10B8600021D113F13872BCBF01F00040704741F4A0
:10B8700080114FEA5252C2F11802C2F1200C10FAA4
:10B880000CF320FA02F018BF40F001004FEAC12388
:10B890004FEAD32303FA0CFC40EA0C0023FA02F32C
:10B8A0004FEA4303CCE77FEA625307D150EA013302
:10B8B0001EBF4FF0FE4040F44000704701F00040D2
:10B8C00040F0FE4040F40000704700BF10F8012B2C
:10B8D00011F8013B012A28BF9A42F7D0D01A7047CD
:10B8E000034613F8012B002AFBD1181A01387047C0
:10B8F00070B503F0ADF80025054E064CA41BA40856
:10B90000AC4200D170BD56F8043B98470135F7E7CB
:10B91000D4FF3F02F8FF3F0200F060B808B500F026
:10B9200013F9BDE8084003F04BB801F029B901F064
:10B9300027B901F033B900000C2008B5024A0349C9
:10B9400000F0DCFFFEE700BF15CE3F0244FB3F02E4
:10B950000078B0FA80F04009704701230370704707
:10B960007047000010B50446094B036001F05AFE11
:10B97000214602F091F802F093FF02F085FF204685
:10B98000044B40F8043B01F023FF204610BD00BFEC
:10B99000E4FB3F02CCFB3F0210B50446FFF7E2FF99
:10B9A00020462421FFF7C5FF204610BD0EB44FF0FE
:10B9B000200C002300B58CB00DAA52F8041BCDE971
:10B9C00004C3CDE900120392016804AA012000F02B
:10B9D000A3FF0CB05DF804EB03B0704710B5002472
:10B9E00088B002F05DFF642102F04AFF04A8CDE9AF
:10B9F0000444ADF8184001F05FF91148224623468F
:10BA00002146406801F05AF804A800F07BF90D4B7C
:10BA100004A904930B230C488DF8143000F07EF930
:10BA200001A800F0B4FB0123084C01A92046ADF8A1
:10BA3000043000F0B4FB204600F05EFC08B010BDFE
:10BA4000E0AE0710100F1112F4AD071008AE07108A
:10BA500008B5074800F0A0F910EE100AFFF77CFCCB
:10BA600002460B4603480449FFF7A0FF08BD00BF8C
:10BA7000F4AD071070AE071059FB3F020000000044
:10BA8000F8B5274800F0C8FB264C254884ED000A8D
:10BA900000F000FCD4ED007A9FED237AF4EE477AB3
:10BAA000F1EE10FA214E86ED000A31D0B4EE470ACD
:10BAB000F1EE10FA2CD017EE900AFFF74DFC16A30A
:10BAC000D3E9002304460D46FFF79EFC0022184BE5
:10BAD000FFF7E4FAFFF7AAFE164F22462B46164957
:10BAE00038601648FFF762FF3868FFF735FC0246FA
:10BAF0000B4612481249FFF759FF3068FFF72CFC3C
:10BB000002460B460D480F49FFF750FF0120F8BDD4
:10BB10000020FCE7AFF30080CDCCCCCCCCCCFC3FFC
:10BB200008AE071018AE071000008047F0AD0710F0
:10BB300000004040E8AD071074FB3F0270AE0710F4
:10BB40008DFB3F02A6FB3F0208B5FFF781FF4FF4D4
:10BB50007A7001F077F8FFF793FFBDE808404FF4E3
:10BB60007A7001F06FB870B51426D0E9005304461E
:10BB700006FB0356AE4204D0284602F026FD1435DB
:10BB8000F8E7206801F00AF8204670BD8842F8B551
:10BB900004460D46164616D9904215D2A2F1140657
:10BBA000751AA1F114072C44B7421CD02CB13146B0
:10BBB000204602F072FD337C2374304602F005FD0E
:10BBC000143E143CF0E70ED0B5420CD02CB12946FF
:10BBD000204602F062FD2B7C2374284602F0F5FC1F
:10BBE00014351434F0E7F8BD00232DE9F041C0E925
:10BBF000003383604F6804469F420E4624DD4FF0B9
:10BC0000140808FB07F000F0BBFF0546E0B1D4E9DB
:10BC1000001208FB0212FFF7B9FF206800F0BEFF18
:10BC20002560A760D6E9007308FB0378B84509D002
:10BC30003946284602F04BFD3B7C143505F8043CA0
:10BC40001437F3E7736863602046BDE8F0810000B5
:10BC5000F0B501270024244B244A1F70244B8DB0DB
:10BC60009A60C3E90044022000F080FE2146384675
:10BC700000F098FECDE90044029402F011FE1D4C44
:10BC800005462646694603A8FFF7AEFF03A906A8A6
:10BC9000FFF7AAFF184B06A946F8043B09A8FFF7CF
:10BCA000A3FF09AA3946304601F0D8FF09A8FFF7DB
:10BCB0005AFF06A8FFF757FF104B2562236003A821
:10BCC000FFF751FF0E4B236002F0EAFD4FF41651CF
:10BCD00002F0D6FD01F0A6FC214601F097FE684671
:10BCE000FFF741FF0DB0F0BDECAD07100000FFFF06
:10BCF000DCAD07101CAE0710CCFB3F020CFD3F0271
:10BD0000E4FB3F024FF0FF3303600371024B83609B
:10BD100000238381704700BFA0860100F0B50C4668
:10BD20000546002685B001A800F066F9A368E17811
:10BD30000293237B28468DF80C30A3788DF804609D
:10BD40008DF8053023882F1DADF8063000F071F80E
:10BD5000E37838462B7401A900F034F9013019D08A
:10BD60003146384600F012F99DF80C10384600F0C4
:10BD700067F90299384600F06EF9607B00F0FEF832
:10BD80002179A81C00F04AF8287C00F0E5F830463C
:10BD900005B0F0BDFF20FBE7F0B506460A250024FC
:10BDA00085B0071D307C00F0C7F8022201A9384693
:10BDB00000F05EF9307C00F0CFF89DF80430013DD2
:10BDC00003F01F029DF8053015F0FF0543EA02233A
:10BDD0001C44A4B2E6D10A23B4FBF3F407EE904A64
:10BDE0009FED0B7AF8EEE77AC7EE877A17EE900AA6
:10BDF000FFF7B2FA0022074BFFF706FB0022064BC3
:10BE0000FFF702FBFFF712FD00EE100A05B0F0BDD0
:10BE100000F07F450080204000408F4010B50C4668
:10BE200021B9007802F084FE204610BD4FF0FF30AB
:10BE3000FBE7012908B504D1008802F079FE002053
:10BE400008BD4FF0FF30FBE710B50024054B1C7018
:10BE5000054B1C6002F0B2FE2146BDE8104000F028
:10BE6000CDBF00BF40AE071044AE071008B502F0CA
:10BE7000A5FE054B196800F0C1FF02F09FFE00F01F
:10BE8000C1FF002008BD00BF44AE071010B50C462E
:10BE9000044B196002F092FE214600F0AFFF002033
:10BEA00010BD00BF44AE0710014B00201970704751
:10BEB00040AE071013B50C46019202F07FFE0B4B0B
:10BEC000197800F0CEFF02F079FE03682146DB68A6
:10BED000019A984702F072FE012100F0C6FF013876
:10BEE00018BF4FF0FF3002B010BD00BF40AE0710CA
:10BEF0002DE9F04115460E4602F060FE0D49012382
:10BF00002A46097800F09BFF0027C4B25FFA87F841
:10BF1000454507F1010707D902F050FE03685B6948
:10BF2000984706F80800F1E7B4FA84F04009404267
:10BF3000BDE8F08140AE071007B50121019002F085
:10BF4000F7FD044B0198197803B05DF804EB02F09B
:10BF500000BE00BF54AE071007B50121019002F0EA
:10BF6000E7FD054B01981978B1FA81F1490903B051
:10BF70005DF804EB02F0EDBD54AE071001289CBF44
:10BF8000014B1870704700BF54AE07100020704777
:10BF900013B50A4CD4E88F1F11F001010BD12046D4
:10BFA0000191FFF7D5FC019928B1054802F076FA16
:10BFB0002046FFF7D2FC024802B010BD48AE071081
:10BFC0004CAE071008B50121122002F0B1FD01218D
:10BFD000052002F0ADFD0121122002F0BAFD012181
:10BFE000052002F0B6FDFFF7D3FFFF22002102F08B
:10BFF0005FFA002008BD000010B5002401211220C6
:10C0000002F096FD0121052002F092FD012112208F
:10C0100002F09FFD0121052002F09BFD074B1C70E3
:10C02000FFF7B6FF214602F05AFAFFF7B1FFBDE86D
:10C0300010404FF47A72642102F082BA54AE0710B5
:10C0400007B50191FFF7A4FF019902F048FA00201B
:10C0500003B05DF804FB10B50C46FFF799FF012211
:10C06000214602F06DFA201A18BF4FF0FF3010BDC4
:10C070002DE9F04100251446D31D23F0070382B0BB
:10C08000AC4202AFADEB030D02F1FF320E46D8BF5A
:10C090002A4629460DF109008DF8085002F0ABFE42
:10C0A000FFF776FF02F02FFA431C0DF108080CD0C1
:10C0B000FFF76EFF234632464146009502F072FAC2
:10C0C000FFF766FF02F022FA2846BD46BDE8F08180
:10C0D0002DE9F04F87B002AB01464FF4004210202B
:10C0E0009C4630243125114200F1FF3014BF1D70F1
:10C0F0001C7010F0FF004FEA520203F10103F2D16D
:10C1000006460746864683460346804681460246E3
:10C1100005461CF805100135312908BF82F00102DF
:10C12000D4B2C246102D84EA030884EA0B034A46BF
:10C13000F3463146DBB222D18DF804306946002344
:10C1400001228DF807908DF806A08DF805808DF8F6
:10C1500003E08DF802708DF801608DF8004011F851
:10C16000014B0133E40748BF1043DBB248BFC0B204
:10C170005200082B92B2F2D107B0BDE8F08FBE4654
:10C1800026460F46D146C4E7642000F05BBD4FF65B
:10C19000FF7303800023436040230372704730B570
:10C1A0000D46044685B001A8FFF74EFE6B68204699
:10C1B00002932B7801A98DF806306B788DF8053045
:10C1C0002B7A2373FFF752FE01300AD0217B2046E1
:10C1D000FFF76AFE20466968FFF758FE002005B0A9
:10C1E00030BDFF20FBE773B51E46044615468DF8AB
:10C1F000071001220DF10701FFF75CFEFFF7C4FFF6
:10C20000324629462046FFF773FEFFF7BDFF02B016
:10C2100070BD00000000000037B50323E32101AA30
:10C22000FFF7E1FFBDF804409DF8065064BAA4B2E0
:10C230002046FFF74DFF85421DD124F0030007EE95
:10C24000900AFBEEC87A17EE900AFFF785F80DA367
:10C25000D3E90023FFF7D8F8FFF7E8FAFFF77CF8F7
:10C260000AA3D3E90023FEF717FFFFF7DFFA00EE7A
:10C27000100A03B030BD9FED020AFAE7AFF3008069
:10C2800000008047D7A3703D0AF76540CDCCCCCCE9
:10C29000CC6C474037B50323E52101AAFFF7A3FF84
:10C2A000BDF804409DF8065064BAA4B22046FFF7DA
:10C2B0000FFF854201BF24F0030307EE903AB9EE69
:10C2C000080AFBEEC87A0ABF9FED037A9FED030AC6
:10C2D000A7EE870A03B030BD0000FA420000804795
:10C2E000FE2307B501220DF107018DF80730FFF796
:10C2F000E1FD03B05DF804FB07B50190FFF744FFD3
:10C30000FFF742FFFFF740FFFFF73EFFFFF73CFF5D
:10C310000198FFF7E5FFFFF737FFFFF735FFFFF75E
:10C3200033FFFFF731FFFFF72FFF03B05DF804FB8A
:10C3300009B504480068044B03441B685B6C029316
:10C3400009BD000064AD07103000000009B50448C5
:10C350000068044B03441B689B6C029309BD0000FA
:10C3600064AD07103000000009B504480068044BB4
:10C3700003441B68DB6C029309BD000064AD071029
:10C380003000000009B504480068044B03441B68F2
:10C390005B6D029309BD000064AD07103000000022
:10C3A00009B504480068044B03441B685B680293AA
:10C3B00009BD000064AD07100000000009B5044885
:10C3C0000068044B03441B68DB68029309BD00004E
:10C3D00064AD07100000000009B504480068044B74
:10C3E00003441B685B69029309BD000064AD07103C
:10C3F0000000000009B504480068044B03441B68B2
:10C400009B68029309BD000064AD07101400000092
:10C4100009B504480068044B03441B68DB680293B9
:10C4200009BD000064AD07101400000009B5044800
:10C430000068044B03441B681B69029309BD00009C
:10C4400064AD07101400000009B504480068044BEF
:10C4500003441B681B68029309BD000064AD07100C
:10C460001000000009B504480068044B03441B6831
:10C47000DB68029309BD000064AD071010000000E6
:10C4800009B504480068044B03441B689B69029388
:10C4900009BD000064AD07101000000009B5044894
:10C4A0000068044B03441B68DB69029309BD00006C
:10C4B00064AD07101000000009B504480068044B83
:10C4C00003441B681B6A029309BD000064AD07109A
:10C4D0001000000009B504480068044B03441B68C1
:10C4E0005B6A029309BD000064AD071010000000F4
:10C4F00009B504480068044B03441B689B6A029317
:10C5000009BD000064AD07101000000009B5044823
:10C510000068044B03441B68DB6A029309BD0000FA
:10C5200064AD07101000000009B504480068044B12
:10C5300003441B681B6B029309BD000064AD071028
:10C540001000000009B504480068044B03441B6850
:10C550005B6B029309BD000064AD07101000000082
:10C5600009B504480068044B03441B681B6C029324
:10C5700009BD000064AD07101000000009B50448B3
:10C580000068044B03441B681B6D029309BD000047
:10C5900064AD07101000000009B504480068044BA2
:10C5A00003441B685B69029309BD000064AD07107A
:10C5B0004C00000009B504480068044B03441B68A4
:10C5C0009B68029309BD000064AD07105000000095
:10C5D00009B504480068044B03441B68DB680293F8
:10C5E00009BD000064AD07105000000009B5044803
:10C5F0000068044B03441B68DB68029309BD00001C
:10C6000064AD07101800000009B504480068044B29
:10C6100003441B681B69029309BD000064AD071049
:10C620001800000009B504480068044B03441B6867
:10C63000DB69029309BD000064AD0710180000001B
:10C6400009B504480068044B03441B681B6A029345
:10C6500009BD000064AD07101800000009B50448CA
:10C660000068044B03441B685B6A029309BD000029
:10C6700064AD07101800000009B504480068044BB9
:10C6800003441B689B6A029309BD000064AD071058
:10C690001800000009B504480068044B03441B68F7
:10C6A000DB6A029309BD000064AD071018000000AA
:10C6B00009B504480068044B03441B689B6B029354
:10C6C00009BD000064AD07101800000009B504485A
:10C6D0000068044B03441B681B6C029309BD0000F7
:10C6E00064AD07101800000009B504480068044B49
:10C6F00003441B685B6C029309BD000064AD071026
:10C700001800000009B504480068044B03441B6886
:10C710009B68029309BD000064AD0710240000006F
:10C7200009B504480068044B03441B68DB680293A6
:10C7300009BD000064AD07102400000009B50448DD
:10C740000068044B03441B681B69029309BD000089
:10C7500064AD07102400000009B504480068044BCC
:10C7600003441B685B69029309BD000064AD0710B8
:10C770002400000009B504480068044B03441B680A
:10C780009B69029309BD000064AD071024000000FE
:10C7900009B504480068044B03441B68DB69029335
:10C7A00009BD000064AD07102400000009B504486D
:10C7B0000068044B03441B681B6A029309BD000018
:10C7C00064AD07102400000009B504480068044B5C
:10C7D00003441B689B6A029309BD000064AD071007
:10C7E0002400000009B504480068044B03441B689A
:10C7F000DB6A029309BD000064AD0710240000004D
:10C8000009B504480068044B03441B681B6C029381
:10C8100009BD000064AD07102400000009B50448FC
:10C820000068044B03441B681B68029309BD0000A9
:10C8300064AD07103400000009B504480068044BDB
:10C8400003441B685B68029309BD000064AD0710D8
:10C850003400000009B504480068044B03441B6819
:10C860009B68029309BD000064AD0710340000000E
:10C8700009B504480068044B03441B681B69029314
:10C8800009BD000064AD07103400000009B504487C
:10C890000068044B03441B685B69029309BD0000F8
:10C8A00064AD07103400000009B504480068044B6B
:10C8B00003441B689B69029309BD000064AD071027
:10C8C0003400000009B504480068044B03441B68A9
:10C8D000DB69029309BD000064AD0710340000005D
:10C8E00009B504480068044B03441B681B6A0293A3
:10C8F00009BD000064AD07103400000009B504480C
:10C900000068044B03441B685B6B029309BD000085
:10C9100064AD07104800000009B504480068044BE6
:10C9200003441B685B6D029309BD000064AD0710F2
:10C930004800000009B504480068044B03441B6824
:10C94000DB6E029309BD000064AD071048000000D3
:10C9500009B504480068044B03441B681B6F02932D
:10C9600009BD000064AD07104800000009B5044887
:10C970000068044B03441B685B68029309BD000018
:10C9800064AD07100800000009B504480068044BB6
:10C9900003441B685B69029309BD000064AD071086
:10C9A0000800000009B504480068044B03441B68F4
:10C9B000DB6A029309BD000064AD071008000000A7
:10C9C00009B504480068044B03441B68D3F8883059
:10C9D000029309BD64AD07100800000009B50448C2
:10C9E0000068044B03441B68D3F89430029309BDDC
:10C9F00064AD07100800000009B504480068044B46
:10CA000003441B68DB6B029309BD000064AD071093
:10CA10002C00000009B504480068044B03441B685F
:10CA20005B6C029309BD000064AD07102C00000090
:10CA300009B504480068044B03441B685B68029313
:10CA400009BD000064AD07102800000009B50448C6
:10CA50000068044B03441B689B68029309BD0000F7
:10CA600064AD07102800000009B504480068044BB5
:10CA700003441B68DB68029309BD000064AD071026
:10CA80002800000009B504480068044B03441B68F3
:10CA90001B69029309BD000064AD07102800000067
:10CAA00009B504480068044B03441B685B690293A2
:10CAB00009BD000064AD07102800000009B5044856
:10CAC0000068044B03441B689B69029309BD000086
:10CAD00064AD07102800000009B504480068044B45
:10CAE00003441B68DB69029309BD000064AD0710B5
:10CAF0002800000009B504480068044B03441B6883
:10CB00001B6A029309BD000064AD071028000000F5
:10CB100009B504480068044B03441B681B6B02936F
:10CB200009BD000064AD07102800000009B50448E5
:10CB30000068044B03441B685B6B029309BD000053
:10CB400064AD07102800000009B504480068044BD4
:10CB500003441B681B6C029309BD000064AD071001
:10CB60002800000009B504480068044B03441B6812
:10CB70005B6C029309BD000064AD07102800000043
:10CB800009B504480068044B03441B681B68029302
:10CB900009BD000064AD07100400000009B5044899
:10CBA0000068044B03441B685B68029309BD0000E6
:10CBB00064AD07100400000009B504480068044B88
:10CBC00003441B689B68029309BD000064AD071015
:10CBD0000400000009B504480068044B03441B68C6
:10CBE0005B6A029309BD000064AD071004000000F9
:10CBF00009B504480068044B03441B68DB6B0293CF
:10CC000009BD000064AD07100400000009B5044828
:10CC10000068044B03441B681B6C029309BD0000B1
:10CC200064AD07100400000009B504480068044B17
:10CC300003441B685B6C029309BD000064AD0710E0
:10CC4000040000000021FFF79FBE10B543680446B2
:10CC5000013B436063B903689B689847A368013B45
:10CC6000A3602BB923682046BDE81040DB68184755
:10CC700010BD70B50446D0E9005305EB0316AE4273
:10CC800004D0284601F0A1FC1035F8E72068FFF732
:10CC900085FF204670BD10B50446006808B1FFF757
:10CCA000D4FF204610BD0000002302480360FFF7B8
:10CCB0003FBB00BF58AE07101FB50C230021ADF8D5
:10CCC00004300368ADF80D108DF80630037A8DF846
:10CCD0000F108DF8073043680293437A01A88DF84E
:10CCE0000C30FFF797FE05B05DF804FB00224068AA
:10CCF0001146FFF7FFBE002240681146FFF716BF3E
:10CD000000224068FFF704BF0022406881F0010163
:10CD1000FFF7E2BE002340681A461946FFF7CEBE71
:10CD2000002340681A461946FFF7BABE0022406841
:10CD30001146FFF7A7BE002240681146FFF786BEE6
:10CD4000002202214068FFF78FBE002340681A4688
:10CD5000FFF76EBE0322024B5A60024A1A60704708
:10CD60005CAE0710FCFB3F027047F8B5064615465F
:10CD70000C468F18BC4206D0336830469B6814F8C6
:10CD8000011B9847F6E72846F8BD0022007CFFF714
:10CD900093BB0021007CFFF79DBB0021007CFFF7C7
:10CDA000A7BB0021007CFFF7B1BB0021007CFFF78F
:10CDB000BBBB10B504461421FEF7BBFD204610BDD9
:10CDC00038B5044615464FF47A730022C4E90123AE
:10CDD000094B0846217423602946FFF7C1FBBF3089
:10CDE00008D16B69DB0705D56868FFF7D7FEE868EF
:10CDF000FFF7D4FE204638BD38FC3F020022007CFD
:10CE0000FFF722BB0023007C1A461946FFF72ABB16
:10CE10007FB500221423CDE90122ADF804300B7850
:10CE2000007C8DF808304B680393CB6804930B7A31
:10CE300001A90593FFF7A2FB07B05DF804FB1FB53E
:10CE4000003B8DF800104FF0640118BF01230391DF
:10CE5000694601928DF80830FFF7DAFF05B05DF8FA
:10CE600004FB0022007CFFF70BBB0022007CFFF7D5
:10CE700015BB704710B504461821FEF75AFD204631
:10CE800010BDF0B5037D0E46062B4FF000048DB0AB
:10CE900000F1040712D000F1080515F8011D0A225F
:10CEA000304601F0D0FAAF42044419D0002CF4D03F
:10CEB0002E21304601F0C4FA0444EEE72F236A46DF
:10CEC00039460A208DF80040FFF766FB6846FEF7FA
:10CED00007FD3368024669463046DB6898470446DA
:10CEE00020460DB0F0BD000010B50446044B1122E1
:10CEF000002140F8043B01F07EFF204610BD00BF3A
:10CF000060FC3F020346074A10B543F8042B01F1C9
:10CF1000100251F8044B914243F8044BF9D10A78BE
:10CF20001A7010BD60FC3F0210B59DF8084044EA3D
:10CF3000032343EA0242042342EA0161416003758C
:10CF400010BD000007B5064B0360CB7800938B78CB
:10CF50004A780978FFF7E8FF03B05DF804FB00BFEB
:10CF600060FC3F02012200F1100313F8101C184668
:10CF7000012908D153F8041C02EB4102013A03F1E4
:10CF80001003F2D17047022904BF53F8041C521851
:10CF9000F4E70EB4F0B588B0102100AF07F1340506
:10CFA00055F8042B04462B4678187A60FD60FFF78D
:10CFB00011FE0F287A681AD900F1080323F007033D
:10CFC0006E46ADEB030D411C2B466846FD60FFF736
:10CFD00001FE021E04DD2368694620469B689847CF
:10CFE000B5462037BD46BDE8F04003B07047002885
:10CFF000F7D0236802469B68204607F11001984746
:10D00000EFE738B50B68044603604D6843689D42FE
:10D0100008D015B16B6801336B60606808B1FFF729
:10D0200014FE656038BD07B503688DF8071001224E
:10D030009B680DF10701984703B05DF804FB0B46B0
:10D040001146002210B50446C0E9002283600BB9E6
:10D05000204610BDFFF7D5FFFAE78368EBB11A78D9
:10D06000032A1AD8DFE802F00417021B05207047D4
:10D0700002685B685268D05C2D2812D0A0F13003A2
:10D08000092B0ED974280ED066280CD0A0F16E039F
:10D0900058425841704706207047002070470420CE
:10D0A0007047032070470220704710B50446FFF711
:10D0B000D4FF02280ED0C31EDBB2012B14D8226885
:10D0C000A36850685B680A22BDE81040002118443C
:10D0D00001F092BF2268A36852685B68D05CA0F13F
:10D0E00074035842584110BD0020FCE738B50023B6
:10D0F0000446C0E900330E48C4E90203A9B10B7825
:10D10000032B06D08BB9136858684B68C35C6E2B31
:10D1100007D013684D6858688B6828445B1BA06073
:10D12000E36011462046FFF76CFF204638BD00BF84
:10D13000D2FC3F0238B500250B4604461146C0E933
:10D140000055C0E90255C0E904554BB11A78012ACF
:10D1500006D103F11002DB6882604361FFF751FFE3
:10D16000204638BD10B54369044663B18068013B71
:10D17000E0601030A0602061636113B1FFF7F2FE40
:10D18000A060012000E0184610BD10B57D210446C6
:10D19000FFF749FF01232046237110BD08B503792D
:10D1A000012B02D0022B04D008BD2C21FFF73BFF3E
:10D1B000FAE73A21FAE710B50446FFF7EFFF2046F9
:10D1C0007B21FFF730FF00232046237110BD0000B4
:10D1D00013B504460191FFF7E1FF23682046DB68A1
:10D1E000019A0349984701232046237102B010BDDC
:10D1F0006CFC3F0213B504460191FFF7CFFF236893
:10D200002046DB68019A0349984701232046237191
:10D2100002B010BD6FFC3F022DE9F0470D4690466D
:10D22000222104462F46FFF7FEFEDFF8A490A84413
:10D230004745BA463DD017F8016B222E06D05C2E2A
:10D2400004D0304601F0A8FD0028F1D1236829461A
:10D2500020469B68AAEB050298475C212046FFF711
:10D26000E2FE0D2E0AD8072E1CD9A6F10803052BC5
:10D2700018D8DFE803F00D0F11171315222E01D077
:10D280005C2E0FD131462046FFF7CDFE3D46CFE75D
:10D290006221F8E77421F6E76E21F4E76621F2E7F0
:10D2A0007221F0E72368324649462046DB689847FA
:10D2B000ECE7BD4205D02368294620469B687A1BCF
:10D2C000984722212046FFF7AEFEBDE8F08700BF59
:10D2D00072FC3F0213B50446CDE90021FFF75EFF63
:10D2E000DDE900212046FFF797FF02232046237146
:10D2F00002B010BD13B50446CDE90021FFF74EFF83
:10D30000DDE900212046FFF787FF01232046237136
:10D3100002B010BD80680368DB6818477047084694
:10D3200011B10B685B6818477047704770477047CA
:10D33000704738B504460D4600682E2101F09FFD68
:10D340002368C31A2B6023B1037803B1013023682B
:10D350002060184638BD10B504460C21FEF7E9FAE6
:10D36000204610BD10B504460421FEF7E2FA20461F
:10D3700010BD10B504460421FEF7DBFA204610BDAF
:10D38000FEF7F2BF08B5FEF7A1FAB0FA80F0400947
:10D3900008BD704710B50C4601F082FA844205D1F1
:10D3A00001F07EFABDE8104001F06EBA01F05AFCBF
:10D3B000844205D101F056FCBDE8104001F007BAE7
:10D3C0002CB123682046BDE810405B68184710BDAB
:10D3D0000B6803604B68436013B15A6801325A60AE
:10D3E000704713B5044608460191FEF779FA0246E4
:10D3F0002046019902B0BDE81040FFF77BBF13B58E
:10D40000044608460191FEF76BFA0246204623685F
:10D410000199DB6802B0BDE81040184707B5036802
:10D420008DF807100122DB680DF10701984703B062
:10D430005DF804FB0A6810B502604A684260002289
:10D44000C0E9022202618C688A608460CC68CA608C
:10D45000C4600C690A61046110BD00002DE9F74F3A
:10D460004FF0140AD0E90084174645460AFB04F43D
:10D470000093174BA4105C43002C21DD66100AFBBF
:10D4800006F005EB0009B9F804B03A465F4528BF3D
:10D490005A462858019101F004FD00284FF001037D
:10D4A00001990BD15F4503D1009A13703446E3E72D
:10D4B000FCD9A61B09F11405013EF7E7F9DBF5E7F6
:10D4C000A5EB08050248AD10684303B0BDE8F08F36
:10D4D000CDCCCCCC7FB50369057E019103B3F9B106
:10D4E000002600F10C04039603A901A8FFF721FF11
:10D4F0000146A8B10DF10B032046039A8DF80B608D
:10D50000FFF7ACFF9DF80B3053B12368142404FBE4
:10D510000034B4F906300834002BA8BFDDB2E3E7CD
:10D52000284604B070BD0EB4F0B58CB000AF07F162
:10D53000440555F8042B04462B46202107F1100022
:10D540007A60FD60FFF746FB1F287A681AD900F160
:10D55000080323F007036E46ADEB030D411C2B4679
:10D560006846FD60FFF736FB021E04DD236869464E
:10D570002046DB689847B5463037BD46BDE8F040E9
:10D5800003B070470028F7D023680246DB682046C6
:10D5900007F110019847EFE710B5084CD4E88F3F2A
:10D5A000DB0709D42046FEF7D3F928B12046FEF761
:10D5B000D4F9034801F0EAFB024810BD68AE071039
:10D5C00083DD3F0268AD071010B5084CD4E88F3FEB
:10D5D000DB0709D42046FEF7BBF928B12046FEF749
:10D5E000BCF9034801F0D2FB024810BD6CAE071035
:10D5F000EBDD3F026CAD071038B500250446C0E9ED
:10D600000055C0E904558560856140F8245FFEF748
:10D610008FFEFFF7C1FFE061FFF7D6FF25732062A1
:10D62000204638BD10B50A4CD4E88F3FDB070CD438
:10D630002046FEF78DF940B10648FFF7DDFF204692
:10D64000FEF78BF9044801F0A1FB024810BD00BFB2
:10D6500064AE071074AE0710CDE53F020023024A06
:10D6600002490348FFF774B9B5E33F0241E33F02C3
:10D67000C1E23F0200231A4619461846FFF768B96F
:10D6800037B504468D686846FFF7A2FE6A4629460C
:10D690002046FFF74FFD01A8FFF7FDFA204603B033
:10D6A00030BD37B50446CD686846FFF791FE6A463F
:10D6B00029462046FFF71AFD01A8FFF7ECFA20469D
:10D6C00003B030BD37B504460D696846FFF780FEEC
:10D6D0006A4629462046FFF7B2FC01A8FFF7DBFAAD
:10D6E000204603B030BD000070B58AB00D4601463B
:10D6F00004A8FFF7C5FF144E04A8FFF733FDE8B1F7
:10D70000684604A9FFF7CDFF31460298FFF73AFEBD
:10D71000044610B12C1E18BF012401A8FFF7BBFA64
:10D72000002CE9D0684604A9FFF7CCFF6846FFF754
:10D73000BCFC286001A8FFF7AEFADDE705A8FFF7FB
:10D74000AAFA0AB070BD00BF78FC3F0237B50C469C
:10D75000134920461546FEF7B9F850B901F0A0F874
:10D760004FF4165101F08CF803B0BDE8304001F0E1
:10D7700097B820460B49FEF7A9F878B94FF416532D
:10D7800001A928460193FFF7AFFF01F06BFA019959
:10D7900001F01AF801F066FA03B030BD0020FBE793
:10D7A0007DFC3F0284FC3F0270B51426D0E9005393
:10D7B000044606FB0356AE4205D005F10800FFF70C
:10D7C000F3FF1435F7E72068FFF7E8F9204670BD4E
:10D7D00010B504460C30FFF7E7FF2046FFF749FA83
:10D7E000204610BD10B50446034B40F8043BFFF73C
:10D7F000EFFF204610BD00BFCCFB3F0210B5044632
:10D80000FFF7F0FF20462421FEF793F8204610BDD5
:10D8100010B50446024B0360FFF7E4FF204610BD3D
:10D8200024FD3F0210B50446FFF7F2FF20462421F5
:10D83000FEF77FF8204610BD0022C0E9002282607A
:10D8400010B50C680A6004604C684A6044608C68DB
:10D850008A60846010BD10B5044603681868FEF73E
:10D8600091FD204610BD00002DE9F04F87B00393D5
:10D870001C4B80465B688946C3F3080316466BB9A8
:10D88000FFF7D0FE044600F12403406A0593FFF73A
:10D8900077FD237B2BB105A8FFF7DDFF07B0BDE8BF
:10D8A000F08F01235FFA89F92373D4E9005305EB64
:10D8B000830AAA4512D055F8047B3146381DFFF77C
:10D8C00009FE8145F5D3039A3B680092D3F808B06E
:10D8D0004A46334641463846D847EAE70023237391
:10D8E000D9E700BF00ED00E02DE9F74F9B461A4B4A
:10D8F00080465B688946C3F3080316466BB9FFF799
:10D9000091FE044600F12403406A0193FFF738FDBD
:10D91000237B2BB101A8FFF79EFF03B0BDE8F08F7A
:10D920000123F6B22373D4E9005305EB830A55456E
:10D930000ED055F8047B5946381DFFF7CBFD8642C3
:10D94000F5D33B684A4641463846DB689847EEE7E0
:10D9500000232373DEE700BF00ED00E02DE9F34173
:10D96000164B05465B680F46C3F308031BBBFFF766
:10D9700059FE044600F12403406A0193FFF700FDBD
:10D98000D4E90063462406EB8308B04509D101A819
:10D99000FFF761FFA542B4BF0020012002B0BDE83F
:10D9A000F08156F8040B39460430FFF793FD8442AA
:10D9B000A8BF0446E9E70020F0E700BF00ED00E063
:10D9C000F8B5D0E901539D4204460E460DDB6F1CAD
:10D9D000002F006804DDB900FFF7EEF818B9F8BDB4
:10D9E000FFF7DCF800202060A7602768626807EB7B
:10D9F00085019200A2EB8502081D01F0E2F947F8CB
:10DA000025606368012001336360E8E737B50446A9
:10DA100000F12403406A01930D46FFF7B1FCD4E9FD
:10DA2000003203EB8202934219460AD0096804339C
:10DA3000A942F8D101A8FFF70EFF0025284603B040
:10DA400030BD29462046FFF7BBFF05460028F1D030
:10DA50006368012B01D1FFF701FE01A8FFF7FBFE70
:10DA6000ECE70B4670B50446D0E9000200EB8202F9
:10DA700082420FD001461D6851F8046BAE4207D1B7
:10DA8000521A01F09EF901206368013B636070BD8A
:10DA90000846EDE70020FAE71FB5044600F124032D
:10DAA000406A01910393FFF76BFC204601A9FFF741
:10DAB000D8FF18B163680BB9FFF7DCFD03A8FFF7C7
:10DAC000CAFE04B010BD182370B50446D0E9045650
:10DAD00003FB0656AE4215D0204605F11001FFF7B4
:10DAE000C0FF63680BB9FFF7C5FDE06929690368EA
:10DAF000DB689847696919B1206A0368DB68984751
:10DB00001835E7E71826D4E9045306FB0356AE425E
:10DB100004D0284600F059FD1835F8E7002363616A
:10DB200070BD73B50446FFF7A5FD04F12403606AD8
:10DB30000193FFF725FC2046FFF7C5FF01A8FFF77B
:10DB40008AFE606A08B1FEF701FCD4E90453182686
:10DB500006FB0356AE4204D0284600F036FD1835C9
:10DB6000F8E72069FFF71AF82068FFF717F8204652
:10DB700002B070BD0148FFF7D4BF00BF74AE0710FC
:10DB80008842F8B504460D46164615D9904214D27F
:10DB9000A2F11406751AA1F114072C44B7421AD049
:10DBA0001CB131462046FFF745FC06F10800FFF79F
:10DBB000FBFD143E143CF1E70DD0B5420BD01CB177
:10DBC00029462046FFF736FC05F10800FFF7ECFD7B
:10DBD00014351434F1E7F8BD8842F8B504460D4613
:10DBE000164614D9904213D2A2F11006751AA1F16B
:10DBF00010072C44B74218D01CB13146204600F023
:10DC00004CFD304600F0E1FC103E103CF2E70CD039
:10DC1000B5420AD01CB12946204600F03EFD2846F8
:10DC200000F0D3FC10351034F2E7F8BD70B50E1ECD
:10DC3000054611DD3001FEF7A3FF044658B1D5E9D2
:10DC4000001201EB0212FFF7C7FF2868FEF7A6FFDC
:10DC500001202C60AE6070BD0024F6E72DE9F04F86
:10DC600090460023462295B00391D8F8041004464C
:10DC70009942C0E90033C0E90233C0E90433CDE979
:10DC8000083302760A9323DCD8E90057142303FBF8
:10DC90000757AF423BD029460BA800F0FEFC0BA96A
:10DCA0000FA8099E00F0F9FCDDE9091399421BDA7F
:10DCB000089B099A03EB0616314603EB021206F1A4
:10DCC0001000FFF789FFEEB9099B0133099311E0BA
:10DCD00008A8FFF7ABFF0028D6D108A8FEF7C9FFB8
:10DCE000204615B0BDE8F08F013108A8FFF79EFF70
:10DCF0000028DDD10FA800F068FC0BA800F065FC3F
:10DD00001435C6E730460FA900F0C7FCDCE7002653
:10DD10004FF01409CDE90B660D96DDE908239E420C
:10DD20007CDA3301D35806930BB90136F5E70023AB
:10DD3000079309FB06F30BAD029307A906A8FFF7AB
:10DD4000F8FA82460028F0D04FF0000301468DF823
:10DD500017302846079A0DF11703FFF77FFB9DF850
:10DD600017700190002F4AD1BDF81C30CDE9117712
:10DD7000ADF840304FF6FF73CDF83CA0ADF842301F
:10DD80001397D5E90132934217DB03F1010ABAF187
:10DD9000000F30DD09FB0AF0FEF7F2FE834660B3A8
:10DDA000D5E9001209FB0212FFF7EAFE2868FEF728
:10DDB000F5FEC5F800B0C5F808A02B68019A09FB6C
:10DDC000023A6A68514609FB02320AF11400FFF771
:10DDD000D7FEBAF1000F03D050460FA9FFF72AFB78
:10DDE0006B6801336B6011A8FFF7DEFC3FB10BA835
:10DDF000FFF7DAFC71E7BB46D8E70127F3E7019BA1
:10DE00002D6809FB0355069B1B782BB9D8F8003009
:10DE1000029A13441B7CEB8008358EE72168226050
:10DE200062686360A36809920A9A0A93E368A26031
:10DE30000B9A0B932369E2600C9A0C93636922613D
:10DE40000D9A0D93039B089162612376CFE7000042
:10DE5000F0B504462646174687B00D466846194673
:10DE6000FDF7C2FE0B4B694646F8043B03A8FDF7DD
:10DE7000BBFE394603AA3046FFF7F0FE03A8FDF7C4
:10DE800072FE6846FDF76FFE2046034B2562236055
:10DE900007B0F0BDCCFB3F020CFD3F02F0B50F46D2
:10DEA00085B038461C4916461D460A9CFDF70EFDF6
:10DEB000C0B9A4B1294601A8FFF7BEFC2420174928
:10DEC00000F060FF054630B101AB32462146FFF756
:10DED000BFFF134B2B6001A8FDF745FE2C462046E3
:10DEE00005B0F0BD38460F49FDF7F0FC90B9002CA5
:10DEF000F5D0294601A8FFF79FFC2420074900F030
:10DF000041FF05460028E6D03246214601ABFFF727
:10DF10009FFFE0E70024E2E78CFC3F0260FE3F0247
:10DF200024FD3F0290FC3F02014B024A1A607047F9
:10DF300070AE0710A1FC3F022DE9F047089DD0F814
:10DF4000209004460E461746984600F0A9FC8145ED
:10DF50004DD02B79190704D520466A695449FFF73B
:10DF6000E2FAB8F1000F0DD05B212046FFF756FA18
:10DF700041462046FFF743FA236802222046DB6829
:10DF80004C4998472B79DA0724D5D5F808802F21FA
:10DF9000404600F09AFF08B100F1010841462046D2
:10DFA000FFF72DFA2B799B0708D53A212046FFF77A
:10DFB00035FA2046EA684049FFF7B5FA2A7923681E
:10DFC00012F0040F20464FF00202DB6814BF3B49F9
:10DFD0003B4998472B7958071DD529690B461A46A6
:10DFE00013F8010B60B1202808D11946F7E735482E
:10DFF00000F083F90028ACD0BDE8F0872828EED1E6
:10E000002368521A2046DB6898472368042220467A
:10E01000DB682D49984700213846FEF78BFC014606
:10E020002046FFF7ECF9236802222046DB682449EA
:10E0300098471EB131462046FFF7E1F92B7913F0DE
:10E04000300F2CD023682149DB68022220469847F4
:10E050002B79D9060AD52368072220461C49DB689C
:10E0600098472046AA691B49FFF75DFA2B799A0663
:10E0700011D5DB0605D5236802222046DB680F494F
:10E0800098472368204614490A22DB6898472046AF
:10E09000E969FFF7B4F95D212046FFF7BFF923686E
:10E0A0002046BDE8F0470222DB680C49184700BF54
:10E0B000A5FC3F02ACFC3F026CFC3F02AFFC3F0200
:10E0C000B4FC3F029CAE0710B2FC3F02B7FC3F021B
:10E0D000BAFC3F02C2FC3F02C5FC3F02D0FC3F023B
:10E0E0002DE9F0410446076A0D46164600F0D8FBBC
:10E0F000874207D0206A324603682946BDE8F041CE
:10E10000DB681847034800F0F8F80028F2D0BDE8B3
:10E11000F08100BF9CAE07102DE9F04385B0D0F828
:10E12000209005460F4690461E460C9C00F0B8FB1A
:10E13000814505D1494800F0E0F8002840F08A8088
:10E140004FF000092B6A464A01A8019203938DF80B
:10E150000890FFF730F849464046FEF7EBFB804653
:10E160004049012201A8FFF7B5F84146FFF739F908
:10E170003FB13D49012201A8FFF7ACF83946FFF74E
:10E1800030F93EB13949012201A8FFF7A3F8314621
:10E19000FFF727F92379DF070ED5A6682F21304630
:10E1A00000F093FE00B1461C3149012201A8FFF79F
:10E1B00091F83146FFF715F923799E0707D52D49C8
:10E1C000022201A8FFF786F8E168FFF701F823793A
:10E1D000580714D5266933461F4613F8012B2AB178
:10E1E000202A01D11E46F7E7282AF5D1022222492A
:10E1F00001A8FFF76FF83146BA1BFFF77BF82379C8
:10E20000190707D51D49012201A8FFF763F86169C5
:10E21000FEF7F0FF2379DA0608D5042218490DEB42
:10E220000200FFF757F8A169FEF7D2FF23799B069A
:10E2300007D51449062201A8FFF74CF8E169FFF75A
:10E24000D0F801A8FEF7A1FF286A022203680E4950
:10E25000DB68984705B0BDE8F08300BF9CAE0710AF
:10E26000F4FC3F0282FC3F02D3FC3F02CFFE3F02A0
:10E27000D5FC3F02D7FC3F02DAFC3F02DDFC3F0247
:10E28000DFFC3F02E4FC3F02D0FC3F020023406879
:10E290001A46FEF7CDBB002202214068FEF7E4BB20
:10E2A000002240681146FEF7D1BB002240681146AB
:10E2B000FEF7E8BB002340681A461946FEF7F0BB9C
:10E2C000002340681A461946FEF7F8BB0021406853
:10E2D000FEF73ABC00214068FEF744BC00224068CB
:10E2E00081F00101FEF7F8BB00224068FEF710BC88
:10E2F000002240681146FEF719BC00224068114612
:10E30000FEF7F8BB2DE9F04395B014460D460746DD
:10E31000FEF7EAFD00211C220DA8009100F06BFD24
:10E32000402320460C9300216B460CAAFEF750F9BF
:10E33000044600284BD1024601216868FEF7A2FB83
:10E340000221804622466868FEF79CFB21468146F2
:10E35000009E002E3BD0002939D17368022B03D0D8
:10E360000A2B11D0F669F4E7B8F1000FFAD0716901
:10E3700006A804313C1D07ADFEF7E4FD0FCD0FC428
:10E380002B6841462370EDE7B9F1000FEAD0102267
:10E3900001A8746900F02FFD062301AD8DF814303B
:10E3A00004F1080318342A4618685968083303C270
:10E3B000A3421546F7D101A906A83C1D07ADFEF7FB
:10E3C000A1FD0FCD0FC42B6849462370CAE7009802
:10E3D000FEF7F0F8384615B0BDE8F083024B034A6B
:10E3E0001A6000225A6070479CAE07106CFD3F0215
:10E3F000F8B506460D4600248F18BD420CD0336890
:10E4000030469B6815F8011B9847031E01DB1C442E
:10E41000F3E7002C08BF1C462046F8BD13B50446A0
:10E42000084659B10191FDF75BFA02462046236880
:10E430000199DB6802B0BDE81040184702B010BD7A
:10E4400003689B6818470023012A98BF0A2230B549
:10E450008BB08DF8243009AC0D46B1FBF2F101FB15
:10E46000125303F0FF03092B94BF30333733DBB271
:10E47000AA4204F8013DEFD92146FFF7CFFF0BB0C8
:10E4800030BD00000022014B9A607047A4AE071017
:10E490000021FEF729B90021FEF718B910B504468E
:10E4A00008462170FEF7BEF800232046636010BDC9
:10E4B00013B504460078CDE90021FFF7ECFFDDE954
:10E4C0000021034648B920780090FEF7E3F8009851
:10E4D00002B0BDE81040FFF7DBBF02B010BD13B5BE
:10E4E000044600780191FFF7D6FF019948B92078DA
:10E4F0000190FEF77BF8019802B0BDE81040FFF7ED
:10E50000C7BF02B010BD0078FFF7C5BF0078FFF7A6
:10E51000BFBF000030B50024400818601868E5B29D
:10E52000884206D90134082C02D040081860F5E76B
:10E530000725024B5B5D137030BD00BFA0FD3F029D
:10E5400000232DE9F041044688B000780E461746B6
:10E550000293FFF7A0FF054600BB0146142203A863
:10E5600094F8008000F047FC0B232A46404603A99C
:10E57000ADF80C30FEF772F807FB06F1049802AB19
:10E580000DF107028DF80750FFF7C4FF20789DF8C2
:10E590000710FEF739F82078FFF77AFF029808B0E5
:10E5A000BDE8F08130B587B00A9D0446009500783B
:10E5B000FEF762F83DB9207802A9FEF779F89DF8D8
:10E5C0001430DB07F7D407B030BD10B5044600683F
:10E5D000FEF7E4FA204610BD10B50446006808B105
:10E5E000FEF7DCFA0023C4E90133236010BD38B51F
:10E5F00004460D4600680131FEF7DEFA10B1C4E9A9
:10E600000005012038BD10B50368044623B14368F6
:10E610008B4201D3012010BD2046FFF7E8FF002800
:10E62000F9D0A368002BF5D122681370F2E737B553
:10E630000D46114601920446FFF7E5FF019A28B9FD
:10E640002046FFF7C9FF204603B030BD2946A2602F
:10E65000206800F0A9FB00212268A368D154F2E7EA
:10E6600038B5054600680C4668B16A688B689A42FE
:10E6700007D3096800F00DFCA368AB600023A3601A
:10E6800038BDFEF78BFA23682B6063686B60A36864
:10E69000AB600023C4E90033F1E7002310B5044662
:10E6A000C0E9003383600373FFF7DAFF204610BD33
:10E6B000884210B5044605D00B682BB18A6819460C
:10E6C000FFF7B5FF204610BDFFF786FFFAE70023EE
:10E6D00010B50446C0E9003383600373FFF7E8FF19
:10E6E000204610BD02220020044B1A60044B054A4C
:10E6F000C3E900009A60FEF739B900BFC0AE071049
:10E70000B4AE07100000FFFF024B1A68024B1A60FC
:10E71000704700BF70AD0710C4AE0710704741745A
:10E72000704708B5007CFEF74FF820EAE07008BD9E
:10E7300008B5007CFEF702F820EAE07008BD08B5D5
:10E74000007CFEF717F840EAE07008BD08B5007CD1
:10E75000FEF702F840EAE07008BD007CFEF718B84A
:10E7600037B5457C04462DB1207C03B0BDE8304070
:10E77000FDF7D6BF007C0191FEF726F8002801992D
:10E78000F2DC284603B030BD10B504461421FDF775
:10E79000D0F8204610BD000010B54FF47A7304463F
:10E7A000084611460022C4E90123044B207423606B
:10E7B00001236374FEF724F8204610BDCCFD3F0210
:10E7C0000023007CFEF70EB80022FFF7F9BF007CA3
:10E7D000FDF798BF007CFDF7E9BF417470477047B3
:10E7E000704708B50021007CFEF75EF840EAE07053
:10E7F00008BD08B50121007CFEF756F840EAE0703C
:10E8000008BD08B5007CFEF741F820EAE07008BDBD
:10E8100008B5007CFEF72CF820EAE07008BD13B5BF
:10E820000446007C0191FEF731F80028019901DCD3
:10E83000607C20B1207CFEF745F820EAE07002B051
:10E8400010BD007CFEF74CB810B504461421FDF74E
:10E8500070F8204610BD000010B54FF47A730446DE
:10E8600008460021C4E90113044B207423600123EE
:10E8700011466374FDF7D2FF204610BDFCFD3F0238
:10E880000022007CFDF7D8BF007CFDF7E3BF10B588
:10E8900004461422002100F0AEFA204610BD00000C
:10E8A00010B588B003A8FFF7F2FF0C4CD4E88F1F17
:10E8B00011F001010FD120460191FDF749F80199AE
:10E8C00048B103AA0648FFF7C7FF2046FDF745F801
:10E8D000044800F05BFA024808B010BDC8AE07104B
:10E8E000CCAE071037F23F02002240681146FEF717
:10E8F000C9B8002240681146FEF7FCB80022406803
:10E900001146FEF713B900224068FEF701B9002254
:10E91000406881F00101FEF7DFB8002340681A4625
:10E920001946FEF7CBB8002340681A461946FEF791
:10E93000B7B8002240681146FEF788B800220221CD
:10E940004068FEF791B8002340681A46FEF770B899
:10E950000422024B5A60024A1A607047E0AE071068
:10E960002CFE3F02014B1860704700BF74AD0710CA
:10E9700008B50F4B43B1FFF793FF03681B69984736
:10E98000002801DD00E000BF0A4B43B100F06AF946
:10E9900003681B699847002801DD00E000BF064BB3
:10E9A0000BB100F0A5F9054B0BB100F0D7F908BD8C
:10E9B0000000000000000000000000000000000057
:10E9C00008B5FFF7D5FFFDF707FD014B186008BD3F
:10E9D000F0AE07100548064A08B5121A054900F0BE
:10E9E000E3F9054B054A1A6008BD00BF00B40710E3
:10E9F00004B4071018F65F0800B407101E1C279A0D
:10EA0000002307B51A466FF077010093FDF7E6FF84
:10EA100003B05DF804FB000007B543880A2B08D05B
:10EA2000502B0BD1094B1B684BB103B05DF804EBC5
:10EA30001847FFF7E5FF03B05DF804FB00231A4613
:10EA40006FF077010093FDF7C9FFF4E7ECAE071014
:10EA5000002110B51148FEF7E7F8114B1A68114B69
:10EA60009A420CBF012200220F4B1A7001D0FFF70F
:10EA7000B1FFFDF795FC044600F0C6F90B4B13B14E
:10EA8000204600E000BF00210848FDF7B5FFBDE8C3
:10EA9000104000210648FDF793BF00BFBDF33F02C1
:10EAA00000B407101E1C279AE8AE071000000000F3
:10EAB00071F43F021B2837B5044602D9002003B089
:10EAC00030BDA0F10F03022B0BD9012821D800F093
:10EAD00075F80021007CFDF735FD80F00100C0B223
:10EAE000EDE7114DD5E88F1F11F001010BD128463C
:10EAF0000191FCF72DFF019928B10C48FFF7CEFCDE
:10EB00002846FCF72AFF094B1878FDF799FD0028E5
:10EB1000D4D1083C012C05D800F0A4F8007CFDF706
:10EB200045FEDAE70120CAE748AE07104CAE0710F1
:10EB30001B2838B504460D460AD8FF2908D0FFF730
:10EB4000B9FF28B129462046BDE83840FDF752BC40
:10EB500038BD38B504460D46FDF75AFCFF2810D0E5
:10EB6000062804D84D2323FA00F0C30709D4204611
:10EB7000FFF7A0FF28B129462046BDE83840FDF741
:10EB800055BC38BD7047000038B50A4B04460360D9
:10EB9000012309494361202000F0F6F82025606038
:10EBA00005492846A56000F0EFF8C4E903052046B2
:10EBB00038BD00BF1800010060FE3F0230B50E4DA9
:10EBC00087B0D5E88F1F11F0010411D12846FCF75A
:10EBD000BFFE68B16846FFF7D7FF6A46214607487F
:10EBE000FEF7EEF82846FCF7B8FE054800F0CEF830
:10EBF000024807B030BD00BFF4AE0710F8AE0710F2
:10EC0000DDF53F027047000038B5142504462A465A
:10EC1000002100F0F0F8258040250749284625818D
:10EC2000258200F0B1F804496060284600F0ACF895
:10EC3000E060204638BD00BF60FE3F02704770476D
:10EC400010B50446FFF7E0FF204610BD10B504469E
:10EC5000FFF7DAFF204610BD10B50446FFF7D4FFDA
:10EC6000204610BD30B50E4D87B0D5E88F1F11F08E
:10EC7000010411D12846FCF76BFE68B101A8FFF72B
:10EC8000DFFF214601AA0748FFF786FD2846FCF76B
:10EC900064FE054800F07AF8024807B030BD00BFB6
:10ECA0000CAF071018AF07105DF63F0210B50D4C02
:10ECB00086B0D4E88F3FDB0711D42046FCF748FE2E
:10ECC00068B101A8FFF7C2FF012101AA0648FFF7BA
:10ECD00063FD2046FCF741FE044800F057F8024867
:10ECE00006B010BD10AF07102CAF071097F63F020B
:10ECF00010B5FFF7DBFF074B044653B1FFF76AFD82
:10ED000038B1236820461B699847002801DD00E0E0
:10ED100000BF10BD0000000010B50D4C86B0D4E857
:10ED20008F3FDB0711D42046FCF712FE68B101A823
:10ED3000FFF792FF022101AA0648FFF72DFD2046AA
:10ED4000FCF70BFE044800F021F8024806B010BDA5
:10ED500014AF071040AF071095F63F0210B5FFF74C
:10ED6000DBFF074B044653B1FFF734FD38B123688E
:10ED700020461B699847002801DD00E000BF10BD58
:10ED800000000000FCF7D1BDFCF7D1BD0023014617
:10ED90001A46184600F03AB9024B1844407800F081
:10EDA00097007047D1FE3F020A44431E914200D1B2
:10EDB000704710B511F8014B914203F8014FF9D19A
:10EDC00010BD884210B501EB020402D984422346EB
:10EDD00007D8431EA14208D011F8012B03F8012FD8
:10EDE000F8E7024401468A4200D110BD13F8014DF4
:10EDF00002F8014DF7E702440346934200D1704701
:10EE000003F8011BF9E7000038B5104B04461D68F4
:10EE1000AB6BB3B91820FDF7B3FE0246A86320B967
:10EE20000B4B42210B48FDF7F1FE0B490B4BC0E9A0
:10EE300000130B4B002183600B2383810120C2E967
:10EE40000401AB6B00221C615A6138BD74AD071020
:10EE500061FE3F0278FE3F020E33CDAB34126DE609
:10EE6000ECDE0500C9B2034610F8012B1AB18A4244
:10EE7000F9D118467047002918BF0023F9E710B5EB
:10EE80000446FFF7EFFF18B92046FCF729FD2044A0
:10EE900010BD034611F8012B03F8012B002AF9D10C
:10EEA000704710B57AB103460139841813F8010B85
:10EEB00011F8012F904201D1A34201D1801A10BD57
:10EEC0000028F3D1FAE71046F9E738B503460C46B7
:10EED00069B9BDE83840FFF7C5BF431C0546214668
:10EEE0001846FFF7BFFF0028F7D1284638BD002598
:10EEF000F5E70000012B2DE9F04701D0242B06D9BE
:10EF0000FDF776FE162303600020BDE8F0870D466E
:10EF1000DFF8E0C02E4615F8014B14F80C7017F01E
:10EF20000807F7D12D2C32D12C780127B51C002BE6
:10EF30005BD0102B09D1302C07D12C7804F0DF04E2
:10EF4000582C4DD16C781023023507F100484FF052
:10EF5000000C08F1FF386646B8FBF3F903FB198A89
:10EF6000A4F1300EBEF1090F16D87446A34224DD79
:10EF7000BCF1000F1EDBB1451CD301D1A24519DB4A
:10EF800006FB03464FF0010C15F8014BE8E72B2C6C
:10EF900004BF2C78B51CCAE7A4F1410EBEF1190FCD
:10EFA00001D8373CE2E7A4F1610EBEF1190F04D895
:10EFB000573CDBE74FF0FF3CE6E7BCF1000F05DA1A
:10EFC00022234646036042B930469EE707B17642A7
:10EFD000002AF9D0BCF1000F00D0691E1160F3E7E0
:10EFE0003024002BB1D10823AFE7302CA5D00A2361
:10EFF000ABE700BFD2FE3F0213460A460146024875
:10F000000068FFF777BF00BF74AD07102DE9F84324
:10F01000DFF8BC8006461F460D46D8F80000914632
:10F0200000F058F8264B1C6834B9264C1C60264B5F
:10F0300013B11B68C4F8883063681F2B07DDD8F84C
:10F04000000000F049F84FF0FF30BDE8F8835EB3F0
:10F05000D4F8880088B91D4B23B9D8F8000000F017
:10F060003AF8F0E74FF48470FDF78AFD0028F4D0F9
:10F070000023C0E94033C4F8880063680122022EEF
:10F0800040F8239002FA03F200EB8301D0F800313C
:10F0900043EA0203C0F80031C1F8807002BFD0F823
:10F0A00004311343C0F804316368D8F800005A1CD7
:10F0B0000233626044F8235000F00EF80020C4E7E9
:10F0C000E0AF071054AF071000000000D9D53F0291
:10F0D000D8AD0710704770477047000049C33F0222
:10F0E00071C33F0275C33F020000000043616C6CB6
:10F0F000206F6E2070757265207669727475616C10
:10F100000043757272656E742076616C756520417E
:10F11000203A202530362E3466200A0054656D7062
:10F120006572617475726520C2B043203A20252E45
:10F130003266200A0054656D70657261747572657F
:10F1400020C2B046203A20252E3266200A005265A1
:10F150006C61746976652048756D6964697479209D
:10F160003A20252E3266200A000000000000000030
:10F1700000000000000000000000000091C33F02FA
:10F18000B9C33F020000000000000000BDC33F0201
:10F19000F1C33F0291E93F0239EB3F02000000005A
:10F1A00000000000A3D73F0299D73F028FD73F024C
:10F1B00085D73F0279D73F026DD73F0225ED3F0249
:10F1C0002DED3F0261D73F0259D73F024FD73F0293
:10F1D00045D73F025DED3F02000000000000000047
:10F1E000C1D73F020BD83F02E3D73F02C3D73F024C
:10F1F000EBD73F02F3D73F02FBD73F0203D83F02D2
:10F200000000000000000000DBD83F02CBD83F0226
:10F21000CDD83F022564002575007525303478006F
:10F22000626175640053657269616C00536572694F
:10F23000616C31004A534F4E53747265616D4C6F6F
:10F240006748616E646C65720061707000253031D2
:10F25000307520005D20002C200028293A20002055
:10F260005B00636F6465203D200025690064657460
:10F2700061696C73203D20000D0A006D0066006C12
:10F280006E00666E007400636F646500646574618F
:10F29000696C0000000000000000000089DD3F02F2
:10F2A000AFDD3F026DDD3F02EBD93F020000000001
:10F2B000000000003DE23F0255E23F0291E93F02BB
:10F2C00039EB3F02000000000000000069E23F024D
:10F2D0007DE23F0271EB3F0275DD3F02000000005E
:10F2E0000000000087DD3F02BDDD3F02F5E83F0280
:10F2F00077DD3F02000000000000000085DD3F02D6
:10F30000CBDD3F02A5E13F02EDDD3F020000000042
:10F3100000000000E5EC3F02EFEC3F02F9EC3F0299
:10F3200003ED3F020DED3F0219ED3F0225ED3F02D7
:10F330002DED3F0235ED3F0241ED3F0249ED3F0229
:10F3400053ED3F025DED3F020008101820283038D1
:10F3500025592D256D2D25645425483A254D3A25EE
:10F3600053257A0061736374696D650000000000C5
:10F370000000000075F13F02E1F13F02B9F13F02E8
:10F3800049EE3F0289F13F02A5F13F0297F13F02AA
:10F39000B3F13F0277F13F027BF13F020000000032
:10F3A0000000000039F23F02A1F23F0277F23F0273
:10F3B00049EE3F0269F23F023BF23F024BF23F024D
:10F3C0009BF23F025BF23F0233F23F02000000007B
:10F3D000000000009FF33F0295F33F028BF33F02D2
:10F3E00041F33F027FF33F0273F33F0225ED3F02FB
:10F3F0002DED3F0267F33F025FF33F0255F33F02FB
:10F400004BF33F025DED3F02005245454E54206DE7
:10F41000616C6C6F6320737563636565646564001C
:10F420002F746D702F6A656E6B696E732D47434341
:10F430002D31302D706970656C696E652D34385FC3
:10F4400032303230313132345F313630363138306B
:10F450003633392F7372632F6E65776C69622F6E46
:10F4600065776C69622F6C6962632F7374646C6971
:10F47000622F72616E642E63000020202020202005
:10F480002020202828282828202020202020202054
:10F490002020202020202020202088101010101054
:10F4A00010101010101010101010040404040404A4
:10F4B0000404040410101010101010414141414187
:10F4C00041010101010101010101010101010101EC
:10F4D000010101010110101010101042424242427D
:10F4E00042020202020202020202020202020202BC
:10F4F00002020202021010101020000000000000A2
:10F5000000000000000000000000000000000000FB
:10F5100000000000000000000000000000000000EB
:10F5200000000000000000000000000000000000DB
:10F5300000000000000000000000000000000000CB
:10F5400000000000000000000000000000000000BB
:10F5500000000000000000000000000000000000AB
:10F56000000000000000000000000000000000009B
:10F57000000000000000000000000000A9C63F02DB
:10F5800001D73F02ADD73F0281E93F0235EE3F028E
:10F59000DDEE3F023DF13F0261F13F02A9F33F0280
:10F5A000000000023CFD3F0254FD3F02BCFD3F0253
:10F5B00078AD07100000000000000000000000000F
:10F5C000000000000000000000000000000000003B
:10F5D000000000000000000000000000000000002B
:10F5E000000000000000000000000000000000001B
:10F5F000000000000000000000000000000000000B
:10F6000000000000000000000000000000000000FA
:08F6100000000000E4AF071048
:04F6180000000000EE
:10FFBE000200100000B05F0888B05F08E0BA3F0290
:10FFCE0001000A00FFFFFFFFFFFF00000102030414
:10FFDE0005060708090A0B0C0D0E0F10111213144B
:0EFFEE0015161718191A1B1C1D1E1F203E0089
:04FFFC0078563412ED
:04000005085FB018C8
:00000001FF
