:02000004085F93
:10D0000000D05F08FCFF5F0800000600200005015B
:08D010000401B514000000004A
:10D018000E480F4908B5884205D00E4A824202D010
:10D028000D4B121A98470D480D4A00210D4B121A44
:10D0380098470D480D49884205D00D4A824202D0D2
:10D04800054B121A9847014808BD00BFC4AD071028
:10D058005CFB5F0834AE07102D0D111034AE0710BD
:10D06800E8AF0710A10E111028D53F0288D05F083D
:0CD07800FCFF3F0219D05F080000000020
:08D088007CD05F087CFD3F0233
:10D0900081F0004102E000BF83F0004330B54FEA69
:10D0A00041044FEA430594EA050F08BF90EA020FD6
:10D0B0001FBF54EA000C55EA020C7FEA645C7FEA69
:10D0C000655C00F0E2804FEA5454D4EB5555B8BF8C
:10D0D0006D420CDD2C4480EA020281EA030382EAFD
:10D0E000000083EA010180EA020281EA0303362D8F
:10D0F00088BF30BD11F0004F4FEA01314FF4801C62
:10D100004CEA113102D0404261EB410113F0004F73
:10D110004FEA03334CEA133302D0524263EB43032A
:10D1200094EA050F00F0A780A4F10104D5F1200EC8
:10D130000DDB02FA0EFC22FA05F2801841F1000123
:10D1400003FA0EF2801843FA05F359410EE0A5F1F7
:10D1500020050EF1200E012A03FA0EFC28BF4CF028
:10D16000020C43FA05F3C01851EBE37101F00045DE
:10D1700007D54FF0000EDCF1000C7EEB00006EEBEB
:10D180000101B1F5801F1BD3B1F5001F0CD3490875
:10D190005FEA30004FEA3C0C04F101044FEA4452CC
:10D1A00012F5800F80F09A80BCF1004F08BF5FEA53
:10D1B000500C50F1000041EB045141EA050130BD33
:10D1C0005FEA4C0C404141EB0101013C28BFB1F545
:10D1D000801FE9D291F0000F04BF01460020B1FA90
:10D1E00081F308BF2033A3F10B03B3F120020CDA63
:10D1F0000C3208DD02F1140CC2F10C0201FA0CF041
:10D2000021FA02F10CE002F11402D8BFC2F1200CA5
:10D2100001FA02F120FA0CFCDCBF41EA0C0190405B
:10D22000E41AA2BF01EB0451294330BD6FEA0404A4
:10D230001F3C1CDA0C340EDC04F11404C4F120028F
:10D2400020FA04F001FA02F340EA030021FA04F3A1
:10D2500045EA030130BDC4F10C04C4F1200220FAF8
:10D2600002F001FA04F340EA0300294630BD21FA36
:10D2700004F0294630BD94F0000F83F4801306BFFC
:10D2800081F480110134013D4EE77FEA645C18BFF0
:10D290007FEA655C29D094EA050F08BF90EA020F87
:10D2A00005D054EA000C04BF1946104630BD91EA7F
:10D2B000030F1EBF0021002030BD5FEA545C05D182
:10D2C0004000494128BF41F0004130BD14F58004C1
:10D2D0003CBF01F5801130BD01F0004545F0FE4135
:10D2E00041F470014FF0000030BD7FEA645C1ABF6A
:10D2F000194610467FEA655C1CBF0B46024650EAA1
:10D30000013406BF52EA033591EA030F41F40021CC
:10D3100030BD00BF90F0000F04BF0021704730B552
:10D320004FF4806404F132044FF000054FF0000127
:10D3300050E700BF90F0000F04BF0021704730B5E8
:10D340004FF4806404F1320410F0004548BF4042BD
:10D350004FF000013EE700BF42004FEAE2014FEA12
:10D3600031014FEA02701FBF12F07F4393F07F4FED
:10D3700081F06051704732F07F4208BF704793F0F0
:10D380007F4F04BF41F40021704730B54FF4607403
:10D3900001F0004521F000411CE700BF50EA010206
:10D3A00008BF704730B54FF000050AE050EA0102AF
:10D3B00008BF704730B511F0004502D5404261EB1F
:10D3C00041014FF4806404F132045FEA915C3FF460
:10D3D000D8AE4FF003025FEADC0C18BF03325FEAFD
:10D3E000DC0C18BF033202EBDC02C2F1200300FAAE
:10D3F00003FC20FA02F001FA03FE40EA0E0021FAD3
:10D4000002F11444BDE600BF70B54FF0FF0C4CF4C0
:10D41000E06C1CEA11541DBF1CEA135594EA0C0F72
:10D4200095EA0C0F00F0DEF82C4481EA030621EAAD
:10D430004C5123EA4C5350EA013518BF52EA0335E8
:10D4400041F4801143F4801338D0A0FB02CE4FF09A
:10D450000005E1FB02E506F00042E0FB03E54FF0CA
:10D460000006E1FB03569CF0000F18BF4EF0010EC2
:10D47000A4F1FF04B6F5007F64F5407404D25FEABE
:10D480004E0E6D4146EB060642EAC62141EA555171
:10D490004FEAC52040EA5E504FEACE2EB4F1FD0CB3
:10D4A00088BFBCF5E06F1ED8BEF1004F08BF5FEA31
:10D4B000500E50F1000041EB045170BD06F00046E3
:10D4C00046EA010140EA020081EA0301B4EB5C0490
:10D4D000C2BFD4EB0C0541EA045170BD41F4801188
:10D4E0004FF0000E013C00F3AB8014F1360FDEBFAD
:10D4F000002001F0004170BDC4F10004203C35DA89
:10D500000C341BDC04F11404C4F1200500FA05F30B
:10D5100020FA04F001FA05F240EA020001F00042AC
:10D5200021F0004110EBD37021FA04F642EB060122
:10D530005EEA430E08BF20EAD37070BDC4F10C044C
:10D54000C4F1200500FA04F320FA05F001FA04F210
:10D5500040EA020001F0004110EBD37041F10001FC
:10D560005EEA430E08BF20EAD37070BDC4F1200507
:10D5700000FA05F24EEA020E20FA04F301FA05F26F
:10D5800043EA020321FA04F001F0004121FA04F217
:10D5900020EA020000EBD3705EEA430E08BF20EAE7
:10D5A000D37070BD94F0000F0FD101F00046400021
:10D5B00041EB010111F4801F08BF013CF7D041EAA3
:10D5C000060195F0000F18BF704703F000465200A7
:10D5D00043EB030313F4801F08BF013DF7D043EA78
:10D5E0000603704794EA0C0F0CEA135518BF95EA2E
:10D5F0000C0F0CD050EA410618BF52EA4306D1D1B5
:10D6000081EA030101F000414FF0000070BD50EAD3
:10D61000410606BF1046194652EA430619D094EA5D
:10D620000C0F02D150EA013613D195EA0C0F05D147
:10D6300052EA03361CBF104619460AD181EA03019B
:10D6400001F0004141F0FE4141F470014FF0000053
:10D6500070BD41F0FE4141F4780170BD70B54FF0EE
:10D66000FF0C4CF4E06C1CEA11541DBF1CEA13556E
:10D6700094EA0C0F95EA0C0F00F0A7F8A4EB050450
:10D6800081EA030E52EA03354FEA013100F0888047
:10D690004FEA03334FF0805545EA131343EA126310
:10D6A0004FEA022245EA111545EA10654FEA0026C5
:10D6B0000EF000419D4208BF964244F1FD0404F57E
:10D6C000407402D25B084FEA3202B61A65EB0305DA
:10D6D0005B084FEA32024FF480104FF4002CB6EB97
:10D6E000020E75EB030E22BFB61A754640EA0C0017
:10D6F0005B084FEA3202B6EB020E75EB030E22BF57
:10D70000B61A754640EA5C005B084FEA3202B6EB97
:10D71000020E75EB030E22BFB61A754640EA9C0056
:10D720005B084FEA3202B6EB020E75EB030E22BF26
:10D73000B61A754640EADC0055EA060E18D04FEAE4
:10D74000051545EA16754FEA06164FEAC30343EA84
:10D7500052734FEAC2025FEA1C1CC0D111F4801F51
:10D760000BD141EA00014FF000004FF0004CB6E74A
:10D7700011F4801F04BF01430020B4F1FD0C88BFE9
:10D78000BCF5E06F3FF6AFAEB5EB030C04BFB6EBF4
:10D79000020C5FEA500C50F1000041EB045170BDE7
:10D7A0000EF0004E4EEA113114EB5C04C2BFD4EB14
:10D7B0000C0541EA045170BD41F480114FF0000E98
:10D7C000013C90E645EA060E8DE60CEA135594EA14
:10D7D0000C0F08BF95EA0C0F3FF43BAF94EA0C0F17
:10D7E0000AD150EA01347FF434AF95EA0C0F7FF48C
:10D7F00025AF104619462CE795EA0C0F06D152EAE0
:10D8000003353FF4FDAE1046194622E750EA4106C3
:10D8100018BF52EA43067FF4C5AE50EA41047FF4D4
:10D820000DAF52EA43057FF4EBAE12E74FF0FF3C39
:10D8300006E000BF4FF0010C02E000BF4FF0010C0A
:10D840004DF804CD4FEA410C7FEA6C5C4FEA430C83
:10D8500018BF7FEA6C5C1BD001B050EA410C0CBFD2
:10D8600052EA430C91EA030F02BF90EA020F002034
:10D87000704710F1000F91EA030F58BF994208BF9B
:10D8800090422CBFD8176FEAE37040F00100704758
:10D890004FEA410C7FEA6C5C02D150EA013C07D1AF
:10D8A0004FEA430C7FEA6C5CD6D152EA033CD3D0FA
:10D8B0005DF8040B704700BF8446104662468C46F4
:10D8C0001946634600E000BF01B5FFF7B7FF002827
:10D8D00048BF10F1000F01BD4DF808EDFFF7F4FF50
:10D8E0000CBF012000205DF808FB00BF4DF808EDDB
:10D8F000FFF7EAFF34BF012000205DF808FB00BFFE
:10D900004DF808EDFFF7E0FF94BF012000205DF81F
:10D9100008FB00BF4DF808EDFFF7CEFF94BF0120D4
:10D9200000205DF808FB00BF4DF808EDFFF7C4FFCD
:10D9300034BF012000205DF808FB00BF4FEA410C16
:10D940007FEA6C5C02D150EA013C0AD14FEA430CF9
:10D950007FEA6C5C02D152EA033C02D14FF0000036
:10D9600070474FF0010070474FEA410212F5001274
:10D9700015D211D56FF47873B3EB625212D94FEA16
:10D98000C12343F0004343EA505311F0004F23FA00
:10D9900002F018BF404270474FF00000704750EA55
:10D9A000013005D111F0004008BF6FF00040704712
:10D9B0004FF00000704700BF4A0011D212F500126C
:10D9C00011D20DD56FF47873B3EB62520ED44FEAD7
:10D9D000C12343F0004343EA505323FA02F0704757
:10D9E0004FF00000704750EA013002D14FF0FF3095
:10D9F00070474FF0000070474FEA4102B2F1E04338
:10DA000024BFB3F5001CDCF1FE5C0DD901F0004C25
:10DA10004FEAC0024CEA5070B2F1004F40EB830075
:10DA200008BF20F00100704711F0804F21D113F1A1
:10DA30003872BCBF01F00040704741F480114FEADA
:10DA40005252C2F11802C2F1200C10FA0CF320FA63
:10DA500002F018BF40F001004FEAC1234FEAD32380
:10DA600003FA0CFC40EA0C0023FA02F34FEA4303EA
:10DA7000CCE77FEA625307D150EA01331EBF4FF073
:10DA8000FE4040F44000704701F0004040F0FE408E
:10DA900040F40000704700BF034613F8012B002A32
:10DAA000FBD1181A0138704770B501F0C9FC002588
:10DAB000054E064CA41BA408AC4200D170BD56F81C
:10DAC000043B98470135F7E7D8FF3F02FCFF3F02D0
:10DAD00000F014B808B500F0C7F8BDE8084001F040
:10DAE00067BC00F0EBBE00F0F7BE0078B0FA80F043
:10DAF00040097047012303707047000010B50024EF
:10DB000088B001F0C5FB642101F0B6FB04A8CDE9A3
:10DB10000444ADF8184000F015FF11482246234692
:10DB20002146406800F068FE04A800F0C1F80D4BE3
:10DB300004A904930B230C488DF8143000F0C4F8AA
:10DB400001A800F078FA0123084C01A92046ADF89D
:10DB5000043000F078FA204600F022FB08B010BD37
:10DB6000E0AE0710100F11124CAE071060AE071098
:10DB700070B5334800F0A4FA324C314884ED000A05
:10DB800000F0DCFAD4ED007A9FED2F7AF4EE477ABC
:10DB9000F1EE10FA2D4D85ED000A4AD0B4EE470A99
:10DBA000F1EE10FA45D017EE900AFFF7D5FB22A34D
:10DBB000D3E90023FFF728FC0022254BFFF76EFA7C
:10DBC000FFF71AFF234E306001F062FB224901F09B
:10DBD000F1F801F05DFB94ED000A0A2101F0EEF985
:10DBE00001F056FB1D4901F0F8F801F051FB1C490A
:10DBF00001F0E0F801F04CFB96ED000A0A2101F07B
:10DC0000DDF901F045FB154901F0E7F801F040FBB3
:10DC1000144901F0CFF801F03BFB0A2195ED000A11
:10DC200001F0CCF901F034FB0C4901F0D6F80120E9
:10DC300070BD0020FCE700BFCDCCCCCCCCCCFC3FF1
:10DC400060AE071070AE07100000804748AE0710A6
:10DC50000000404040AE07109DFD3F029CFD3F028A
:10DC6000B0FD3F02C6FD3F0208B5FFF781FFBDE8EA
:10DC700008404FF47A7000F059BE000038B5012416
:10DC80000025084B084A1C70084B2046C3E9005584
:10DC90009A6000F009FD29462046BDE8384000F0B2
:10DCA0001FBD00BF44AE07100000FFFF34AE0710D9
:10DCB0004FF0FF3303600371024B836000238381C5
:10DCC000704700BFA0860100F0B50C46054600264F
:10DCD00085B001A800F014F9A368E1780293237BD2
:10DCE00028468DF80C30A3788DF804608DF8053047
:10DCF00023882F1DADF8063000F02FF8E378384662
:10DD00002B7401A900F0E2F8013019D031463846F1
:10DD100000F0C0F89DF80C10384600F015F9029993
:10DD2000384600F01CF9607B00F0ACF82179A81CA3
:10DD300000F008F8287C00F093F8304605B0F0BDFC
:10DD4000FF20FBE710B50C4621B9007801F0E8FB95
:10DD5000204610BD4FF0FF30FBE7012908B504D184
:10DD6000008801F0DDFB002008BD4FF0FF30FBE72D
:10DD700010B50024054B1C70054B1C6001F016FC0F
:10DD80002146BDE8104000F07FBE00BF74AE071012
:10DD900078AE071008B501F009FC054B196800F0D2
:10DDA00073FE01F003FC00F073FE002008BD00BF0D
:10DDB00078AE071010B50C46044B196001F0F6FB65
:10DDC000214600F061FE002010BD00BF78AE0710B4
:10DDD000014B00201970704774AE071013B50C4644
:10DDE000019201F0E3FB0B4B197800F080FE01F08B
:10DDF000DDFB03682146DB68019A984701F0D6FBFA
:10DE0000012100F078FE013818BF4FF0FF3002B05A
:10DE100010BD00BF74AE07102DE9F04115460E4647
:10DE200001F0C4FB0D4901232A46097800F04DFE9C
:10DE30000027C4B25FFA87F8454507F1010707D903
:10DE400001F0B4FB03685B69984706F80800F1E746
:10DE5000B4FA84F040094042BDE8F08174AE071086
:10DE600007B50121019001F05BFB054B0198197882
:10DE7000B1FA81F1490903B05DF804EB01F061BB2F
:10DE800088AE071001289CBF014B1870704700BF77
:10DE900088AE07100020704713B50A4CD4E88F1FD6
:10DEA00011F001010BD120460191FFF71EFE0199EF
:10DEB00028B1054801F09EF82046FFF71BFE0248F6
:10DEC00002B010BD7CAE071080AE071008B501216E
:10DED000122001F025FB0121052001F021FB012189
:10DEE000122001F02EFB0121052001F02AFBFFF793
:10DEF000D3FFFF22002101F087F8002008BD0000B9
:10DF000010B500240121122001F00AFB0121052097
:10DF100001F006FB0121122001F013FB0121052075
:10DF200001F00FFB074B1C70FFF7B6FF214601F015
:10DF300082F8FFF7B1FFBDE810404FF47A72642118
:10DF400001F0A4B888AE071007B50191FFF7A4FF50
:10DF5000019901F070F8002003B05DF804FB10B5E2
:10DF60000C46FFF799FF0122214601F08FF8201A95
:10DF700018BF4FF0FF3010BD2DE9F04F87B002AB56
:10DF800001464FF4004210209C46302431251142B6
:10DF900000F1FF3014BF1D701C7010F0FF004FEA3D
:10DFA000520203F10103F2D1064607468646834634
:10DFB000034680468146024605461CF80510013599
:10DFC000312908BF82F00102D4B2C246102D84EA82
:10DFD000030884EA0B034A46F3463146DBB222D1FA
:10DFE0008DF804306946002301228DF807908DF8E2
:10DFF00006A08DF805808DF803E08DF802708DF88D
:10E0000001608DF8004011F8014B0133E40748BF6F
:10E010001043DBB248BFC0B25200082B92B2F2D11B
:10E0200007B0BDE8F08FBE4626460F46D146C4E78E
:10E03000642000F07BBC4FF6FF7303800023436035
:10E0400040230372704730B50D46044685B001A8E1
:10E05000FFF78EFE6B68204602932B7801A98DF89E
:10E0600006306B788DF805302B7A2373FFF792FE1C
:10E0700001300AD0217B2046FFF7AAFE20466968BE
:10E08000FFF798FE002005B030BDFF20FBE773B519
:10E090001E46044615468DF8071001220DF10701B2
:10E0A000FFF79CFEFFF7C4FF324629462046FFF7E4
:10E0B000B3FEFFF7BDFF02B070BD0000000000001E
:10E0C00037B50323E32101AAFFF7E1FFBDF80440C0
:10E0D0009DF8065064BAA4B22046FFF74DFF854272
:10E0E0001DD124F0030007EE900AFBEEC87A17EE6C
:10E0F000900AFFF731F90DA3D3E90023FFF784F964
:10E10000FFF77AFCFFF728F90AA3D3E90023FEF70B
:10E11000C3FFFFF771FC00EE100A03B030BD9FEDA6
:10E12000020AFAE7AFF3008000008047D7A3703DF2
:10E130000AF76540CDCCCCCCCC6C474037B5032337
:10E14000E52101AAFFF7A3FFBDF804409DF80650A2
:10E1500064BAA4B22046FFF70FFF854201BF24F046
:10E16000030307EE903AB9EE080AFBEEC87A0ABF3D
:10E170009FED037A9FED030AA7EE870A03B030BD37
:10E180000000FA4200008047FE2307B501220DF18E
:10E1900007018DF80730FFF721FE03B05DF804FB9F
:10E1A00007B50190FFF744FFFFF742FFFFF740FF7D
:10E1B000FFF73EFFFFF73CFF0198FFF7E5FFFFF792
:10E1C00037FFFFF735FFFFF733FFFFF731FFFFF7AB
:10E1D0002FFF03B05DF804FB09B504480068044B49
:10E1E00003441B685B6C029309BD0000C4AD0710BB
:10E1F0003000000009B504480068044B03441B6864
:10E200005B68029309BD0000C4AD07100000000068
:10E2100009B504480068044B03441B685B6902931A
:10E2200009BD0000C4AD07100000000009B5044896
:10E230000068044B03441B689B68029309BD0000FF
:10E24000C4AD07101400000009B504480068044B71
:10E2500003441B68DB68029309BD0000C4AD0710CE
:10E260001400000009B504480068044B03441B680F
:10E270001B69029309BD0000C4AD07101400000023
:10E2800009B504480068044B03441B681B680293EB
:10E2900009BD0000C4AD07101000000009B5044816
:10E2A0000068044B03441B68DB68029309BD00004F
:10E2B000C4AD07101000000009B504480068044B05
:10E2C00003441B689B69029309BD0000C4AD07109D
:10E2D0001000000009B504480068044B03441B68A3
:10E2E000DB69029309BD0000C4AD071010000000F7
:10E2F00009B504480068044B03441B681B6A029379
:10E3000009BD0000C4AD07101000000009B50448A5
:10E310000068044B03441B685B6A029309BD00005C
:10E32000C4AD07101000000009B504480068044B94
:10E3300003441B689B6A029309BD0000C4AD07102B
:10E340001000000009B504480068044B03441B6832
:10E35000DB6A029309BD0000C4AD07101000000085
:10E3600009B504480068044B03441B681B6B029307
:10E3700009BD0000C4AD07101000000009B5044835
:10E380000068044B03441B685B6B029309BD0000EB
:10E39000C4AD07101000000009B504480068044B24
:10E3A00003441B681B6C029309BD0000C4AD071039
:10E3B0001000000009B504480068044B03441B68C2
:10E3C0001B6D029309BD0000C4AD071010000000D2
:10E3D00009B504480068044B03441B685B69029359
:10E3E00009BD0000C4AD07104C00000009B5044889
:10E3F0000068044B03441B689B68029309BD00003E
:10E40000C4AD07105000000009B504480068044B73
:10E4100003441B68DB68029309BD0000C4AD07100C
:10E420005000000009B504480068044B03441B6811
:10E43000DB68029309BD0000C4AD0710180000009E
:10E4400009B504480068044B03441B681B69029328
:10E4500009BD0000C4AD07101800000009B504484C
:10E460000068044B03441B68DB69029309BD00008C
:10E47000C4AD07101800000009B504480068044B3B
:10E4800003441B681B6A029309BD0000C4AD07105A
:10E490001800000009B504480068044B03441B68D9
:10E4A0005B6A029309BD0000C4AD071018000000AC
:10E4B00009B504480068044B03441B68DB6A0293F7
:10E4C00009BD0000C4AD07101800000009B50448DC
:10E4D0000068044B03441B681B6C029309BD0000D9
:10E4E000C4AD07101800000009B504480068044BCB
:10E4F00003441B685B6C029309BD0000C4AD0710A8
:10E500001800000009B504480068044B03441B6868
:10E51000DB68029309BD0000C4AD071024000000B1
:10E5200009B504480068044B03441B681B69029347
:10E5300009BD0000C4AD07102400000009B504485F
:10E540000068044B03441B685B69029309BD00002B
:10E55000C4AD07102400000009B504480068044B4E
:10E5600003441B689B69029309BD0000C4AD0710FA
:10E570002400000009B504480068044B03441B68EC
:10E58000DB69029309BD0000C4AD07102400000040
:10E5900009B504480068044B03441B681B6A0293D6
:10E5A00009BD0000C4AD07102400000009B50448EF
:10E5B0000068044B03441B689B6A029309BD00007A
:10E5C000C4AD07102400000009B504480068044BDE
:10E5D00003441B681B6C029309BD0000C4AD071007
:10E5E0002400000009B504480068044B03441B687C
:10E5F0001B68029309BD0000C4AD07103400000081
:10E6000009B504480068044B03441B685B68029327
:10E6100009BD0000C4AD07103400000009B504486E
:10E620000068044B03441B681B69029309BD00008A
:10E63000C4AD07103400000009B504480068044B5D
:10E6400003441B685B69029309BD0000C4AD071059
:10E650003400000009B504480068044B03441B68FB
:10E660009B69029309BD0000C4AD0710340000008F
:10E6700009B504480068044B03441B68DB69029336
:10E6800009BD0000C4AD07103400000009B50448FE
:10E690000068044B03441B681B6A029309BD000019
:10E6A000C4AD07103400000009B504480068044BED
:10E6B00003441B685B68029309BD0000C4AD0710EA
:10E6C0000800000009B504480068044B03441B68B7
:10E6D0005B69029309BD0000C4AD0710080000008B
:10E6E00009B504480068044B03441B68DB6A0293C5
:10E6F00009BD0000C4AD07100800000009B50448BA
:10E700000068044B03441B68D3F88830029309BDAA
:10E71000C4AD07100800000009B504480068044BA8
:10E7200003441B68D3F89430029309BDC4AD0710AD
:10E730000800000009B504480068044B03441B6846
:10E74000DB6B029309BD0000C4AD07102C00000074
:10E7500009B504480068044B03441B685B6C0293D2
:10E7600009BD0000C4AD07102C00000009B5044825
:10E770000068044B03441B685B68029309BD0000FA
:10E78000C4AD07102800000009B504480068044B18
:10E7900003441B689B68029309BD0000C4AD0710C9
:10E7A0002800000009B504480068044B03441B68B6
:10E7B000DB68029309BD0000C4AD0710280000000B
:10E7C00009B504480068044B03441B681B690293A5
:10E7D00009BD0000C4AD07102800000009B50448B9
:10E7E0000068044B03441B685B69029309BD000089
:10E7F000C4AD07102800000009B504480068044BA8
:10E8000003441B689B69029309BD0000C4AD071057
:10E810002800000009B504480068044B03441B6845
:10E82000DB69029309BD0000C4AD07102800000099
:10E8300009B504480068044B03441B681B6A029333
:10E8400009BD0000C4AD07102800000009B5044848
:10E850000068044B03441B681B6B029309BD000056
:10E86000C4AD07102800000009B504480068044B37
:10E8700003441B685B6B029309BD0000C4AD071025
:10E880002800000009B504480068044B03441B68D5
:10E890001B6C029309BD0000C4AD071028000000E6
:10E8A00009B504480068044B03441B685B6C029381
:10E8B00009BD0000C4AD07102800000009B50448D8
:10E8C0000068044B03441B681B68029309BD0000E9
:10E8D000C4AD07100400000009B504480068044BEB
:10E8E00003441B685B68029309BD0000C4AD0710B8
:10E8F0000400000009B504480068044B03441B6889
:10E900001B6C029309BD0000C4AD07100400000099
:10E9100009B504480068044B03441B685B6C029310
:10E9200009BD0000C4AD0710040000000021FFF77E
:10E93000C9BE0000002302480360FFF74DBC00BFC2
:10E940008CAE07101FB50C230021ADF8043003680E
:10E95000ADF80D108DF80630037A8DF80F108DF894
:10E96000073043680293437A01A88DF80C30FFF713
:10E97000EFFE05B05DF804FB002240681146FFF78A
:10E9800057BF002240681146FFF76EBF0022406863
:10E99000FFF75CBF0022406881F00101FFF73ABF3A
:10E9A000002340681A461946FFF726BF0023406837
:10E9B0001A461946FFF712BF002240681146FFF7BA
:10E9C000FFBE002240681146FFF7DEBE0022022192
:10E9D0004068FFF7E7BE002340681A46FFF7C6BE4F
:10E9E0000322024B5A60024A1A60704790AE071029
:10E9F000E4FD3F027047F8B5064615460C468F18F1
:10EA0000BC4206D0336830469B6814F8011B984717
:10EA1000F6E72846F8BD0022007CFFF769BC00211C
:10EA2000007CFFF773BC0021007CFFF77DBC002158
:10EA3000007CFFF787BC0021007CFFF791BC10B57C
:10EA400004461421FFF74FF8204610BD38B50446A0
:10EA500015464FF47A730022C4E90123094B084696
:10EA6000217423602946FFF797FCBF3008D16B69FA
:10EA7000DB0705D56868FFF72FFFE868FFF72CFF75
:10EA8000204638BD20FE3F020022007CFFF7F8BB85
:10EA90000023007C1A461946FFF700BC7FB5002210
:10EAA0001423CDE90122ADF804300B78007C8DF8F9
:10EAB00008304B680393CB6804930B7A01A9059344
:10EAC000FFF778FC07B05DF804FB1FB5003B8DF83D
:10EAD00000104FF0640118BF0123039169460192B1
:10EAE0008DF80830FFF7DAFF05B05DF804FB00226F
:10EAF000007CFFF7E1BB0022007CFFF7EBBB704717
:10EB000010B504461821FEF7EEFF204610BDF0B503
:10EB1000037D0E46062B4FF000048DB000F1040774
:10EB200012D000F1080515F8011D0A22304600F048
:10EB30005EF9AF42044419D0002CF4D02E213046A7
:10EB400000F03CF90444EEE72F236A4639460A20D8
:10EB50008DF80040FFF73CFC6846FEF79DFF3368E8
:10EB6000024669463046DB689847044620460DB0A9
:10EB7000F0BD000010B50446044B1122002140F8FE
:10EB8000043B00F00CFE204610BD00BF48FE3F02D3
:10EB90000346074A10B543F8042B01F1100251F85F
:10EBA000044B914243F8044BF9D10A781A7010BD16
:10EBB00048FE3F0210B59DF8084044EA032343EAAB
:10EBC0000242042342EA01614160037510BD000066
:10EBD00007B5064B0360CB7800938B784A780978A9
:10EBE000FFF7E8FF03B05DF804FB00BF48FE3F02FB
:10EBF000014B024A1A60704798AE071054FE3F025C
:10EC0000002340681A46FFF7B1BD00220221406888
:10EC1000FFF7C8BD002240681146FFF7B5BD0022CE
:10EC200040681146FFF7CCBD002340681A461946DC
:10EC3000FFF7D4BD002340681A461946FFF7DCBD34
:10EC400000214068FFF71EBE00214068FFF728BE84
:10EC50000022406881F00101FFF7DCBD002240681E
:10EC6000FFF7F4BD002240681146FFF7FDBD00220A
:10EC700040681146FFF7DCBD2DE9F04395B014461E
:10EC80000D460746FFF776FF00211C220DA80091D4
:10EC900000F085FD402320460C9300216B460CAA12
:10ECA000FFF7B2FB044600284BD1024601216868F9
:10ECB000FFF786FD0221804622466868FFF780FD47
:10ECC00021468146009E002E3BD0002939D1736831
:10ECD000022B03D00A2B11D0F669F4E7B8F1000F2C
:10ECE000FAD0716906A804313C1D07ADFFF770FF2B
:10ECF0000FCD0FC42B6841462370EDE7B9F1000F2B
:10ED0000EAD0102201A8746900F049FD062301AD84
:10ED10008DF8143004F1080318342A46186859682D
:10ED2000083303C2A3421546F7D101A906A83C1D2A
:10ED300007ADFFF72DFF0FCD0FC42B684946237099
:10ED4000CAE70098FFF752FB384615B0BDE8F083DC
:10ED5000024B034A1A6000225A6070479CAE0710AB
:10ED600060FE3F02F8B506460D4600248F18BD42EE
:10ED70000CD0336830469B6815F8011B9847031E7A
:10ED800001DB1C44F3E7002C08BF1C462046F8BDFD
:10ED900013B50446084659B10191FEF77DFE0246BF
:10EDA000204623680199DB6802B0BDE8104018478F
:10EDB00002B010BD08B5FFF7EBFF08BD03689B6804
:10EDC000184738B50D210546FFF7F8FF0A2104461C
:10EDD0002846FFF7F3FF204438BD38B50546FFF756
:10EDE000D7FF04462846FFF7ECFF204438BD002338
:10EDF000012A98BF0A2230B58BB08DF8243009ACB7
:10EE00000D46B1FBF2F101FB125303F0FF03092B96
:10EE100094BF30333733DBB2AA4204F8013DEFD957
:10EE20002146FFF7B5FF0BB030BD00002DE9F74FCD
:10EE300055EC104B06460F4610EE102A2B4610EEEE
:10EE4000100A2946FEF77AFD40B153493046FFF7D4
:10EE50009FFF8246504603B0BDE8F08F25F0004981
:10EE60004FF0FF32204649464C4BFEF767FD48B94C
:10EE70004FF0FF3220464946484BFEF741FD08B9A6
:10EE80004749E3E74FF0604220462946454BFEF7ED
:10EE90004BFD08B14449D9E74FF06042204629466E
:10EEA000424BFEF723FD0028F4D100220023204628
:10EEB0002946FEF71BFDD0B12D213046FFF77EFF1E
:10EEC00005F1004382461D464FF0000B00204FF035
:10EED00000083749DFF8E0905FFA8BF39F4208D9CA
:10EEE00042464B46FEF7BAFB0BF1010BF4E78246B4
:10EEF000EAE722462B46FEF7D1F80D460446FEF718
:10EF00005BFD8046FEF706FA02460B462046294680
:10EF1000FEF7C2F80A2204460D4630464146FFF786
:10EF200066FF8244002F95D030462249FFF730FF1C
:10EF30004FF00008DFF880908244002F8AD04246CC
:10EF40004B4620462946FEF75FFA04460D46FEF77B
:10EF50000BFDB0F1000B1CDA2D213046FFF72EFF20
:10EF60000346CBF100010A2230460193FFF73FFF31
:10EF7000019B013F184482445846FEF7DBF90246E4
:10EF80000B4620462946FEF787F8FFB204460D4699
:10EF9000D3E759460023E6E794FE3F02FFFFEF7FE9
:10EFA00098FE3F02FFFFEF419CFE3F02FFFFEFC1D3
:10EFB0000000E03FA0FE3F020000244038B50446B8
:10EFC00010EE100ACDB2FEF7C7F941EC100B29463E
:10EFD0002046BDE83840FFF729BF00000022014B62
:10EFE0009A607047A4AE07100021FFF77DBA002198
:10EFF000FFF76CBA10B5044608462170FFF72EFAE9
:10F0000000232046636010BD13B504460078CDE9A7
:10F010000021FFF7ECFFDDE90021034648B9207825
:10F020000090FFF745FA009802B0BDE81040FFF7E6
:10F03000DBBF02B010BD13B5044600780191FFF7A5
:10F04000D6FF019948B920780190FFF7EBF90198B4
:10F0500002B0BDE81040FFF7C7BF02B010BD00000E
:10F0600030B50024400818601868E5B2884206D917
:10F070000134082C02D040081860F5E70725024B40
:10F080005B5D137030BD00BFA2FE3F0200232DE97F
:10F09000F041044688B000780E4617460293FFF709
:10F0A000A6FF054600BB0146142203A894F8008081
:10F0B00000F075FB0B232A46404603A9ADF80C303F
:10F0C000FFF7E8F907FB06F1049802AB0DF1070220
:10F0D0008DF80750FFF7C4FF20789DF80710FFF761
:10F0E000AFF92078FFF780FF029808B0BDE8F08103
:10F0F00002220020044B1A60044B054AC3E90000B9
:10F100009A60FFF7D1BA00BFC0AE0710B4AE0710C7
:10F110000000FFFF024B1A68024B1A60704700BFE5
:10F12000C8AD0710C4AE071070474174704708B5EA
:10F13000007CFFF73BFA20EAE07008BD08B5007CD0
:10F14000FFF7EEF920EAE07008BD08B5007CFFF794
:10F1500003FA40EAE07008BD08B5007CFFF7EEF95D
:10F1600040EAE07008BD007CFFF704BA37B5457C83
:10F1700004462DB1207C03B0BDE83040FFF7C2B992
:10F18000007C0191FFF712FA00280199F2DC284671
:10F1900003B030BD10B504461421FEF7A4FC204690
:10F1A00010BD000010B54FF47A73044608461146AE
:10F1B0000022C4E90123044B2074236001236374FB
:10F1C000FFF702FA204610BDD0FE3F02007CFFF799
:10F1D000DFB9417470477047704708B50021007C63
:10F1E000FFF738FA40EAE07008BD08B50121007C5D
:10F1F000FFF730FA40EAE07008BD08B5007CFFF781
:10F200001BFA20EAE07008BD08B5007CFFF706FA9B
:10F2100020EAE07008BD13B50446007C0191FFF7B9
:10F220000BFA0028019901DC607C20B1207CFFF7FB
:10F230001FFA20EAE07002B010BD007CFFF726BA8A
:10F2400010B504461421FEF74EFC204610BD000008
:10F2500010B54FF47A73044608460021C4E901133F
:10F26000044B20742360012311466374FFF7BAF93D
:10F27000204610BD00FF3F020022007CFFF7C0B90E
:10F2800010B504461422002100F089FA204610BD72
:10F2900010B588B003A8FFF7F3FF0C4CD4E88F1F1C
:10F2A00011F001010FD120460191FEF71EFC0199DA
:10F2B00048B103AA0648FFF7CBFF2046FEF71AFC29
:10F2C000044800F059FA024808B010BDC8AE071053
:10F2D000CCAE071077F63F02002240681146FFF7D8
:10F2E0006FBA002240681146FFF7A2BA00224068B8
:10F2F0001146FFF7B9BA00224068FFF7A7BA00220B
:10F30000406881F00101FFF785BA002340681A4682
:10F310001946FFF771BA002340681A461946FFF7ED
:10F320005DBA002240681146FFF72EBA0022022182
:10F330004068FFF737BA002340681A46FFF716BA4D
:10F340000422024B5A60024A1A607047E0AE07106E
:10F3500030FF3F02014B1860704700BFCCAD071073
:10F3600008B50F4B43B1FFF793FF03681B6998473C
:10F37000002801DD00E000BF0A4B43B100F06AF94C
:10F3800003681B699847002801DD00E000BF064BB9
:10F390000BB100F0A5F9054B0BB100F0D7F908BD92
:10F3A000000000000000000000000000000000005D
:10F3B00008B5FFF7D5FFFEF72BFF014B186008BD1E
:10F3C000F0AE07100548064A08B5121A054900F0C4
:10F3D000D9F9054B054A1A6008BD00BF00B40710F3
:10F3E00004B40710CCFB5F0800B407101E1C279A5A
:10F3F000002307B51A466FF077010093FFF78CF9E9
:10F4000003B05DF804FB000007B543880A2B08D061
:10F41000502B0BD1094B1B684BB103B05DF804EBCB
:10F420001847FFF7E5FF03B05DF804FB00231A4619
:10F430006FF077010093FFF76FF9F4E7ECAE071078
:10F44000002110B51148FFF763FA114B1A68114BF0
:10F450009A420CBF012200220F4B1A7001D0FFF715
:10F46000B1FFFEF7C7FE044600F0A2F90B4B13B143
:10F47000204600E000BF00210848FFF75BF9BDE827
:10F48000104000210648FFF739B900BFF5F73F02E9
:10F4900000B407101E1C279AE8AE071000000000F9
:10F4A000A9F83F021B2837B5044602D9002003B053
:10F4B00030BDA0F10F03022B0BD9012821D800F099
:10F4C00075F80021007CFEF759FF80F00100C0B202
:10F4D000EDE7114DD5E88F1F11F001010BD1284642
:10F4E0000191FEF702FB019928B10C48FFF782FD5C
:10F4F0002846FEF7FFFA094B1878FEF7BDFF0028F3
:10F50000D4D1083C012C05D800F0A4F8007CFFF70A
:10F510003FF8DAE70120CAE77CAE071080AE07109B
:10F520001B2838B504460D460AD8FF2908D0FFF736
:10F53000B9FF28B129462046BDE83840FEF776BE1F
:10F5400038BD38B504460D46FEF77EFEFF2810D0C4
:10F55000062804D84D2323FA00F0C30709D4204617
:10F56000FFF7A0FF28B129462046BDE83840FEF746
:10F5700079BE38BD7047000038B50A4B04460360B9
:10F58000012309494361202000F0F4F82025606040
:10F5900005492846A56000F0EDF8C4E903052046BA
:10F5A00038BD00BF1800010064FF3F0230B50E4DAA
:10F5B00087B0D5E88F1F11F0010411D12846FEF75E
:10F5C00094FA68B16846FFF7D7FF6A4621460748B4
:10F5D000FFF73CFA2846FEF78DFA054800F0CCF814
:10F5E000024807B030BD00BFF4AE0710F8AE0710F8
:10F5F00015FA3F027047000038B5142504462A4624
:10F60000002100F0CCF825804025074928462581B7
:10F61000258200F0AFF804496060284600F0AAF89F
:10F62000E060204638BD00BF64FF3F02704770476E
:10F6300010B50446FFF7E0FF204610BD10B50446A4
:10F64000FFF7DAFF204610BD10B50446FFF7D4FFE0
:10F65000204610BD30B50E4D87B0D5E88F1F11F094
:10F66000010411D12846FEF740FA68B101A8FFF75E
:10F67000DFFF214601AA0748FFF794FD2846FEF761
:10F6800039FA054800F078F8024807B030BD00BFED
:10F690000CAF071018AF071095FA3F0210B50D4CCC
:10F6A00086B0D4E88F3FDB0711D42046FEF71DFA61
:10F6B00068B101A8FFF7C2FF012101AA0648FFF7C0
:10F6C00071FD2046FEF716FA044800F055F802488E
:10F6D00006B010BD10AF07102CAF0710CFFA3F02D5
:10F6E00010B5FFF7DBFF074B044653B1FFF76EFD84
:10F6F00038B1236820461B699847002801DD00E0E7
:10F7000000BF10BD0000000010B50D4C86B0D4E85D
:10F710008F3FDB0711D42046FEF7E7F968B101A857
:10F72000FFF792FF022101AA0648FFF73BFD2046A2
:10F73000FEF7E0F9044800F01FF8024806B010BDDB
:10F7400014AF071040AF0710CDFA3F0210B5FFF716
:10F75000DBFF074B044653B1FFF738FD38B1236890
:10F7600020461B699847002801DD00E000BF10BD5E
:10F7700000000000FEF7B5B9002301461A461846FE
:10F7800000F044B80A44431E914200D1704710B5BE
:10F7900011F8014B914203F8014FF9D110BD024419
:10F7A0000346934200D1704703F8011BF9E70000BC
:10F7B00038B5104B04461D68AB6BB3B91820FFF782
:10F7C0007DF80246A86320B90B4B42210B48FFF796
:10F7D00091F80B490B4BC0E900130B4B00218360E0
:10F7E0000B2383810120C2E90401AB6B00221C6161
:10F7F0005A6138BDCCAD071065FF3F027CFF3F0268
:10F800000E33CDAB34126DE6ECDE05002DE9F84386
:10F81000DFF8BC8006461F460D46D8F8000091462A
:10F8200000F058F8264B1C6834B9264C1C60264B57
:10F8300013B11B68C4F8883063681F2B07DDD8F844
:10F84000000000F049F84FF0FF30BDE8F8835EB3E8
:10F85000D4F8880088B91D4B23B9D8F8000000F00F
:10F860003AF8F0E74FF48470FFF728F80028F4D056
:10F870000023C0E94033C4F8880063680122022EE7
:10F8800040F8239002FA03F200EB8301D0F8003134
:10F8900043EA0203C0F80031C1F8807002BFD0F81B
:10F8A00004311343C0F804316368D8F800005A1CCF
:10F8B0000233626044F8235000F00EF80020C4E7E1
:10F8C000E0AF071054AF0710000000005DED3F02ED
:10F8D00030AE0710704770477047000049DF3F02A5
:10F8E00071DF3F0275DF3F02000000004375727256
:10F8F000656E742076616C7565203D200054656DE1
:10F900007020696E2043656C63756973203D20002B
:10F9100054656D7020696E2046616872656E686519
:10F920006974203D200052656C61746976652048D9
:10F93000756D6964697479203D2000000000000045
:10F940000000000077EE3F026DEE3F0263EE3F02E3
:10F9500059EE3F024DEE3F0241EE3F02E1F03F0221
:10F96000E9F03F0235EE3F022DEE3F0223EE3F026B
:10F9700019EE3F0219F13F020000000000000000F4
:10F9800095EE3F02DFEE3F02B7EE3F0297EE3F02F9
:10F99000BFEE3F02C7EE3F02CFEE3F02D7EE3F027F
:10F9A0000000000000000000AFEF3F029FEF3F02A9
:10F9B000A1EF3F0261707000000000000000000035
:10F9C000A1F03F02ABF03F02B5F03F02BFF03F02B3
:10F9D000C9F03F02D5F03F02E1F03F02E9F03F02FB
:10F9E000F1F03F02FDF03F0205F13F020FF13F024F
:10F9F00019F13F026E616E00696E66006F766600F7
:10FA00002E00000810182028303825592D256D2D7E
:10FA100025645425483A254D3A2553257A006173CB
:10FA20006374696D650000000000000000000000C4
:10FA3000C9F53F0235F63F020DF63F0205F23F02DF
:10FA4000DDF53F02F9F53F02EBF53F0207F63F0215
:10FA5000CBF53F02CFF53F020000000000000000A0
:10FA600079F63F02E1F63F02B7F63F0205F23F02A8
:10FA7000A9F63F027BF63F028BF63F02DBF63F0220
:10FA80009BF63F0273F63F020000000000000000FA
:10FA9000D7F73F02CDF73F02C3F73F0279F73F02A6
:10FAA000B7F73F02ABF73F02E1F03F02E9F03F0258
:10FAB0009FF73F0297F73F028DF73F0283F73F0220
:10FAC00019F13F02005245454E54206D616C6C6F38
:10FAD0006320737563636565646564002F746D707E
:10FAE0002F6A656E6B696E732D4743432D31302D40
:10FAF000706970656C696E652D34385F32303230F4
:10FB0000313132345F313630363138303633392F97
:10FB10007372632F6E65776C69622F6E65776C699F
:10FB2000622F6C6962632F7374646C69622F7261F7
:10FB30006E642E63000000001DE13F02D5ED3F0220
:10FB400081EE3F0291F03F02F1F13F027DF43F026E
:0CFB500091F53F02B5F53F02E1F73F02DE
:10FB5C0000000002BEFE3F02D0AD07100000000006
:10FB6C000000000000000000000000000000000089
:10FB7C000000000000000000000000000000000079
:10FB8C000000000000000000000000000000000069
:10FB9C000000000000000000000000000000000059
:10FBAC000000000000000000000000000000000049
:10FBBC00000000000000000000000000E4AF07108F
:04FBCC000000000035
:10FFBE000200100000D05F0888D05F0828D53F02ED
:10FFCE0001000A00FFFFFFFFFFFF00000102030414
:10FFDE0005060708090A0B0C0D0E0F10111213144B
:0EFFEE0015161718191A1B1C1D1E1F203E0089
:04FFFC0078563412ED
:04000005085FD018A8
:00000001FF
