:02000002B0004C
:1040000000400B0062980B00000006000D00050246
:0840100004017017000000001C
:0440180034900B00D5
:1040200081F0004102E000BF83F0004330B54FEA69
:1040300041044FEA430594EA050F08BF90EA020FD6
:104040001FBF54EA000C55EA020C7FEA645C7FEA69
:10405000655C00F0E2804FEA5454D4EB5555B8BF8C
:104060006D420CDD2C4480EA020281EA030382EAFD
:10407000000083EA010180EA020281EA0303362D8F
:1040800088BF30BD11F0004F4FEA01314FF4801C62
:104090004CEA113102D0404261EB410113F0004F74
:1040A0004FEA03334CEA133302D0524263EB43032B
:1040B00094EA050F00F0A780A4F10104D5F1200EC9
:1040C0000DDB02FA0EFC22FA05F2801841F1000124
:1040D00003FA0EF2801843FA05F359410EE0A5F1F8
:1040E00020050EF1200E012A03FA0EFC28BF4CF029
:1040F000020C43FA05F3C01851EBE37101F00045DF
:1041000007D54FF0000EDCF1000C7EEB00006EEBEB
:104110000101B1F5801F1BD3B1F5001F0CD3490875
:104120005FEA30004FEA3C0C04F101044FEA4452CC
:1041300012F5800F80F09A80BCF1004F08BF5FEA53
:10414000500C50F1000041EB045141EA050130BD33
:104150005FEA4C0C404141EB0101013C28BFB1F545
:10416000801FE9D291F0000F04BF01460020B1FA90
:1041700081F308BF2033A3F10B03B3F120020CDA63
:104180000C3208DD02F1140CC2F10C0201FA0CF041
:1041900021FA02F10CE002F11402D8BFC2F1200CA6
:1041A00001FA02F120FA0CFCDCBF41EA0C0190405C
:1041B000E41AA2BF01EB0451294330BD6FEA0404A5
:1041C0001F3C1CDA0C340EDC04F11404C4F1200290
:1041D00020FA04F001FA02F340EA030021FA04F3A2
:1041E00045EA030130BDC4F10C04C4F1200220FAF9
:1041F00002F001FA04F340EA0300294630BD21FA37
:1042000004F0294630BD94F0000F83F4801306BFFC
:1042100081F480110134013D4EE77FEA645C18BFF0
:104220007FEA655C29D094EA050F08BF90EA020F87
:1042300005D054EA000C04BF1946104630BD91EA7F
:10424000030F1EBF0021002030BD5FEA545C05D182
:104250004000494128BF41F0004130BD14F58004C1
:104260003CBF01F5801130BD01F0004545F0FE4135
:1042700041F470014FF0000030BD7FEA645C1ABF6A
:10428000194610467FEA655C1CBF0B46024650EAA1
:10429000013406BF52EA033591EA030F41F40021CD
:1042A00030BD00BF90F0000F04BF0021704730B553
:1042B0004FF4806404F132044FF000054FF0000128
:1042C00050E700BF90F0000F04BF0021704730B5E9
:1042D0004FF4806404F1320410F0004548BF4042BE
:1042E0004FF000013EE700BF42004FEAE2014FEA13
:1042F00031014FEA02701FBF12F07F4393F07F4FEE
:1043000081F06051704732F07F4208BF704793F0F0
:104310007F4F04BF41F40021704730B54FF4607403
:1043200001F0004521F000411CE700BF50EA010206
:1043300008BF704730B54FF000050AE050EA0102AF
:1043400008BF704730B511F0004502D5404261EB1F
:1043500041014FF4806404F132045FEA915C3FF460
:10436000D8AE4FF003025FEADC0C18BF03325FEAFD
:10437000DC0C18BF033202EBDC02C2F1200300FAAE
:1043800003FC20FA02F001FA03FE40EA0E0021FAD3
:1043900002F11444BDE600BF70B54FF0FF0C4CF4C1
:1043A000E06C1CEA11541DBF1CEA135594EA0C0F73
:1043B00095EA0C0F00F0DEF82C4481EA030621EAAE
:1043C0004C5123EA4C5350EA013518BF52EA0335E9
:1043D00041F4801143F4801338D0A0FB02CE4FF09B
:1043E0000005E1FB02E506F00042E0FB03E54FF0CB
:1043F0000006E1FB03569CF0000F18BF4EF0010EC3
:10440000A4F1FF04B6F5007F64F5407404D25FEABE
:104410004E0E6D4146EB060642EAC62141EA555171
:104420004FEAC52040EA5E504FEACE2EB4F1FD0CB3
:1044300088BFBCF5E06F1ED8BEF1004F08BF5FEA31
:10444000500E50F1000041EB045170BD06F00046E3
:1044500046EA010140EA020081EA0301B4EB5C0490
:10446000C2BFD4EB0C0541EA045170BD41F4801188
:104470004FF0000E013C00F3AB8014F1360FDEBFAD
:10448000002001F0004170BDC4F10004203C35DA89
:104490000C341BDC04F11404C4F1200500FA05F30C
:1044A00020FA04F001FA05F240EA020001F00042AD
:1044B00021F0004110EBD37021FA04F642EB060123
:1044C0005EEA430E08BF20EAD37070BDC4F10C044D
:1044D000C4F1200500FA04F320FA05F001FA04F211
:1044E00040EA020001F0004110EBD37041F10001FD
:1044F0005EEA430E08BF20EAD37070BDC4F1200508
:1045000000FA05F24EEA020E20FA04F301FA05F26F
:1045100043EA020321FA04F001F0004121FA04F217
:1045200020EA020000EBD3705EEA430E08BF20EAE7
:10453000D37070BD94F0000F0FD101F00046400021
:1045400041EB010111F4801F08BF013CF7D041EAA3
:10455000060195F0000F18BF704703F000465200A7
:1045600043EB030313F4801F08BF013DF7D043EA78
:104570000603704794EA0C0F0CEA135518BF95EA2E
:104580000C0F0CD050EA410618BF52EA4306D1D1B5
:1045900081EA030101F000414FF0000070BD50EAD4
:1045A000410606BF1046194652EA430619D094EA5E
:1045B0000C0F02D150EA013613D195EA0C0F05D148
:1045C00052EA03361CBF104619460AD181EA03019C
:1045D00001F0004141F0FE4141F470014FF0000054
:1045E00070BD41F0FE4141F4780170BD70B54FF0EF
:1045F000FF0C4CF4E06C1CEA11541DBF1CEA13556F
:1046000094EA0C0F95EA0C0F00F0A7F8A4EB050450
:1046100081EA030E52EA03354FEA013100F0888047
:104620004FEA03334FF0805545EA131343EA126310
:104630004FEA022245EA111545EA10654FEA0026C5
:104640000EF000419D4208BF964244F1FD0404F57E
:10465000407402D25B084FEA3202B61A65EB0305DA
:104660005B084FEA32024FF480104FF4002CB6EB97
:10467000020E75EB030E22BFB61A754640EA0C0017
:104680005B084FEA3202B6EB020E75EB030E22BF57
:10469000B61A754640EA5C005B084FEA3202B6EB98
:1046A000020E75EB030E22BFB61A754640EA9C0057
:1046B0005B084FEA3202B6EB020E75EB030E22BF27
:1046C000B61A754640EADC0055EA060E18D04FEAE5
:1046D000051545EA16754FEA06164FEAC30343EA85
:1046E00052734FEAC2025FEA1C1CC0D111F4801F52
:1046F0000BD141EA00014FF000004FF0004CB6E74B
:1047000011F4801F04BF01430020B4F1FD0C88BFE9
:10471000BCF5E06F3FF6AFAEB5EB030C04BFB6EBF4
:10472000020C5FEA500C50F1000041EB045170BDE7
:104730000EF0004E4EEA113114EB5C04C2BFD4EB14
:104740000C0541EA045170BD41F480114FF0000E98
:10475000013C90E645EA060E8DE60CEA135594EA14
:104760000C0F08BF95EA0C0F3FF43BAF94EA0C0F17
:104770000AD150EA01347FF434AF95EA0C0F7FF48C
:1047800025AF104619462CE795EA0C0F06D152EAE0
:1047900003353FF4FDAE1046194622E750EA4106C4
:1047A00018BF52EA43067FF4C5AE50EA41047FF4D5
:1047B0000DAF52EA43057FF4EBAE12E74FF0FF3C3A
:1047C00006E000BF4FF0010C02E000BF4FF0010C0B
:1047D0004DF804CD4FEA410C7FEA6C5C4FEA430C84
:1047E00018BF7FEA6C5C1BD001B050EA410C0CBFD3
:1047F00052EA430C91EA030F02BF90EA020F002035
:10480000704710F1000F91EA030F58BF994208BF9B
:1048100090422CBFD8176FEAE37040F00100704758
:104820004FEA410C7FEA6C5C02D150EA013C07D1AF
:104830004FEA430C7FEA6C5CD6D152EA033CD3D0FA
:104840005DF8040B704700BF8446104662468C46F4
:104850001946634600E000BF01B5FFF7B7FF002827
:1048600048BF10F1000F01BD4DF808EDFFF7F4FF50
:104870000CBF012000205DF808FB00BF4DF808EDDB
:10488000FFF7EAFF34BF012000205DF808FB00BFFE
:104890004DF808EDFFF7E0FF94BF012000205DF820
:1048A00008FB00BF4DF808EDFFF7CEFF94BF0120D5
:1048B00000205DF808FB00BF4DF808EDFFF7C4FFCE
:1048C00034BF012000205DF808FB00BF4FEA410221
:1048D000B2F1E04324BFB3F5001CDCF1FE5C0DD95E
:1048E00001F0004C4FEAC0024CEA5070B2F1004FA8
:1048F00040EB830008BF20F00100704711F0804FAB
:1049000021D113F13872BCBF01F00040704741F46F
:1049100080114FEA5252C2F11802C2F1200C10FA73
:104920000CF320FA02F018BF40F001004FEAC12357
:104930004FEAD32303FA0CFC40EA0C0023FA02F3FB
:104940004FEA4303CCE77FEA625307D150EA0133D1
:104950001EBF4FF0FE4040F44000704701F00040A1
:1049600040F0FE4040F40000704700BF10F8012BFB
:1049700011F8013B012A28BF9A42F7D0D01A70479C
:10498000034613F8012B002AFBD1181A013870478F
:1049900009480A49884208B505D0094A824202D02E
:1049A000121A04F091F90748074A0021121A04F07C
:1049B000B3F9014808BD00BF24E50320C0970B00F0
:1049C00098E5032098E50320F8E7032070B5074E2B
:1049D000074C03F0F9FFA41BA4080025AC4200D14A
:1049E00070BD56F8043B98470135F7E778970B0000
:1049F0009C970B0000F0D6B808B500F007FCBDE8A6
:104A0000084003F099BF01F00BBD01F009BD01F0B2
:104A10000FBD000008B5034A03490C2001F0E4FB78
:104A2000FEE700BFA95E0B0048900B000078B0FACB
:104A300080F0400970470123037070477047000001
:104A4000074A00231380074A1380074A1380074A46
:104A50001380074A1380074A01201380704700BF64
:104A60003CE60320E4E5032030E6032034E603209F
:104A7000E8E50320E6E50320074B05221A80074BF3
:104A800001201880064B1880064B1880064B1880B2
:104A9000064B1880704700BF3CE60320E4E5032086
:104AA00030E6032034E60320E8E50320E6E50320B2
:104AB00010B5034B0360044600F07CFD204610BD9A
:104AC000DC920B0010B50446FFF7F2FF20464FF4CE
:104AD0009871FFF79CFF204610BD000013B5064BF0
:104AE0001B788DF8003000223C23044601F0EEFED6
:104AF000204602B010BD00BFA4E503200A4B10B54C
:104B00000446036002F0E8FC214602F020FF03F0B7
:104B1000CBFE03F0BDFE2046044B40F8043B02F000
:104B2000B1FD204610BD00BFC4920B00AC920B003B
:104B300010B50446FFF7E2FF20462421FFF767FF88
:104B4000204610BD0EB400B58CB00DAA4FF0200C5D
:104B500052F8041B0392CDE900120023016804AA55
:104B60000120CDE904C301F047FB0CB05DF804EB74
:104B700003B070470EB400B58CB00DAA4FF0200CF6
:104B800052F8041B0392CDE900120023016804AA25
:104B90001E20CDE904C301F02FFB0CB05DF804EB3F
:104BA00003B0704710B51F4C1F4A204988B02046FB
:104BB00001F095FD1E4A1F49204601F090FD1E4A56
:104BC0001E49204601F08BFD1D491E4C49680023FB
:104BD0001A46062001F0A4FB01F082FB03F064FEFC
:104BE0004FF4165103F050FE174B002201A81A7023
:104BF00001F063F8012301A92046ADF8043001F06B
:104C000064F8204601F00CF904A800F01DFE0F4BDB
:104C1000049304A912230E488DF8143000F020FEEE
:104C200008B010BDB3660B005D900B00414A0B004D
:104C30006A900B00794A0B0078900B0099520B0098
:104C4000D0E60320BCE5032032E603200B0C0D0563
:104C5000A8E5032038B5046805467CB16368013BCC
:104C600063605BB9236820469B689847A368013B53
:104C7000A3601BB923682046DB689847284638BDE7
:104C800070B5D0E900531426044606FB0356AE4225
:104C900004D0284603F013FC1435F8E7206801F02F
:104CA000C7FB204670BD13B504468DED000A019187
:104CB00000F09EFD01990122204600F007FD2046EC
:104CC0003A2100F0A5FC9DED000A204602B0BDE8A7
:104CD000104000F099BD000070B5D2B012A94FF499
:104CE000807206A800F082FC3A4B06937D227B215D
:104CF00006A800F09BFC384B384D1C7806A800F045
:104D000077FD012206A8364900F0E0FC06A83A210A
:104D100000F07EFC2246294606A800F0C9FC314B73
:104D2000314993ED000A314C06A8FFF7BCFF06A8F5
:104D3000268800F05DFD012206A82D4900F0C6FC82
:104D400006A83A2100F064FC3246294606A800F085
:104D5000AFFC284B284993ED000A06A8FFF7A3FFF4
:104D6000264B274993ED000A06A8FFF79CFF03F0A6
:104D7000C2FCC317024602A803F064FC06A800F0B8
:104D800037FD012206A81F4900F0A0FC06A83A2121
:104D900000F03EFC0299012206A800F097FC02A850
:104DA00003F08DFB06A800F052FC174B079A1B7806
:104DB00016498DF8003002A83C2301F087FD03A8B6
:104DC000FFF748FF002306A82380FFF771FE52B0CB
:104DD00070BD00BFDC920B0032E6032092900B0006
:104DE00084900B0040E6032095900B0014E603200E
:104DF000A1900B0038E60320AC900B00ECE50320FB
:104E0000B8900B00C1900B00A5E50320C6900B00E5
:104E100008B501F06DFA18B1BDE80840FFF75CBFB6
:104E200008BD0000F0B52DED028B4748474E484CB9
:104E300083B000F053FD10EE100A86ED000AFFF774
:104E400053FA02460B4643484349FFF77BFED6ED33
:104E5000007AB7EE008AF4EEC87AF1EE10FA10DBB1
:104E600023883BB93D493B48FFF784FE3C4A138801
:104E7000013313803B493748FFF77CFE2388013319
:104E800023802388384D1E2B41D9384F384931486B
:104E900003232B70FFF76EFE3B8843B93449684605
:104EA000FFF71CFE01A8FFF7D5FEFFF7B1FF3B8817
:104EB00001333B8096ED007AF2EE047AB4EEE77AA5
:104EC000F1EE10FA31DD02232B702A4D2A492148D8
:104ED000FFF750FE2B8843B927496846FFF7FEFDD0
:104EE00001A8FFF7B7FEFFF793FF2B8801332B8054
:104EF000D6ED007AF4EEC87AF1EE10FA03D52388E5
:104F00000BB10023238003B0BDEC028BF0BD2B78E6
:104F1000032BCFD119490F48FFF72CFE134A00236A
:104F20002B701380FFF774FFC4E72B78022BDFD1BF
:104F300013490848FFF71EFE0E4A00232B7013800A
:104F4000FFF766FFD4E700BFA8E50320E0E50320F4
:104F5000CCE50320A4E60320D5900B00F0900B00D5
:104F600014E6032004910B0032E6032030E6032010
:104F700015910B00E4E503203F910B0027910B00F6
:104F800052910B000000000073B55D485D4C00F0CD
:104F9000D7FEDFED5D7AB4EE670AF1EE10FA00F0AD
:104FA000978010EE100AFFF79FF953A3D3E900236F
:104FB000FFF7F2F9554B564E564D0022FFF736F8E3
:104FC000FFF784FC30604E4800F0F8FE237885ED52
:104FD000000A062B07D150495048FFF7CBFD504A35
:104FE0000023237013803068FFF77EF902460B46DA
:104FF0004A484C49FFF7BEFD2868FFF775F902469D
:105000000B4646484849FFF7B5FDD6ED007A9FEDBF
:10501000477AF4EEC77AF1EE10FA06DC9FED447A97
:10502000F4EEC77AF1EE10FA34D5424E42493B48CD
:1050300004232370FFF79EFD338843B93F49684638
:10504000FFF74CFD01A8FFF705FEFFF7E1FE3388EF
:105050000133338095ED007ADFED397AB4EEE77AEB
:10506000F1EE10FA24DD05232370364C36492B4827
:10507000FFF780FD238843B934496846FFF72EFDCA
:1050800001A8FFF7E7FDFFF7C3FE23880133238064
:1050900002B070BD2378042BDCD12D491F48FFF7E7
:1050A00069FD244A002323701380FFF7B1FED1E786
:1050B0002378052BECD127491848FFF75BFD214ADF
:1050C00000232370138002B0BDE87040FFF7A0BE3C
:1050D00006232370124C20491048FFF74BFD23880C
:1050E000002BD2D168461D49FFF7F8FC01A8FFF755
:1050F000B1FDCAE7AFF30080CDCCCCCCCCCCFC3F2B
:10510000BCE5032032E60320000080470000404059
:1051100038E60320ECE503206B910B00A4E60320A6
:10512000E6E503207B910B0094910B000000BE424A
:105130000000344234E60320AF910B00CD910B0008
:105140000000A042E8E50320F9910B000D920B004E
:10515000E1910B001E920B0033920B0041920B0069
:1051600013B52148214C00F0F1F951EC100BFFF779
:10517000ADFB2060FFF7B8F802460B461C481D49FE
:10518000FFF7F8FC94ED007A1B4CF1EE007AB4EED8
:10519000E77AF1EE10FA17D801232370174C18495B
:1051A0001348FFF7E7FC2388042B08D81549684605
:1051B000FFF794FC01A8FFF74DFDFFF729FE2388B8
:1051C0000133238002B010BD2378012BFAD10E49A0
:1051D0000748FFF7CFFC094A00232370138002B071
:1051E000BDE81040FFF714BE18E6032040E6032098
:1051F000A4E603205B920B0032E603203CE603208A
:1052000071920B0082920B0090920B0010B51C4C17
:1052100000F05AFE2368C01AB0F57A7F04D300F07C
:1052200053FE2060FFF7FEFD164C00F04DFE236894
:10523000C01A42F20F73984204D900F045FE206074
:10524000FFF78EFF104C00F03FFE2368C01A0F4B93
:10525000984204D900F038FE2060FFF795FE0C4C10
:1052600000F032FE2368C01A0A4B984206D300F0C1
:105270002BFE2060BDE81040FFF7CABD10BD00BF87
:10528000D4E50320D0E50320DCE50320BF27090097
:10529000D8E5032080EE360008B5FFF7C3FDFFF721
:1052A00073FEFFF75DFFFFF7B3FD012008BD8842E5
:1052B000F8B504460D46164616D9904215D2A2F10D
:1052C0001406751AA1F114072C44B7421CD02CB156
:1052D0003146204603F070F9337C2374304603F0E6
:1052E000EEF8143E143CF0E70ED0B5420CD02CB1D1
:1052F0002946204603F060F92B7C2374284603F0EE
:10530000DEF814351434F0E7F8BD2DE9F041002340
:10531000C0E9003383604F689F4204460E4623DD98
:105320004FF0140808FB07F001F07AF80546D8B1F1
:10533000D4E9001208FB0212FFF7B9FF206801F060
:1053400077F82560A760D6E9007308FB0378B845B5
:1053500008D03946284603F049F93B7C2B741437B2
:105360001435F4E7736863602046BDE8F0810000FF
:1053700070B5304B00241C702F4B01258CB01D7074
:1053800003F054FB23462246042103F05FFB03F0A5
:105390004DFB234622460D2103F050FB0F210E2228
:1053A000264800F059F8264B264A9A60C3E9004483
:1053B000022000F041FF2146284600F04DFFCDE9D4
:1053C0000044029403F070FA1F4C0546694603A896
:1053D000FFF79BFF264603A906A8FFF796FF1B4B86
:1053E00046F8043B06A909A8FFF78FFF09AA1E216A
:1053F000304602F08FFB09A8FFF742FC06A8FFF732
:105400003FFC134B2360256203A8FFF739FC114BC7
:10541000236003F049FA4FF4165103F035FA02F015
:105420005BF8214602F04CFA6846FFF729FC0CB005
:1054300070BD00BFA4E50320A5E5032018E6032006
:1054400098E503200000FFFFF0E50320AC920B007D
:105450008C940B00C4920B00D0B50B4F0446002671
:10546000C4E90267094F08460026C4E90021C4E9DF
:105470000467012180B203F02FFB2088002103F094
:105480002BFB2046D0BD00BF0000244000406F40F1
:1054900010B58CB22046012103F02FFB0A2000F04A
:1054A00003FD20460021BDE8104003F026BB70B587
:1054B0000D461C46164600F007FDADB204442846D2
:1054C00003F034FBB04203D000F0FEFC8442F6D877
:1054D00070BD0000F8B504464168FFF7D9FF2168A8
:1054E000642301222046FFF7E2FF00F0E5FC64237D
:1054F0000022216805462046FFF7D9FF00F0DCFCBA
:10550000401BFEF7DFFE0E4B0022FFF76FF80D4B3E
:105510000022FEF741FF06460F4602460B46D4E93D
:105520000201FFF7C9F930B9D4E9040132463B461C
:10553000FFF7A4F908B1044F002647EC106BF8BD43
:1055400000003D400000E03F0000F0BF38B5FFF72D
:10555000C1FF55EC104B094B10EE100A00222946F2
:10556000FFF782F938B920462946054B0022FFF79C
:105570003DF804460D4645EC104B38BD0000F0BF29
:105580000000044010B5054B0360037C04461BB9C2
:10559000406808B100F04CFF204610BDFC920B00A3
:1055A00010B50446FFF7EEFF20461421FFF72FFA4F
:1055B000204610BD10B5034B03600446FFF7E2FF21
:1055C000204610BD0C930B0010B50446FFF7F2FF08
:1055D00020463021FFF71BFA204610BD0023C36090
:1055E0004361038380F82A3070470000C0E901124C
:1055F00008B50022C26001220274044A02604FF022
:10560000FF32C262FFF7EAFF08BD00BF0C930B0038
:10561000D0E9022310B593423FBF42685C1CC460CE
:10562000D15424BF012380F82A3010BD38B5446915
:10563000651C082D09D800EB4403012445619C76C4
:10564000DA76FFF7E5FF204638BD0020FCE710B50D
:105650004369044643B100EB4303597E09B1FFF7A8
:10566000D7FF6369013B6361D4E902106368884234
:105670004FF000022ABF5B181A5403F8012C10BD2A
:1056800070B50446D0E9025066682D1A13463044BE
:105690000A46294600F0E4FE85422DBFE368A36870
:1056A000E360C01836BF0123E06084F82A3070BD83
:1056B0000EB403B503AA52F8041B0192FFF7E0FFF2
:1056C00002B05DF804EB03B0704700002DE9F84329
:1056D00004460E46174612B12221FFF799FFDFF864
:1056E0000C810025715D06EB0509002974D0D4E911
:1056F00002329A4270D20B0634D501F0F003E02B4F
:1057000005F101091DD116F8092002F0C003802B14
:1057100039D105F1020916F8093003F0C0008028DC
:1057200031D103F03F03920143EA013302F47C627A
:105730001A4392B241462046FFF7BAFF4D46013563
:10574000D0E701F0E003C02B1DD116F8093003F0BB
:10575000C002802A17D1890101F4F86203F03F03E7
:105760001A43E7E70D290AD807290CD9A1F1080344
:10577000052B08D8DFE803F009231707111D22299C
:1057800023D05C2921D0204604E05C212046FFF78D
:105790003FFF6221FFF73CFFD1E75C212046FFF786
:1057A00037FF6621F6E75C212046FFF731FF6E21C7
:1057B000F0E75C212046FFF72BFF7221EAE75C212E
:1057C0002046FFF725FF7421E4E75C212046FFF720
:1057D0001FFF99F80010DDE72FB120462221BDE818
:1057E000F843FFF715BFBDE8F88300BFE4920B0054
:1057F000426900EB42031A7E12B100221A7670470A
:105800002C21FFF705BF000037B5044610EE100A43
:10581000FEF76AFDE56A002D02460B4608DBCDE97E
:10582000002307492A462046FFF742FF03B030BD58
:105830000449204603B0BDE83040FFF739BF00BF40
:10584000EB920B00F0920B004FF0FF3303600371FB
:10585000024B836000238381704700BFA086010054
:10586000F0B50C4685B0054601A800F05BF9A368C9
:105870000293237B8DF80C30A378E1788DF8053006
:1058800000262388ADF8063028468DF804602F1DC9
:1058900000F063F8E3782B7401A9384600F028F98A
:1058A000013019D03146384600F004F99DF80C104B
:1058B000384600F05BF90299384600F062F9607BE7
:1058C00000F0F0F82179A81C00F03CF8287C00F0EA
:1058D000D7F8304605B0F0BDFF20FBE7F0B506462F
:1058E00085B00A250024071D307C00F0B9F802229B
:1058F00001A9384600F052F9307C00F0C1F89DF85B
:10590000043003F01F029DF80530013D43EA0223F5
:105910001C4415F0FF05A4B2E6D10A23B4FBF3F44E
:1059200007EE904A9FED057AF8EEE77A87EE870A50
:10593000DFED037A20EE270A05B0F0BD00F07F45C9
:105940000000044110B50C4621B9007803F0C4F8FA
:10595000204610BD4FF0FF30FBE7012908B504D108
:10596000008803F0B9F8002008BD4FF0FF30FBE7D6
:1059700010B5064B00241C70054B1C6003F004F9A5
:105980002146BDE8104001F095B900BF44E6032070
:1059900048E6032008B503F0F7F8054B196801F055
:1059A00089F903F0F1F801F089F9002008BD00BF82
:1059B00048E6032010B5054B0C46196003F0E4F8E7
:1059C000214601F077F9002010BD00BF48E6032012
:1059D000014B00201970704744E6032013B50C46B4
:1059E000019203F0D1F80B4B197801F096F903F00E
:1059F000CBF80368019ADB682146984703F0C4F8A6
:105A0000012101F08EF9013818BF4FF0FF3002B0CC
:105A100010BD00BF44E603202DE9F0410E461546B7
:105A200003F0B2F80D49012309782A4601F063F921
:105A30000027C4B25FFA87F8454507F1010707D987
:105A400003F0A2F803685B69984706F80800F1E7DD
:105A5000B4FA84F040094042BDE8F08144E60320F6
:105A600007B50121019003F037F8044B019819782C
:105A700003B05DF804EB03F040B800BF58E6032024
:105A800007B50121019003F027F8054B019819781B
:105A9000B1FA81F1490903B05DF804EB03F02DB8C8
:105AA00058E6032001289CBF014B1870704700BFC7
:105AB00058E603200020704713B50B4C2178BFF344
:105AC0005B8F11F001010BD120460191FEF7AEFF73
:105AD000019928B1054802F05BFC2046FEF7ABFFB8
:105AE000024802B010BD00BF4CE6032050E6032080
:105AF00008B501210E2002F0EFFF0121052002F080
:105B0000EBFF01210E2002F0F8FF0121052002F039
:105B1000F4FFFFF7D1FFFF22002102F043FC002039
:105B200008BD000010B501210E2002F0D5FF0121B3
:105B3000052002F0D1FF01210E2002F0DEFF01213D
:105B4000052002F0DAFF084B00241C70FFF7B4FFB9
:105B5000214602F03EFCFFF7AFFFBDE810404FF4D6
:105B60007A72642102F066BC58E6032007B5019101
:105B7000FFF7A2FF019902F02CFC002003B05DF8B2
:105B800004FB10B50C46FFF797FF0122214602F0F7
:105B900051FC201A18BF4FF0FF3010BD2DE9F04125
:105BA000D31D23F00703002582B01446AC4202AF98
:105BB000ADEB030D02F1FF320E46D8BF2A4629464F
:105BC0000DF109008DF8085003F0A6F8FFF774FFF7
:105BD00002F013FC431C0DF108080CD0FFF76CFF1A
:105BE000234632464146009502F056FCFFF764FF1B
:105BF00002F006FC2846BD46BDE8F0812DE9F04FD5
:105C000087B002AB01464FF4004210209C4630247E
:105C10003125114200F1FF3014BF1D701C7010F0CF
:105C2000FF004FEA520203F10103F2D10646074694
:105C300086468346034680468146024605461CF852
:105C40000510312908BF82F00102D4B20135C246E5
:105C5000102D84EA030884EA0B03DBB24A46F346BC
:105C6000314622D18DF804308DF807908DF806A0CA
:105C70008DF805808DF803E08DF802708DF80160D5
:105C80008DF8004069460023012211F8014B0133D1
:105C9000E40748BF1043DBB248BFC0B25200082B34
:105CA00092B2F2D107B0BDE8F08FBE4626460F464D
:105CB000D146C4E7642000F00BBC4FF6FF730380AD
:105CC0000023436040230372704730B50D4685B012
:105CD000044601A8FFF74CFE6B6802932B788DF801
:105CE00006306B788DF805302B7A237301A9204696
:105CF000FFF750FE01300AD0217B2046FFF768FEF7
:105D000069682046FFF756FE002005B030BDFF2031
:105D1000FBE773B51E46044615468DF807100122B1
:105D20000DF10701FFF75AFEFFF7C4FF324629467F
:105D30002046FFF771FEFFF7BDFF02B070BD000007
:105D400037B5032301AAE321FFF7E3FFBDF80440C1
:105D50009DF8065064BAA4B22046FFF74FFF854273
:105D60001DD124F0030007EE900AFBEEC87A17EE6F
:105D7000900AFEF7B9FA0DA3D3E90023FEF70CFB56
:105D8000FEF7A4FDFEF7B0FA0AA3D3E90023FEF75D
:105D90004BF9FEF79BFD00EE100A03B030BD9FEDFE
:105DA000020AFAE7AFF3008000008047D7A3703DF6
:105DB0000AF76540CDCCCCCCCC6C474037B503233B
:105DC00001AAE521FFF7A5FFBDF804409DF80650A4
:105DD00064BAA4B22046FFF711FF854203BF24F046
:105DE000030307EE903A9FED067A9FED060A02BF85
:105DF000FBEEC87AB9EE080AA7EE870A03B030BDF9
:105E00000000FA420000804707B5FE2301220DF191
:105E100007018DF80730FFF7E1FD03B05DF804FBE3
:105E200007B50190FFF746FFFFF744FFFFF742FF7A
:105E3000FFF740FFFFF73EFF0198FFF7E5FFFFF791
:105E400039FFFFF737FFFFF735FFFFF733FFFFF7A6
:105E500031FF03B05DF804FB08B5024B1B685B6CB7
:105E6000019308BD4802030008B5024B1B689B6CF8
:105E7000019308BD4802030008B5024B1B68DB6CA8
:105E8000019308BD4802030008B5024B1B685B6D17
:105E9000019308BD4802030008B5024B1B685B680C
:105EA000019308BD1802030008B5024B1B68DB68AC
:105EB000019308BD1802030008B5024B1B681B695B
:105EC000019308BD1802030008B5024B1B685B690B
:105ED000019308BD1802030008B5024B1B689B6DB7
:105EE000019308BD1802030008B5024B1B685B6EE6
:105EF000019308BD1802030008B5024B1B689B689C
:105F0000019308BD2C02030008B5024B1B68DB6837
:105F1000019308BD2C02030008B5024B1B681B69E6
:105F2000019308BD2C02030008B5024B1B685B6996
:105F3000019308BD2C02030008B5024B1B681B68C7
:105F4000019308BD2802030008B5024B1B68DB68FB
:105F5000019308BD2802030008B5024B1B689B692A
:105F6000019308BD2802030008B5024B1B68DB69DA
:105F7000019308BD2802030008B5024B1B681B6A89
:105F8000019308BD2802030008B5024B1B685B6A39
:105F9000019308BD2802030008B5024B1B689B6AE9
:105FA000019308BD2802030008B5024B1B68DB6A99
:105FB000019308BD2802030008B5024B1B681B6B48
:105FC000019308BD2802030008B5024B1B685B6BF8
:105FD000019308BD2802030008B5024B1B681B6C27
:105FE000019308BD2802030008B5024B1B681B6D16
:105FF000019308BD2802030008B5024B1B685B69CA
:10600000019308BD6402030008B5024B1B689B683E
:10601000019308BD6802030008B5024B1B68DB68EA
:10602000019308BD6802030008B5024B1B68DB68DA
:10603000019308BD3002030008B5024B1B681B69C1
:10604000019308BD3002030008B5024B1B68DB69F1
:10605000019308BD3002030008B5024B1B681B6AA0
:10606000019308BD3002030008B5024B1B685B6A50
:10607000019308BD3002030008B5024B1B689B6A00
:10608000019308BD3002030008B5024B1B68DB6AB0
:10609000019308BD3002030008B5024B1B689B6BDF
:1060A000019308BD3002030008B5024B1B681B6C4E
:1060B000019308BD3002030008B5024B1B685B6CFE
:1060C000019308BD3002030008B5024B1B689B68B2
:1060D000019308BD3C02030008B5024B1B68DB6856
:1060E000019308BD3C02030008B5024B1B681B6905
:1060F000019308BD3C02030008B5024B1B685B69B5
:10610000019308BD3C02030008B5024B1B689B6964
:10611000019308BD3C02030008B5024B1B68DB6914
:10612000019308BD3C02030008B5024B1B681B6AC3
:10613000019308BD3C02030008B5024B1B689B6A33
:10614000019308BD3C02030008B5024B1B68DB6AE3
:10615000019308BD3C02030008B5024B1B681B6C91
:10616000019308BD3C02030008B5024B1B681B6885
:10617000019308BD4C02030008B5024B1B685B6825
:10618000019308BD4C02030008B5024B1B689B68D5
:10619000019308BD4C02030008B5024B1B681B6944
:1061A000019308BD4C02030008B5024B1B685B69F4
:1061B000019308BD4C02030008B5024B1B689B69A4
:1061C000019308BD4C02030008B5024B1B68DB6954
:1061D000019308BD4C02030008B5024B1B681B6A03
:1061E000019308BD4C02030008B5024B1B685B6BB2
:1061F000019308BD6002030008B5024B1B685B6D8C
:10620000019308BD6002030008B5024B1B68DB6EFA
:10621000019308BD6002030008B5024B1B681B6FA9
:10622000019308BD6002030008B5024B1B681B68A0
:10623000019308BD2002030008B5024B1B685B6890
:10624000019308BD2002030008B5024B1B685B697F
:10625000019308BD2002030008B5024B1B68DB6AEE
:10626000019308BD2002030008B5024B1B68DB6CDC
:10627000019308BD2002030008B5024B1B685B6D4B
:10628000019308BD2002030008B5024B1B689B6DFB
:10629000019308BD2002030008B5034B1B68D3F827
:1062A0008830019308BD00002002030008B5034BAD
:1062B0001B68D3F89430019308BD0000200203004E
:1062C00008B5024B1B685B68019308BD44020300DC
:1062D00008B5024B1B689B68019308BD440203008C
:1062E00008B5024B1B68DB68019308BD440203003C
:1062F00008B5024B1B685B69019308BD44020300AB
:1063000008B5024B1B681B6A019308BD44020300D9
:1063100008B5024B1B681B6B019308BD44020300C8
:1063200008B5024B1B689B6B019308BD4402030038
:1063300008B5024B1B68DB6B019308BD44020300E8
:1063400008B5024B1B685B68019308BD400203005F
:1063500008B5024B1B689B68019308BD400203000F
:1063600008B5024B1B68DB68019308BD40020300BF
:1063700008B5024B1B681B69019308BD400203006E
:1063800008B5024B1B685B69019308BD400203001E
:1063900008B5024B1B689B69019308BD40020300CE
:1063A00008B5024B1B68DB69019308BD400203007E
:1063B00008B5024B1B681B6A019308BD400203002D
:1063C00008B5024B1B681B6B019308BD400203001C
:1063D00008B5024B1B685B6B019308BD40020300CC
:1063E00008B5024B1B681B6C019308BD40020300FB
:1063F00008B5024B1B685B6C019308BD40020300AB
:1064000008B5024B1B685B6D019308BD4002030099
:1064100008B5024B1B689B6D019308BD4002030049
:1064200008B5024B1B681B68019308BD1C020300E2
:1064300008B5024B1B685B68019308BD1C02030092
:1064400008B5024B1B689B68019308BD1C02030042
:1064500008B5024B1B681B69019308BD1C020300B1
:1064600008B5024B1B685B6A019308BD1C02030060
:1064700008B5024B1B68DB6A019308BD1C020300D0
:1064800008B5024B1B681B6B019308BD1C0203007F
:1064900008B5024B1B68DB6B019308BD1C020300AF
:1064A00008B5024B1B681B6C019308BD1C0203005E
:1064B00008B5024B1B685B6C019308BD1C0203000E
:1064C00008B5024B1B68DB6C019308BD1C0203007E
:1064D0000021FFF7B9BE10B5836804460BB902F07E
:1064E000BBFBC3689847A3681BB103222146204623
:1064F000984720461021BDE81040FEF788BA10B535
:106500008368044613B1032201469847204610BD14
:1065100010B54368013B0446436063B903689B6858
:106520009847A368013BA3602BB923682046DB682A
:10653000BDE81040184710BD70B5D0E900530446BF
:1065400005EB0316AE4204D0284601F0B8FF103523
:10655000F8E72068FFF76CFF204670BD13B50B46C7
:106560000246D0E900016C4684E8030093E803008A
:1065700082E8030094E8030083E8030002B010BD42
:10658000024800230360FFF767BC00BF5CE60320FE
:10659000002240681146FFF7EBBE0022406811461A
:1065A000FFF706BF002240681146FFF711BF4068A1
:1065B0000022FFF705BF4068002281F00101FFF7CC
:1065C000EFBE002340681A461946FFF7E1BE0023DC
:1065D00040681A461946FFF7D3BE002240681146AC
:1065E000FFF7B6BE406800220221FFF7B9BE0023C4
:1065F00040681A46FFF7A4BE084B10B5282422466F
:106600001846002102F088FB054B04804FF0FF3252
:10661000426004225A60034A1A6010BD68E60320F3
:1066200060E603201C930B0070470020704710B5F4
:1066300010210446FEF7EBF9204610BD08B5FFF720
:10664000F6FF08BD30B500224FF69C7402608480CE
:106650008D888C800C68858004600A6030BD10B520
:1066600004460068FFF7E4FE204610BD38B5C46854
:10667000F4B12378022B03D104F10C00FFF7EFFFF4
:10668000656835B12846FFF73AFF10212846FEF726
:10669000BEF9A56835B12846FFF731FF102128461D
:1066A000FEF7B5F920461421BDE83840FEF7AFB932
:1066B00038BD10B588B00446684601F04BFF694606
:1066C00004A801F093FF04A8A047044604A801F021
:1066D000F6FE684601F0F3FE204608B010BD1FB577
:1066E0000023CDE90201019210241A46694618469A
:1066F000ADF80230ADF80040FFF7E2FD04B010BD88
:106700000B6803604B68436013B15A6801325A60EA
:10671000704737B5044668460D46FFF7F1FF009B0A
:10672000019A23606260002301A801930093FEF7A1
:1067300091FA35B1281DFEF78DFA08212846FEF79B
:1067400066F9204603B030BD826810B50AB902F080
:1067500083FABDE81040C368184708B5006800F127
:106760001001FFF7F1FF08BD826810B50AB902F009
:1067700073FABDE81040C368184708B5006800F117
:106780001001FFF7F1FF08BD38B500230446036090
:1067900010200D46FEF737F928B10123C0E9013377
:1067A000024B0360C5602060204638BD60930B003B
:1067B00038B5002383608B6804460D462BB1022256
:1067C0009847EB68E360AB68A360204638BD0000E3
:1067D000F0B589B004686846FFF734FF4FF0020354
:1067E000D4E84F2F002A03D1C4E8413F0029F7D154
:1067F00025D104F10C0569462846FFF723FFBFF3B6
:106800005B8F01236370002004F10803BFF35B8FEB
:1068100053E8006F43E80002002AF9D1BFF35B8F11
:106820006EB1FFF721FD78B129463046FFF78CFFA6
:106830003046FFF764FE10213046FEF7E8F8684660
:10684000FFF70DFF09B0F0BD314602A8FFF7B0FF1A
:10685000E068B4F9105008B102F0B4FA06901020C4
:10686000ADF81C50FEF7CFF80546E8B10027876069
:106870001820FEF7C8F8044688B10146876002A8D0
:10688000FFF76CFE049BA268A360059B049206A917
:10689000E268E36004F110000592FFF7D3FE084BB5
:1068A000EB60084B2C60AB6006A8FFF7D8FE02A88F
:1068B000FFF725FE002229460348FFF7DDFCB7E776
:1068C0005B670B00DD690B00D7640B002DE9F04F0F
:1068D0008BB005469DF850A00F4690469946FFF7AD
:1068E00007FD07AE834638BB4FF62E73059005A90A
:1068F0003046ADF81830FFF7A5FE1420FEF783F8F8
:10690000044648B1022303700123C0E901BB437070
:1069100031460C30FFF796FE2846214640F8044BDE
:10692000FFF732FF3046FFF79AFE05A8FFF797FE04
:1069300028460BB0BDE8F08F0C2300241420CDE9CD
:1069400008440793FEF75FF8014618B1C0E9014417
:106950000470447004A80391FFF716FF1E4B0893C0
:106960000820FEF750F8044610B103A9FFF7C8FE4F
:1069700000965FFA8AF34A46414638460994FFF783
:10698000BFFCB8B9039B5B7803F0FF0293B94FF6E5
:106990009C7305A903A80592ADF81830FFF718FFFE
:1069A00005A8FFF75CFE05A80999FFF7B2FE06A847
:1069B000FEF750F903A905A8FFF7A2FE059B069A6A
:1069C0002B606A60002306A806930593FEF742F940
:1069D00004A8FEF73FF9ABE7596A0B00012AF8B5A6
:1069E000054603D10B6803600020F8BD022A10D0D1
:1069F000032AF9D10468002CF6D004F11000FFF747
:106A00002EFE2046FFF77BFD18212046FDF7FFFFF5
:106A1000EAE718200E68FDF7F6FF044650B131464C
:106A2000FFF7C6FE3069B6F9147008B102F0CAF972
:106A30002061A7822C60D7E738B5002383608B687C
:106A400004460D462BB102229847EB68E360AB6821
:106A5000A360204638BD0000F0B589B004460D465D
:106A600001A81146FFF755FEA4B124B21DB1284676
:106A700002F0A8F9054601A803A90395ADF8104056
:106A8000FFF7A6FE03A8FFF7EAFD02A8FEF7E2F86B
:106A900009B0F0BD019D0123D5E84F2F002A03D195
:106AA000C5E8413F0029F7D1EFD12B73BFF35B8FCE
:106AB0006B702B1DBFF35B8F53E8006F43E8004200
:106AC000002AF9D1BFF35B8F002EDED02046FFF7FE
:106AD000CBFB074660B105F10C013046FFF744FEE1
:106AE0003046FFF70CFD10213046FDF790FFCCE754
:106AF000314603A8FFF7A0FF2B7B8DF81C30102038
:106B0000FDF781FF0546D0B187601420FDF77BFFBC
:106B1000044678B18760014603A8FFF71FFD059B77
:106B2000A268A360069B0592E268E3609DF81C30B2
:106B300006922374064BEB60064B2C60AB6003A8F7
:106B4000FFF7DDFC002229460348FFF795FBC7E766
:106B50007B670B005D6B0B00D7640B00012A70B5DF
:106B6000044603D10B680360002070BD022A0CD0DC
:106B7000032AF9D10468002CF6D02046FFF7BFFCA9
:106B800014212046FDF743FFEEE714200E68FDF7C1
:106B90003AFF054620B13146FFF74EFF337C2B7498
:106BA0002560E1E7002240681146FFF701BC0022A2
:106BB00040681146FFF70CBC40680022FFF700BC9C
:106BC0004068002281F00101FFF7EABB0023406822
:106BD0001A461946FFF7DCBB002340681A461946DF
:106BE000FFF7CEBB002240681146FFF7C1BB002271
:106BF00040681146FFF7ACBB406800220221FFF756
:106C0000AFBB002340681A46FFF79ABB024B032232
:106C10005A60024A1A60704790E603207C930B008A
:106C20007047F8B5064615460C468F18BC4206D08C
:106C3000336814F8011B9B6830469847F6E72846EE
:106C4000F8BD007C0022FFF797B9007C0021FFF718
:106C50009BB9007C0021FFF79FB9007C0021FFF762
:106C6000A3B9007C0021FFF7A7B910B51421044691
:106C7000FDF7CDFE204610BD38B5044615464FF44D
:106C80007A730022C4E90123094B2174084623606A
:106C90002946FFF7A1F9BF3008D16B69DB0705D59D
:106CA0006868FFF7C5FBE868FFF7C2FB204638BD00
:106CB000C0930B00007C0022FFF73EB90023007C4C
:106CC0001A461946FFF740B97FB500221423CDE9D3
:106CD0000122ADF804300B788DF808304B6803932F
:106CE000CB680493007C0B7A059301A9FFF77CF92C
:106CF00007B05DF804FB1FB5003B8DF800104FF0A6
:106D00006401039118BF0123694601928DF8083090
:106D1000FFF7DAFF05B05DF804FB007C0022FFF707
:106D20001BB9007C0022FFF71FB9704710B518216E
:106D30000446FDF76CFE204610BDF0B5037D062B22
:106D40008DB00E4600F104074FF0000412D000F1A0
:106D5000080515F8011D0A22304601F0EEFAAF428F
:106D6000044419D0002CF4D02E21304601F0E2FA70
:106D70000444EEE72F236A4639460A208DF8004086
:106D8000FFF73AF96846FDF7FBFD33680246DB681A
:106D9000694630469847044620460DB0F0BD0000D5
:106DA00010B5054B0446112240F8043B002101F0C8
:106DB000B3FF204610BD00BFE8930B000346074A0F
:106DC00010B543F8042B01F1100251F8044B43F8BD
:106DD000044B9142F9D10A781A7010BDE8930B0068
:106DE00010B59DF8084044EA032343EA024242EA10
:106DF000016104234160037510BD000007B5064B17
:106E00000360CB7800938B784A780978FFF7E8FF26
:106E100003B05DF804FB00BFE8930B0000F1100322
:106E2000012213F8101C0129184608D153F8041C3C
:106E300002EB4102013A03F11003F2D1704702293B
:106E400004BF53F8041C5218F4E70EB4F0B588B030
:106E500000AF07F13405102155F8042B7A60044681
:106E60002B467818FD60FFF7FBFA0F287A681AD9CD
:106E700000F1080323F007036E46ADEB030D411C40
:106E80002B466846FD60FFF7EBFA021E04DD23681F
:106E900069469B6820469847B5462037BD46BDE801
:106EA000F04003B070470028F7D0236802469B6883
:106EB00007F1100120469847EFE738B50B680360EB
:106EC0004D6843689D42044608D015B16B68013394
:106ED0006B60606808B1FFF71BFB656038BD07B5E4
:106EE00003688DF807109B6801220DF10701984790
:106EF00003B05DF804FB0B461146002210B5C0E953
:106F00000022044683600BB9204610BDFFF7D5FF71
:106F1000FAE78368EBB11A78032A1AD8DFE802F09F
:106F20000417021B0520704702685B685268D05C3A
:106F30002D2812D0A0F13003092B0ED974280ED0C1
:106F400066280CD0A0F16E035842584170470620C5
:106F500070470020704704207047032070470220CC
:106F6000704710B50446FFF7D4FF02280ED0C31EA9
:106F7000DBB2012B14D82268A36850685B68BDE8B7
:106F800010400A220021184401F0E4BF2268A368DF
:106F900052685B68D05CA0F174035842584110BD40
:106FA0000020FCE738B50023C0E9003304460E4852
:106FB000C4E90203A9B10B78032B06D08BB913687F
:106FC00058684B68C35C6E2B07D013684D685868CF
:106FD0008B6828445B1BA060E36011462046FFF7E6
:106FE0006CFF204638BD00BF57940B0038B5002514
:106FF0000B46C0E90055C0E90255C0E904550446F6
:1070000011464BB11A78012A06D103F11002DB6850
:1070100082604361FFF751FF204638BD10B54369D8
:10702000044663B18068E060013B1030A0602061DD
:10703000636113B1FFF7F2FEA060012000E0184683
:1070400010BD10B57D210446FFF749FF01232371D0
:10705000204610BD08B50379012B02D0022B04D0C5
:1070600008BD2C21FFF73BFFFAE73A21FAE710B5FC
:107070000446FFF7EFFF20467B21FFF730FF002398
:107080002371204610BD000013B504460191FFF79F
:10709000E1FF2368019ADB680349204698470123F2
:1070A0002046237102B010BD92900B0013B5044628
:1070B0000191FFF7CFFF2368019ADB68034920465F
:1070C000984701232046237102B010BDF4930B00B2
:1070D0002DE9F0470D46222190460446FFF7FFFEBA
:1070E000DFF8A490A8442F464745BA463DD017F88C
:1070F000016B222E06D05C2E04D0304601F0DCFD60
:107100000028F1D12368AAEB05029B682946204696
:1071100098475C212046FFF7E2FE0D2E0AD8072E85
:107120001CD9A6F10803052B18D8DFE803F00D0FD2
:1071300011171315222E01D05C2E0FD13146204697
:10714000FFF7CDFE3D46CFE76221F8E77421F6E771
:107150006E21F4E76621F2E77221F0E723683246F8
:10716000DB68494620469847ECE7BD4205D02368D6
:107170007A1B9B6829462046984722212046FFF724
:10718000AEFEBDE8F08700BFF7930B0013B50446D1
:10719000CDE90021FFF75EFF2046DDE90021FFF782
:1071A00097FF02232046237102B010BD13B5044699
:1071B000CDE90021FFF74EFF2046DDE90021FFF772
:1071C00087FF01232046237102B010BD8068036849
:1071D000DB6818477047084611B10B685B681847B1
:1071E0007047704770477047704738B504460D4682
:1071F00000682E2101F0D3FD2368C31A2B6023B150
:10720000037803B1013023682060184638BD10B5FB
:107210000C210446FDF7FBFB204610BD10B50421F0
:107220000446FDF7F4FB204610BD10B504210446CA
:10723000FDF7EDFB204610BDFEF71EBE08B5FDF7BD
:1072400095FBB0FA80F0400908BD704710B50C46B8
:1072500001F02AFB844210D001F0D6FC844205D113
:1072600001F0D2FCBDE8104001F0B9BA2CB123689E
:1072700020465B68BDE81040184710BD0B680360EE
:107280004B68436013B15A6801325A60704713B5B6
:10729000044608460191FDF773FB0199024620461A
:1072A00002B0BDE81040FFF781BF13B504460846A1
:1072B0000191FDF765FB23680199DB6802462046D2
:1072C00002B0BDE81040184707B503688DF80710F5
:1072D000DB6801220DF10701984703B05DF804FB5C
:1072E0000A6802604A6842600022C0E9022210B5C2
:1072F00002618C688460CC68C4600C698A60CA6072
:1073000004610A6110BD00002DE9F74FD0E9008447
:107310004FF0140A00930AFB04F4184BA41017460C
:107320005C434546002C21DD66100AFB06F005EBA8
:1073300000093A46B9F804B0285801915F4528BFC2
:107340005A4601F05CFD002801994FF001030BD172
:107350005F4503D1009A13703446E3E7FCD9A61BBE
:1073600009F11405013EF7E7F9DBF5E7A5EB0805A0
:107370000248AD10684303B0BDE8F08FCDCCCCCC53
:107380007FB50369057E019103B3F9B1002600F1D1
:107390000C04039603A901A8FFF727FF0146A8B133
:1073A0000DF10B03039A8DF80B602046FFF7ACFF3D
:1073B0009DF80B3053B12368142404FB00340834C7
:1073C00034F9023C002BA8BFDDB2E3E7284604B045
:1073D00070BD0EB4F0B58CB000AF07F144050446A3
:1073E00055F8042B7A602B46202107F11000FD6030
:1073F000FFF736F81F287A681AD900F1080323F03E
:1074000007036E46ADEB030D411C2B466846FD603D
:10741000FFF726F8021E04DD23686946DB68204674
:107420009847B5463037BD46BDE8F04003B07047D9
:107430000028F7D023680246DB6807F110012046D8
:107440009847EFE710B5094C2378BFF35B8FDB0754
:1074500009D42046FDF7EAFA28B12046FDF7EBFAF9
:10746000034801F023FC034810BD00BF9CE6032045
:10747000E3710B0024E5032010B5094C2378BFF31A
:107480005B8FDB0709D42046FDF7D0FA28B12046F0
:10749000FDF7D1FA034801F009FC034810BD00BF15
:1074A000A0E603204B720B0028E5032038B5002529
:1074B0000446C0E90055C0E904558560856140F87F
:1074C000245FFEF7C9FCFFF7BDFFE061FFF7D4FFC3
:1074D00025732062204638BD10B50A4C2378BFF3CF
:1074E0005B8FDB070CD42046FDF7A0FA40B10648BD
:1074F000FFF7DCFF2046FDF79EFA044801F0D6FBBB
:10750000014810BD98E60320A8E603202D7A0B0061
:10751000024A034903480023FEF77EBE11780B00A0
:107520009D770B001D770B0000231A46194618465D
:10753000FEF772BE37B58D6804466846FFF79EFEBB
:107540006A4629462046FFF751FD01A8FDF782FB58
:10755000204603B030BD37B5CD6804466846FFF716
:107560008DFE6A4629462046FFF71CFD01A8FDF75F
:1075700071FB204603B030BD37B50D69044668463F
:10758000FFF77CFE6A4629462046FFF7B4FC01A8B7
:10759000FDF760FB204603B030BD000070B58AB037
:1075A0000D46014604A8FFF7C5FF144E04A8FFF7D7
:1075B00035FDE8B104A96846FFF7CDFF02983146D2
:1075C000FFF73CFE044610B12C1E18BF012401A891
:1075D000FDF740FB002CE9D004A96846FFF7CCFF7B
:1075E0006846FFF7BEFC286001A8FDF733FBDDE726
:1075F00005A8FDF72FFB0AB070BD00BFFD930B007F
:1076000037B50C46204613491546FDF7AFF950B97A
:1076100001F04AF94FF4165101F036F903B0BDE814
:10762000304001F041B90C492046FDF79FF978B987
:107630004FF4165301A928460193FFF7AFFF01F05D
:10764000E3FA019901F0C8F801F0DEFA03B030BDA9
:107650000020FBE702940B0009940B0070B5D0E901
:1076600000531426044606FB0356AE4205D005F12E
:107670000800FFF7F3FF1435F7E72068FEF7D8FEA0
:10768000204670BD10B504460C30FFF7E7FF2046DA
:10769000FEF752FF204610BD10B5044B044640F8DB
:1076A000043BFFF7EFFF204610BD00BFAC920B007C
:1076B00010B50446FFF7F0FF20462421FDF7A7F997
:1076C000204610BD10B5034B03600446FFF7E4FFEE
:1076D000204610BDA4940B0010B50446FFF7F2FF3E
:1076E00020462421FDF793F9204610BD0022C0E971
:1076F000002210B582600C6804604C6844608C689D
:107700000A604A6084608A6010BD10B50368044650
:107710001868FEF7B9FB204610BD00002DE9F04FB8
:1077200087B0804603931C4B5B68C3F3080389460C
:1077300016466BB9FFF7D0FE044600F12403406AF9
:107740000593FFF779FD237B2BB105A8FFF7DDFF3C
:1077500007B0BDE8F08F01232373D4E900535FFA2B
:1077600089F905EB830AAA4512D055F8047B314606
:10777000381DFFF705FE8145F5D33B68039A00925B
:10778000D3F808B04A46334641463846D847EAE778
:1077900000232373D9E700BF00ED00E02DE9F74F88
:1077A0009B461A4B5B68C3F308038046894616461E
:1077B0006BB9FFF791FE044600F12403406A019380
:1077C000FFF73AFD237B2BB101A8FFF79EFF03B023
:1077D000BDE8F08F01232373D4E90053F6B205EB23
:1077E000830A55450ED055F8047B5946381DFFF7DE
:1077F000C7FD8642F5D33B684A46DB6841463846BA
:107800009847EEE700232373DEE700BF00ED00E0BA
:107810002DE9F341164B5B68C3F3080305460F4699
:107820001BBBFFF759FE00F124030446406A019395
:10783000FFF702FDD4E90063462406EB8308B04558
:1078400009D101A8FFF761FFA542B4BF00200120C4
:1078500002B0BDE8F08156F8040B39460430FFF75A
:107860008FFD8442A8BF0446E9E70020F0E700BF8F
:1078700000ED00E0F8B5D0E901539D4204460E4604
:107880000DDB6F1C002F006804DDB900FEF7D8FD8A
:1078900018B9F8BDFEF7CCFD00202060A76027686E
:1078A000626807EB85019200A2EB8502081D01F0DA
:1078B00019FA47F825606368013363600120E8E73F
:1078C00037B500F124030446406A01930D46FFF7E3
:1078D000B3FCD4E9003203EB8202934219460BD089
:1078E0000968A94203F10403F7D101A8FFF70DFFCE
:1078F0000025284603B030BD29462046FFF7BAFFD1
:1079000005460028F1D06368012B01D1FFF700FE86
:1079100001A8FFF7FAFEECE770B50446D0E90002D3
:107920000B4600EB820282420FD001461D6851F8DF
:10793000046BAE4207D1521A01F0D4F96368013BDF
:107940006360012070BD0846EDE70020FAE71FB52F
:1079500000F124030446406A01910393FFF76CFC95
:1079600001A92046FFF7D8FF18B163680BB9FFF7EC
:10797000DBFD03A8FFF7C9FE04B010BD70B5D0E968
:1079800004561823044603FB0656AE4215D005F1F3
:1079900010012046FFF7C0FF63680BB9FFF7C4FD75
:1079A000E06929690368DB689847696919B1206A49
:1079B0000368DB6898471835E7E7D4E904531826CD
:1079C00006FB0356AE4204D0284600F078FD183579
:1079D000F8E70023636170BD73B50446FFF7A4FDAB
:1079E00004F12403606A0193FFF726FC2046FFF7A9
:1079F000C5FF01A8FFF789FE606A08B1FEF734FAF7
:107A0000D4E90453182606FB0356AE4204D0284698
:107A100000F055FD1835F8E72069FEF709FD2068EC
:107A2000FEF706FD204602B070BD00000148FFF7DA
:107A3000D3BF00BFA8E603208842F8B504460D4630
:107A4000164615D9904214D2A2F11406751AA1F166
:107A500014072C44B7421AD01CB131462046FFF718
:107A60003FFC06F10800FFF7F9FD143E143CF1E776
:107A70000DD0B5420BD01CB129462046FFF730FC93
:107A800005F10800FFF7EAFD14351434F1E7F8BDFD
:107A90008842F8B504460D46164614D9904213D2D2
:107AA000A2F11006751AA1F110072C44B74218D0A4
:107AB0001CB13146204600F07FFD304600F0FFFC4F
:107AC000103E103CF2E70CD0B5420AD01CB129465A
:107AD000204600F071FD284600F0F1FC103510340E
:107AE000F2E7F8BD70B50E1E054611DD3001FEF758
:107AF00097FC044658B1D5E9001201EB0212FFF7DA
:107B0000C7FF2868FEF794FC2C60AE60012070BDB2
:107B10000024F6E72DE9F04F904695B0002303913D
:107B2000D8F804100A9346229942C0E90033C0E90C
:107B30000233C0E90433CDE908330446027623DC7E
:107B4000D8E90057142303FB0757AF423BD029461F
:107B50000BA800F031FD0BA90FA8099E00F02CFD29
:107B6000DDE9091399421BDA089B099A03EB061613
:107B700003EB0212314606F11000FFF789FFEEB960
:107B8000099B0133099311E008A8FFF7ABFF002818
:107B9000D6D108A8FEF7D0FC204615B0BDE8F08F7E
:107BA000013108A8FFF79EFF0028DDD10FA800F0E3
:107BB00086FC0BA800F083FC1435C6E70FA93046FD
:107BC00000F0FAFCDCE70026CDE90B660D964FF0DD
:107BD0001409DDE908239E427CDA3301D358069369
:107BE0000BB90136F5E70023079309FB06F302936F
:107BF0000BAD07A906A8FFF7F8FA82460028F0D0D7
:107C00004FF000038DF817300146079A0DF1170366
:107C10002846FFF779FB9DF817700190002F4AD195
:107C2000BDF81C30ADF84030CDE911774FF6FF7349
:107C3000CDF83CA0ADF842301397D5E9013293421C
:107C400017DB03F1010ABAF1000F30DD09FB0AF07E
:107C5000FEF7E6FB834660B3D5E9001209FB02128A
:107C6000FFF7EAFE2868FEF7E3FBC5F800B0C5F8A9
:107C700008A02B68019A09FB023A6A68514609FB81
:107C800002320AF11400FFF7D7FEBAF1000F03D059
:107C90000FA95046FFF724FB6B6801336B6011A8F6
:107CA000FFF7DCFC3FB10BA8FFF7D8FC71E7BB4640
:107CB000D8E70127F3E7019B2D6809FB0355069BD5
:107CC0001B782BB9D8F80030029A13441B7CEB8048
:107CD00008358EE72168226062686360A3680992B4
:107CE0000A9A0A93E368A2600B9A0B932369E260F5
:107CF0000C9A0C93636922610D9A0D93039B089172
:107D000062612376CFE70000F0B5044687B00D46E8
:107D10002646194668461746FDF7F7FA0B4B46F814
:107D2000043B694603A8FDF7F0FA03AA394630463A
:107D3000FFF7F0FE03A8FCF7A3FF6846FCF7A0FFDF
:107D4000034B23602046256207B0F0BDAC920B00C8
:107D50008C940B00F0B50F4685B01D490A9C38463F
:107D600016461D46FCF702FEC0B9A4B1294601A87B
:107D7000FFF7BCFC1749242000F06AFF054630B12C
:107D800001AB32462146FFF7BFFF134B2B6001A822
:107D9000FCF776FF2C46204605B0F0BD0F4938466B
:107DA000FCF7E4FD90B9002CF5D0294601A8FFF7B7
:107DB0009DFC0849242000F04BFF05460028E6D032
:107DC00001AB32462146FFF79FFFE0E70024E2E7E0
:107DD00011940B00AC950B00A4940B0015940B00B0
:107DE000014B024A1A607047A4E6032026940B0058
:107DF0002DE9F047089DD0F8209004460E4617461E
:107E0000984600F051FD81454CD02B79190704D5D7
:107E10006A6954492046FFF7DCFAB8F1000F0DD02B
:107E20005B212046FFF750FA41462046FFF73DFA16
:107E300023684D49DB680222204698472B79DA07F0
:107E400023D5D5F808802F21404600F0ECFF08B17B
:107E500000F1010841462046FFF727FA2B799B07DE
:107E600008D53A212046FFF72FFAEA683F49204615
:107E7000FFF7AFFA2A79236812F0040FDB6814BF0A
:107E80003B493C490222204698472B7958071DD58B
:107E900029690B461A4613F8010B60B1202808D156
:107EA0001946F7E7344800F082F90028ADD0BDE864
:107EB000F0872828EED12368521ADB6820469847BD
:107EC00023682E49DB680422204698470021384663
:107ED000FEF79AF901462046FFF7E7F9236825499E
:107EE000DB680222204698471EB131462046FFF744
:107EF000DCF92B7913F0300F2CD023682049DB6894
:107F00000222204698472B79D9060AD523681D49B5
:107F1000DB68072220469847AA691B492046FFF7DD
:107F200058FA2B799A0611D5DB0605D52368104936
:107F3000DB6802222046984723681449DB68204604
:107F40000A229847E9692046FFF7AFF95D212046EC
:107F5000FFF7BAF923680E49DB6820460222BDE824
:107F6000F04718472A940B0031940B0092900B00B5
:107F700034940B0039940B00D0E6032037940B00A7
:107F80003C940B003F940B0047940B004A940B0069
:107F900055940B002DE9F0410446076A0D4616463C
:107FA00000F082FC874207D0206A036832462946E7
:107FB000DB68BDE8F0411847034800F0F8F80028F6
:107FC000F2D0BDE8F08100BFD0E603202DE9F043F8
:107FD00085B0D0F820900C9C05460F4690461E4672
:107FE00000F062FC814505D1494800F0E0F8002826
:107FF00040F08A802B6A474A01924FF0000901A89D
:1080000003938DF80890FFF732F849464046FEF793
:10801000FBF841498046012201A8FFF7B7F8414625
:10802000FFF735F93FB13D49012201A8FFF7AEF84E
:108030003946FFF72CF93EB13949012201A8FFF773
:10804000A5F83146FFF723F92379DF070ED5A66897
:108050002F21304600F0E7FE00B1461C31490122D5
:1080600001A8FFF793F83146FFF711F923799E072E
:1080700007D52D49022201A8FFF788F8E168FFF72C
:1080800003F82379580714D5266933461F4613F899
:10809000012B2AB1202A01D11E46F7E7282AF5D163
:1080A0002249022201A8FFF771F8BA1B3146FFF7F7
:1080B0007DF82379190707D51D49012201A8FFF78B
:1080C00065F86169FEF7F2FF2379DA0608D5042224
:1080D00018490DEB0200FFF759F8A169FEF7D4FF2C
:1080E00023799B0607D51449062201A8FFF74EF80D
:1080F000E169FFF7CCF801A8FEF7A3FF286A0F4952
:1081000003680222DB68984705B0BDE8F08300BF32
:10811000D0E6032074940B0007940B0058940B00D6
:1081200074960B00F1920B005A940B005D940B00B7
:10813000A2920B0060940B0065940B0055940B0009
:10814000002340681A46FEF7FBB84068002202216F
:10815000FEF706B9002240681146FEF7F9B8002282
:1081600040681146FEF704B9002340681A461946D4
:10817000FEF706B9002340681A461946FEF708B90B
:1081800040680021FEF72CB940680021FEF730B9A5
:108190004068002281F00101FEF702B94068002228
:1081A000FEF70EB9002240681146FEF711B9002211
:1081B00040681146FEF7FCB840680021FEF728B978
:1081C0002DE9F04395B014460D460746FEF7E8FD4D
:1081D00000211C220DA8009100F09EFD40230C936D
:1081E00020466B460CAA0021FDF716FF0446002826
:1081F0004BD1024601216868FEF7BAF80221804699
:1082000022466868FEF7B4F8009E81462146002E9B
:108210003BD0002939D17368022B03D00A2B11D02F
:10822000F669F4E7B8F1000FFAD0716906A80431D5
:1082300007ADFEF7E3FD0FCD3C1D0FC42B68237087
:108240004146EDE7B9F1000FEAD07469102201A8A8
:1082500000F062FD06238DF8143001AD04F108032F
:108260001834186859682A4603C20833A3421546D1
:10827000F7D101A906A807ADFEF7A0FD0FCD3C1D63
:108280000FC42B6823704946CAE70098FDF7BCFE6F
:10829000384615B0BDE8F0830328024605D0044BEC
:1082A0000448042A18BF184670470348704700BFA7
:1082B000D0E6032060E6032090E6032008B5002204
:1082C0004068FEF79DF8BDE80840FFF7E5BF0000F5
:1082D000024B034A1A6000225A607047D0E603201E
:1082E000EC940B00F8B506460D468F180024BD42ED
:1082F0000CD0336815F8011B9B6830469847031E65
:1083000001DB1C44F3E7002C08BF1C462046F8BDE7
:1083100013B50446084659B10191FCF731FB2368B7
:108320000199DB680246204602B0BDE810401847BC
:1083300002B010BD03689B68184730B58BB00023AE
:10834000012A8DF8243098BF0A2209AC0D46B1FBF2
:10835000F2F101FB125303F0FF03092B94BF3033FA
:108360003733DBB2AA4204F8013DEFD92146FFF7CB
:10837000CFFF0BB030BD0000014B00229A60704768
:10838000D8E603200021FDF797BE0021FDF78CBE43
:1083900010B5044608462170FDF756FE00236360C1
:1083A000204610BD13B504460078CDE90021FFF743
:1083B000ECFFDDE90021034648B920780090FDF785
:1083C00063FE009802B0BDE81040FFF7DBBF02B0CB
:1083D00010BD13B5044600780191FFF7D6FF01994F
:1083E00048B920780190FDF71FFE019802B0BDE862
:1083F0001040FFF7C7BF02B010BD0078FFF7C5BF40
:108400000078FFF7BFBF0000400830B518600024B7
:1084100018688842E5B206D90134082C02D0400819
:108420001860F5E70725024B5B5D137030BD00BF98
:1084300028950B002DE9F04188B000230446007810
:1084400002930E461746FFF7A0FF054600BB94F8BF
:1084500000800146142203A800F05EFC0B232A468C
:1084600003A94046ADF80C30FDF7FEFD04988DF8E9
:10847000075002AB0DF1070207FB06F1FFF7C4FF3F
:1084800020789DF80710FDF7D7FD2078FFF77AFFD9
:10849000029808B0BDE8F08130B587B004460A9D67
:1084A00000950078FDF7E8FD3DB9207802A9FDF7B9
:1084B000F3FD9DF81430DB07F7D407B030BD10B5DD
:1084C00004460068FDF7B4FF204610BD10B5044611
:1084D000006808B1FDF7ACFF0023C4E90133236055
:1084E00010BD38B504460D4600680131FDF7A8FF00
:1084F00010B1C4E90005012038BD10B50368044679
:1085000023B143688B4201D3012010BD2046FFF701
:10851000E8FF0028F9D0A368002BF5D1226813707A
:10852000F2E737B50D46114601920446FFF7E5FF25
:10853000019A28B92046FFF7C9FF204603B030BD95
:10854000A2602946206800F0BFFB2268A3680021D2
:10855000D154F2E7002313B5C0E900330446836029
:10856000037341B108460191FCF70AFA01990246EA
:108570002046FFF7D6FF204602B010BD38B50546AD
:1085800000680C4670B16A688B689A4208D3096823
:1085900031B100F00EFCA368AB600023A36038BDCE
:1085A000FDF746FF23682B6063686B60A368AB60D0
:1085B0000023C4E90033F1E710B50023C0E900331C
:1085C000044683600373FFF7D9FF204610BD88423D
:1085D00010B5044605D00B682BB18A681946FFF721
:1085E000A0FF204610BDFFF771FFFAE710B500238A
:1085F0000446C0E9003383600373FFF7E8FF2046B9
:1086000010BD0000054B02221A60054B054A9A6016
:108610000020C3E90000FDF70FBE00BFF4E6032011
:10862000E8E603200000FFFF08B50020FDF770FE1C
:1086300028B1FDF75DFE80F00100C0B208BD012049
:10864000FCE7000030B593B0CDE90023194B044698
:10865000D3E90010019B521843EB00031648D0E900
:108660000010521843EB0003CDE9002324220DEB48
:108670000200002100F050FB002509A96846FDF723
:108680001FFF1622294603A8029500F045FB02A908
:1086900009A800F0E5FA02A8FCF772F912AB184439
:1086A00002A900F8415C2046FFF754FF204613B0B2
:1086B00030BD00BF08E7032000E7032010B500200D
:1086C000FDF70AFC0446A0B9FDF7AEFD012810D164
:1086D0002046FDF7D9FD60B9FFF7A6FF10B9FDF7F9
:1086E000F7FDF9E7FFF7A0FFBDE810400020FDF718
:1086F000F3BB204610BD1FB5FFF7E0FF102200219D
:10870000684600F009FB00216846FDF7EDFB009884
:1087100005B05DF804FB0000024B1A68024B1A60BA
:10872000704700BF2CE50320F8E603207047417432
:10873000704708B5007CFDF7FFFC20EAE07008BD3B
:1087400008B5007CFDF7D0FC20EAE07008BD08B554
:10875000007CFDF7D9FC40EAE07008BD08B5007C5C
:10876000FDF7CAFC40EAE07008BD007CFDF7D4BC10
:1087700037B5457C04462DB1207C03B0BDE83040C0
:10878000FDF7AABC007C0191FDF7D6FC00280199F9
:10879000F2DC284603B030BD10B514210446FCF7C6
:1087A00036F9204610BD000010B54FF47A73044628
:1087B000084611460022C4E90123044B236001232B
:1087C00020746374FDF7C8FC204610BD54950B005F
:1087D000007C0023FDF7B8BC0022FFF7F9BF007C46
:1087E000FDF772BC417470477047704708B50021AF
:1087F000007CFDF7E1FC40EAE07008BD08B501210E
:10880000007CFDF7D9FC40EAE07008BD08B5007CAB
:10881000FDF7CAFC20EAE07008BD08B5007CFDF752
:10882000BBFC20EAE07008BD13B50446007C019152
:10883000FDF7BAFC0028019901DC607C20B1207CA6
:10884000FDF7C2FC20EAE07002B010BD007CFDF72D
:10885000C3BC10B514210446FCF7D9F8204610BD5E
:1088600010B54FF47A73044608460021C4E9011399
:10887000044B23600123207463741146FDF774FCDC
:10888000204610BD84950B00007C0022FDF774BCCF
:10889000007CFDF779BC10B514220446002100F0DD
:1088A0003BFA204610BD000010B50F4C88B003A85D
:1088B000FFF7F1FF2178BFF35B8F11F001010FD1BA
:1088C00020460191FCF7B2F8019948B103AA074884
:1088D000FFF7C6FF2046FCF7AEF8054800F0E6F9C2
:1088E000024808B010BD00BF10E7032014E70320C2
:1088F000E9870B00014B1860704700BF30E503208B
:1089000008B50B4B43B1FFF7CFFF03681B699847CE
:10891000002801DDAFF30080064B43B100F074F98D
:1089200003681B699847002801DDAFF3008008BD8C
:10893000000000000000000008B5FFF7E1FFFDF7B0
:10894000C3FA014B186008BD30E703200548064A0A
:10895000064908B5121A00F0B7F9054B054A1A6026
:1089600008BD00BF00F4032004F4032034980B007A
:1089700000F403201E1C279A07B5002300931A4613
:108980006FF07701FDF792FC03B05DF804FB000087
:1089900007B543880A2B08D0502B0BD1094B1B6815
:1089A0004BB103B05DF804EB1847FFF7E5FF03B0E8
:1089B0005DF804FB002300931A466FF07701FDF782
:1089C00075FCF4E72CE7032010B512480021FDF7F1
:1089D0006FFD114B1A68114B9A42114B0CBF0122CB
:1089E00000221A7001D0FFF7B1FFFDF755FA0446D7
:1089F00000F09AF90B4B13B12046AFF30080002131
:108A00000848FDF795FCBDE8104007480021FDF738
:108A100043BC00BFF5880B0000F403201E1C279AFE
:108A200028E703200000000091890B0008B5024BE5
:108A30001B681B68019308BD5C02030008B5024B6C
:108A40001B685B68019308BD5C02030008B5024B1C
:108A50001B689B68019308BD5C020300232813B5C3
:108A600002D9002002B010BDA0F10B03022B1AD8CE
:108A7000174C2178BFF35B8F11F001010BD1204619
:108A80000191FBF7D3FF019928B11248FFF780FC51
:108A90002046FBF7D0FF0F4B1878FDF7DDFA0028D2
:108AA000DFD10120DEE7012809D800F06DF80021B0
:108AB000007CFDF789FA80F00100C0B2D2E70938E6
:108AC0000128EED800F0A0F8007CFDF72DFBF2E7BE
:108AD0004CE6032050E60320232838B504460D4613
:108AE0000AD8FF2908D0FFF7B9FF28B12946204648
:108AF000BDE83840FDF700BA38BD38B504460D462C
:108B0000FDF702FAFF2810D0062804D84D2323FAD7
:108B100000F0C30709D42046FFF7A0FF28B129467B
:108B20002046BDE83840FDF7F7B938BD10B504461A
:108B3000FDF7EAF9031FDBB2012B08D92046FFF746
:108B40008DFF20B12046BDE81040FDF7EDB90020B3
:108B500010BD704738B50A4B0360012304464361DA
:108B60000849202000F076F8202560600549A560BE
:108B7000284600F06FF8C4E90305204638BD00BF61
:108B800018000100AC950B0030B50E4D2978BFF3ED
:108B90005B8F11F0010487B011D12846FBF746FF27
:108BA00068B16846FFF7D6FF6A4621460648FEF7D9
:108BB00063F82846FBF73FFF044800F077F80248C7
:108BC00007B030BD34E7032038E70320538B0B0098
:108BD0007047000038B5044614252A46002100F0ED
:108BE0009BF825804025074925812846258200F0ED
:108BF00031F804496060284600F02CF8E060204617
:108C000038BD00BFAC950B0030B50E4D2978BFF3D1
:108C10005B8F11F0010487B011D12846FBF706FFE6
:108C200068B101A8FFF7D6FF01AA21460648FFF761
:108C3000BBFD2846FBF7FFFE044800F037F802486A
:108C400007B030BD4CE7032050E70320D18B0B0069
:108C5000FBF7D9BEFBF7D9BE08B5FDF709FC00004C
:108C600010B50C4641690369826986B001F26C71E6
:108C70000491016803914168029181680191C16882
:108C80000091074903EB43030B44064902EB420200
:108C90000A4420460449FDF7DBFB204606B010BD20
:108CA000E2950B00CD950B00AD950B00002301461E
:108CB0001A46184600F058B9024B1844407800F0A4
:108CC0009700704776960B000A44914200F1FF33FB
:108CD00000D1704710B511F8014B03F8014F9142D4
:108CE000F9D110BD884210B501EB020402D98442CB
:108CF000234607D8431EA14208D011F8012B03F8E0
:108D0000012FF8E7024401468A4200D110BD13F852
:108D1000014D02F8014DF7E702440346934200D1AA
:108D2000704703F8011BF9E738B5104B1D68AB6BB2
:108D30000446B3B91820FDF773FB0246A86320B9B7
:108D40000B4B0C484221FDF7ABFB0B490B4BC0E929
:108D500000130B4B83600B23838100210120C2E9A8
:108D60000401AB6B00221C615A6138BD30E5032061
:108D700006960B001D960B000E33CDAB34126DE63C
:108D8000ECDE0500C9B2034610F8012B1AB18A4285
:108D9000F9D118467047002918BF0023F9E710B52C
:108DA0000446FFF7EFFF18B92046FBF7E9FD204422
:108DB00010BD034611F8012B03F8012B002AF9D14D
:108DC00070470000024B0146186800F003B800BF6E
:108DD00030E5032037B5044608460D46FBF7D0FDC5
:108DE000421C114620460192FDF74AFB044618B189
:108DF000019A2946FFF768FF204603B030BD10B541
:108E00007AB103460139841813F8010B11F8012FC8
:108E1000904201D1A34201D1801A10BD0028F3D1A4
:108E2000FAE71046F9E738B503460C4669B9BDE8DC
:108E30003840FFF7A7BF431C054621461846FFF7F9
:108E4000A1FF0028F7D1284638BD0025F5E700002E
:108E5000012B2DE9F04701D0242B06D9FDF718FB93
:108E6000162303600020BDE8F087DFF8E4C00D465C
:108E70002E4615F8014B14F80C7017F00807F7D1BF
:108E80002D2C32D12C780127B51C002B5BD0102B58
:108E900009D1302C07D12C7804F0DF04582C4DD1A7
:108EA0006C781023023507F1004808F1FF384FF0C5
:108EB000000CB8FBF3F9664603FB198AA4F1300EE7
:108EC000BEF1090F16D87446A34224DDBCF1000F91
:108ED0001EDBB1451CD301D1A24519DB06FB0346BD
:108EE0004FF0010C15F8014BE8E72B2C04BF2C7850
:108EF000B51CCAE7A4F1410EBEF1190F01D8373CE9
:108F0000E2E7A4F1610EBEF1190F04D8573CDBE78C
:108F10004FF0FF3CE6E7BCF1000F05DA22230360C7
:108F2000464642B930469EE707B17642002AF9D05C
:108F3000BCF1000F00D0691E1160F3E73024002B54
:108F4000B1D10823AFE7302CA5D00A23ABE700BF8F
:108F500077960B0013460A46014602480068FFF761
:108F600077BF00BF30E503202DE9F843DFF8B88074
:108F70000646D8F800001F460D46914600F056F808
:108F8000254B1C6834B9254C1C60254B13B11B685C
:108F9000C4F8883063681F2B07DDD8F8000000F0A4
:108FA00047F84FF0FF30BDE8F8834EB3D4F888009F
:108FB00088B91C4B23B9D8F8000000F038F8F0E766
:108FC0004FF48470FDF72CFA0028F4D00023C0E998
:108FD0004033C4F88800636840F8239001229A4027
:108FE00000EB8301D0F800311343C0F80031022EAA
:108FF000C1F8807002BFD0F804311343C0F80431C7
:109000006368D8F800005A1C0233626044F82350A9
:1090100000F00EF80020C6E7F0E7032064E7032025
:109020000000000021640B0094E5032070477047A6
:109030007047000091490B00CD490B00F5490B002A
:10904000F9490B000000000043616C6C206F6E203A
:1090500070757265207669727475616C0052657303
:10906000657420436F756E74730053746F70204D78
:10907000657373616765730053656E642053746133
:109080007475730053797374656D205374617475CE
:1090900073002564005761746572204C6576656CB9
:1090A0000050756D7020436F756E740054656D705F
:1090B000657261747572650048756D69646974796B
:1090C0000054696D6500537461747573204D657348
:1090D000736167650043757272656E742076616CAA
:1090E00075652041203A202530362E3466200A004E
:1090F00050756D70206A757374207475726E656436
:10910000206F6E0050756D70206973207374696CE8
:109110006C206F6E00466C6F617420737475636BA6
:10912000204576656E7400466C6F617420737475AB
:10913000636B204576656E742052657365740048D4
:109140006967682043757272656E74204576656E36
:109150007400486967682043757272656E742045B3
:1091600076656E74205265736574004932432045FC
:1091700072726F722052657365740054656D70650C
:1091800072617475726520C2B046203A20252E3275
:1091900066200A0052656C61746976652048756DB9
:1091A0006964697479203A20252E3266200A007499
:1091B000656D7065726174757265206F7574736921
:1091C0006465206F662077696E646F770054656D03
:1091D0007065726174757265205761726E696E6731
:1091E0000054656D706572617475726520457665B1
:1091F0006E742052657365740068696768206875CD
:109200006D6964697479206576656E740048756D62
:109210006964697479205761726E696E6700487578
:109220006D6964697479204576656E742052657342
:1092300065740049324320427573204572726F7223
:109240000074656D702F68756D646974792073653D
:109250006E736F72206572726F720053656E736FFA
:109260007220696E20494E203A20252E3266200A4F
:109270000068696768207761746572206576656E3D
:1092800074005761746572205761726E696E670071
:109290005761746572205761726E696E67205265FE
:1092A0007365740000000000000000000000000072
:1092B00000000000154A0B003D4A0B0000000000B2
:1092C00000000000FD4A0B00314B0B00F17D0B004C
:1092D000957F0B000000000000000000B14A0B0069
:1092E000C54A0B005C752530345800252E2A6600CF
:1092F00025660000000000000000000085550B00FE
:10930000A1550B000000000000000000B5550B0047
:10931000C9550B000000000000000000EF650B00C5
:10932000E5650B00DB650B0091650B00CF650B005D
:10933000C3650B0081810B0089810B00B7650B00B1
:10934000AF650B00A5650B009B650B00BD820B0094
:10935000B9810B00C1810B0000000000000000007B
:1093600029660B002F660B006D660B003D660B0037
:109370002B660B000000000000000000036C0B00D7
:10938000F96B0B00EF6B0B00E56B0B00D96B0B005F
:10939000CD6B0B0081810B0089810B00C16B0B0031
:1093A000B96B0B00AF6B0B00A56B0B00BD820B0004
:1093B000B9810B00C1810B0000000000000000001B
:1093C000216C0B006B6C0B00436C0B00236C0B00CF
:1093D0004B6C0B00536C0B005B6C0B00636C0B0055
:1093E00000000000000000003B6D0B002B6D0B0027
:1093F0002D6D0B0025750075253034780062617580
:10940000640053657269616C0053657269616C3107
:10941000004A534F4E53747265616D4C6F674861DB
:109420006E646C657200617070002530313075209B
:10943000005D20002C200028293A2000205B0063DA
:109440006F6465203D200025690064657461696C66
:1094500073203D20000D0A006D006C6E00666E00EA
:10946000636F64650064657461696C0000000000EE
:1094700000000000E9710B000F720B00CD710B00B2
:109480004B6E0B00000000000000000099760B00FE
:10949000B1760B00F17D0B00957F0B000000000002
:1094A00000000000C5760B00D9760B00CD7F0B00C5
:1094B000D5710B000000000000000000E7710B00F8
:1094C0001D720B00557D0B00D7710B0000000000D2
:1094D00000000000E5710B002B720B0001760B0001
:1094E0004D720B00000000000000000041810B00E5
:1094F0004B810B0055810B005F810B0069810B00D4
:1095000075810B0081810B0089810B0091810B001B
:109510009D810B00A5810B00AF810B00BD820B006C
:10952000B9810B00C1810B000008101820283038C9
:1095300025592D256D2D25645425483A254D3A256C
:1095400053257A0061736374696D65000000000043
:10955000000000002D870B0099870B0071870B001E
:10956000E5820B0041870B005D870B004F870B00E6
:109570006B870B002F870B0033870B000000000068
:1095800000000000EB870B0053880B0029880B00BC
:10959000E5820B001B880B00ED870B00FD870B009D
:1095A0004D880B000D880B00E5870B0000252E333E
:1095B0007320252E337325336420252E32643A25FB
:1095C0002E32643A252E32642025640A0053756ECB
:1095D0004D6F6E547565576564546875467269536E
:1095E00061744A616E4665624D61724170724D618F
:1095F000794A756E4A756C4175675365704F63742F
:109600004E6F764465635245454E54206D616C6CD7
:109610006F6320737563636565646564002F746DA3
:10962000702F6A656E6B696E732D4743432D313021
:109630002D706970656C696E652D34385F3230321B
:1096400030313132345F31363036313830363339BB
:109650002F7372632F6E65776C69622F6E65776CFE
:1096600069622F6C6962632F7374646C69622F7214
:10967000616E642E63000020202020202020202006
:1096800028282828282020202020202020202020B2
:1096900020202020202020881010101010101010E2
:1096A0001010101010101004040404040404040426
:1096B00004101010101010104141414141410101AE
:1096C000010101010101010101010101010101018A
:1096D0000101101010101010424242424242020298
:1096E000020202020202020202020202020202025A
:1096F0000202101010102000000000000000000006
:109700000000000000000000000000000000000059
:109710000000000000000000000000000000000049
:109720000000000000000000000000000000000039
:109730000000000000000000000000000000000029
:109740000000000000000000000000000000000019
:109750000000000000000000000000000000000009
:1097600000000000000000000000000000000000F9
:10977000000000000000000071530B0081650B0029
:10978000F9650B000D6C0B00E17D0B00D1820B0025
:0C97900079830B0005860B0019870B0085
:10979C00040000001400000003000000474E5500B8
:1097AC00DDA10F3A6864595D98C573434A8EE18018
:0497BC003DC4A7AC55
:1097C000BC940B00D4940B0044950B0034E50320AB
:1097D0000000000000000000000000000000000089
:1097E0000000000000000000000000000000000079
:1097F0000000000000000000000000000000000069
:109800000000000000000000000000000000000058
:109810000000000000000000000000000000000048
:109820000000000000000000000000000000000038
:04983000F4E7032036
:049834000000000030
:06983800FFFF0D0004001B
:10983E0000000102030405060708090A0B0C0D0EB1
:10984E000F101112131415161718191A1B1C1D1EA2
:04985E001F2028009F
:0498620078563412EE
:04000003B0004020E9
:00000001FF
