:02000004085F93
:10A0000000A05F08FCFF5F080000060020000501BB
:08A0100004017D1500000000B1
:10A018001348144908B5884205D0134A824202D031
:10A02800124B121A98471248124A0021124B121A60
:10A03800984712481249884205D0124A824202D0F3
:10A048000A4B121A984710481049884205D0104AFE
:10A05800824202D0054B121A9847014808BD00BF3A
:10A0680008AD071020FD5F0880AD07102D0D1110F9
:10A0780080AD0710E8AF0710A10E111078A33F02BA
:10A08800A8A05F0880A33F0280A33F02B0A05F089A
:0CA09800F0FF3F0219A05F08000000006C
:08A0A8009CA05F08A4F83F0230
:10A0B00081F0004102E000BF83F0004330B54FEA79
:10A0C00041044FEA430594EA050F08BF90EA020FE6
:10A0D0001FBF54EA000C55EA020C7FEA645C7FEA79
:10A0E000655C00F0E2804FEA5454D4EB5555B8BF9C
:10A0F0006D420CDD2C4480EA020281EA030382EA0D
:10A10000000083EA010180EA020281EA0303362D9E
:10A1100088BF30BD11F0004F4FEA01314FF4801C71
:10A120004CEA113102D0404261EB410113F0004F83
:10A130004FEA03334CEA133302D0524263EB43033A
:10A1400094EA050F00F0A780A4F10104D5F1200ED8
:10A150000DDB02FA0EFC22FA05F2801841F1000133
:10A1600003FA0EF2801843FA05F359410EE0A5F107
:10A1700020050EF1200E012A03FA0EFC28BF4CF038
:10A18000020C43FA05F3C01851EBE37101F00045EE
:10A1900007D54FF0000EDCF1000C7EEB00006EEBFB
:10A1A0000101B1F5801F1BD3B1F5001F0CD3490885
:10A1B0005FEA30004FEA3C0C04F101044FEA4452DC
:10A1C00012F5800F80F09A80BCF1004F08BF5FEA63
:10A1D000500C50F1000041EB045141EA050130BD43
:10A1E0005FEA4C0C404141EB0101013C28BFB1F555
:10A1F000801FE9D291F0000F04BF01460020B1FAA0
:10A2000081F308BF2033A3F10B03B3F120020CDA72
:10A210000C3208DD02F1140CC2F10C0201FA0CF050
:10A2200021FA02F10CE002F11402D8BFC2F1200CB5
:10A2300001FA02F120FA0CFCDCBF41EA0C0190406B
:10A24000E41AA2BF01EB0451294330BD6FEA0404B4
:10A250001F3C1CDA0C340EDC04F11404C4F120029F
:10A2600020FA04F001FA02F340EA030021FA04F3B1
:10A2700045EA030130BDC4F10C04C4F1200220FA08
:10A2800002F001FA04F340EA0300294630BD21FA46
:10A2900004F0294630BD94F0000F83F4801306BF0C
:10A2A00081F480110134013D4EE77FEA645C18BF00
:10A2B0007FEA655C29D094EA050F08BF90EA020F97
:10A2C00005D054EA000C04BF1946104630BD91EA8F
:10A2D000030F1EBF0021002030BD5FEA545C05D192
:10A2E0004000494128BF41F0004130BD14F58004D1
:10A2F0003CBF01F5801130BD01F0004545F0FE4145
:10A3000041F470014FF0000030BD7FEA645C1ABF79
:10A31000194610467FEA655C1CBF0B46024650EAB0
:10A32000013406BF52EA033591EA030F41F40021DC
:10A3300030BD00BF90F0000F04BF0021704730B562
:10A340004FF4806404F132044FF000054FF0000137
:10A3500050E700BF90F0000F04BF0021704730B5F8
:10A360004FF4806404F1320410F0004548BF4042CD
:10A370004FF000013EE700BF42004FEAE2014FEA22
:10A3800031014FEA02701FBF12F07F4393F07F4FFD
:10A3900081F06051704732F07F4208BF704793F000
:10A3A0007F4F04BF41F40021704730B54FF4607413
:10A3B00001F0004521F000411CE700BF50EA010216
:10A3C00008BF704730B54FF000050AE050EA0102BF
:10A3D00008BF704730B511F0004502D5404261EB2F
:10A3E00041014FF4806404F132045FEA915C3FF470
:10A3F000D8AE4FF003025FEADC0C18BF03325FEA0D
:10A40000DC0C18BF033202EBDC02C2F1200300FABD
:10A4100003FC20FA02F001FA03FE40EA0E0021FAE2
:10A4200002F11444BDE600BF70B54FF0FF0C4CF4D0
:10A43000E06C1CEA11541DBF1CEA135594EA0C0F82
:10A4400095EA0C0F00F0DEF82C4481EA030621EABD
:10A450004C5123EA4C5350EA013518BF52EA0335F8
:10A4600041F4801143F4801338D0A0FB02CE4FF0AA
:10A470000005E1FB02E506F00042E0FB03E54FF0DA
:10A480000006E1FB03569CF0000F18BF4EF0010ED2
:10A49000A4F1FF04B6F5007F64F5407404D25FEACE
:10A4A0004E0E6D4146EB060642EAC62141EA555181
:10A4B0004FEAC52040EA5E504FEACE2EB4F1FD0CC3
:10A4C00088BFBCF5E06F1ED8BEF1004F08BF5FEA41
:10A4D000500E50F1000041EB045170BD06F00046F3
:10A4E00046EA010140EA020081EA0301B4EB5C04A0
:10A4F000C2BFD4EB0C0541EA045170BD41F4801198
:10A500004FF0000E013C00F3AB8014F1360FDEBFBC
:10A51000002001F0004170BDC4F10004203C35DA98
:10A520000C341BDC04F11404C4F1200500FA05F31B
:10A5300020FA04F001FA05F240EA020001F00042BC
:10A5400021F0004110EBD37021FA04F642EB060132
:10A550005EEA430E08BF20EAD37070BDC4F10C045C
:10A56000C4F1200500FA04F320FA05F001FA04F220
:10A5700040EA020001F0004110EBD37041F100010C
:10A580005EEA430E08BF20EAD37070BDC4F1200517
:10A5900000FA05F24EEA020E20FA04F301FA05F27F
:10A5A00043EA020321FA04F001F0004121FA04F227
:10A5B00020EA020000EBD3705EEA430E08BF20EAF7
:10A5C000D37070BD94F0000F0FD101F00046400031
:10A5D00041EB010111F4801F08BF013CF7D041EAB3
:10A5E000060195F0000F18BF704703F000465200B7
:10A5F00043EB030313F4801F08BF013DF7D043EA88
:10A600000603704794EA0C0F0CEA135518BF95EA3D
:10A610000C0F0CD050EA410618BF52EA4306D1D1C4
:10A6200081EA030101F000414FF0000070BD50EAE3
:10A63000410606BF1046194652EA430619D094EA6D
:10A640000C0F02D150EA013613D195EA0C0F05D157
:10A6500052EA03361CBF104619460AD181EA0301AB
:10A6600001F0004141F0FE4141F470014FF0000063
:10A6700070BD41F0FE4141F4780170BD70B54FF0FE
:10A68000FF0C4CF4E06C1CEA11541DBF1CEA13557E
:10A6900094EA0C0F95EA0C0F00F0A7F8A4EB050460
:10A6A00081EA030E52EA03354FEA013100F0888057
:10A6B0004FEA03334FF0805545EA131343EA126320
:10A6C0004FEA022245EA111545EA10654FEA0026D5
:10A6D0000EF000419D4208BF964244F1FD0404F58E
:10A6E000407402D25B084FEA3202B61A65EB0305EA
:10A6F0005B084FEA32024FF480104FF4002CB6EBA7
:10A70000020E75EB030E22BFB61A754640EA0C0026
:10A710005B084FEA3202B6EB020E75EB030E22BF66
:10A72000B61A754640EA5C005B084FEA3202B6EBA7
:10A73000020E75EB030E22BFB61A754640EA9C0066
:10A740005B084FEA3202B6EB020E75EB030E22BF36
:10A75000B61A754640EADC0055EA060E18D04FEAF4
:10A76000051545EA16754FEA06164FEAC30343EA94
:10A7700052734FEAC2025FEA1C1CC0D111F4801F61
:10A780000BD141EA00014FF000004FF0004CB6E75A
:10A7900011F4801F04BF01430020B4F1FD0C88BFF9
:10A7A000BCF5E06F3FF6AFAEB5EB030C04BFB6EB04
:10A7B000020C5FEA500C50F1000041EB045170BDF7
:10A7C0000EF0004E4EEA113114EB5C04C2BFD4EB24
:10A7D0000C0541EA045170BD41F480114FF0000EA8
:10A7E000013C90E645EA060E8DE60CEA135594EA24
:10A7F0000C0F08BF95EA0C0F3FF43BAF94EA0C0F27
:10A800000AD150EA01347FF434AF95EA0C0F7FF49B
:10A8100025AF104619462CE795EA0C0F06D152EAEF
:10A8200003353FF4FDAE1046194622E750EA4106D3
:10A8300018BF52EA43067FF4C5AE50EA41047FF4E4
:10A840000DAF52EA43057FF4EBAE12E74FF0FF3C49
:10A8500006E000BF4FF0010C02E000BF4FF0010C1A
:10A860004DF804CD4FEA410C7FEA6C5C4FEA430C93
:10A8700018BF7FEA6C5C1BD001B050EA410C0CBFE2
:10A8800052EA430C91EA030F02BF90EA020F002044
:10A89000704710F1000F91EA030F58BF994208BFAB
:10A8A00090422CBFD8176FEAE37040F00100704768
:10A8B0004FEA410C7FEA6C5C02D150EA013C07D1BF
:10A8C0004FEA430C7FEA6C5CD6D152EA033CD3D00A
:10A8D0005DF8040B704700BF8446104662468C4604
:10A8E0001946634600E000BF01B5FFF7B7FF002837
:10A8F00048BF10F1000F01BD4DF808EDFFF7F4FF60
:10A900000CBF012000205DF808FB00BF4DF808EDEA
:10A91000FFF7EAFF34BF012000205DF808FB00BF0D
:10A920004DF808EDFFF7E0FF94BF012000205DF82F
:10A9300008FB00BF4DF808EDFFF7CEFF94BF0120E4
:10A9400000205DF808FB00BF4DF808EDFFF7C4FFDD
:10A9500034BF012000205DF808FB00BF4FEA410230
:10A96000B2F1E04324BFB3F5001CDCF1FE5C0DD96D
:10A9700001F0004C4FEAC0024CEA5070B2F1004FB7
:10A9800040EB830008BF20F00100704711F0804FBA
:10A9900021D113F13872BCBF01F00040704741F47F
:10A9A00080114FEA5252C2F11802C2F1200C10FA83
:10A9B0000CF320FA02F018BF40F001004FEAC12367
:10A9C0004FEAD32303FA0CFC40EA0C0023FA02F30B
:10A9D0004FEA4303CCE77FEA625307D150EA0133E1
:10A9E0001EBF4FF0FE4040F44000704701F00040B1
:10A9F00040F0FE4040F40000704700BF10F8012B0B
:10AA000011F8013B012A28BF9A42F7D0D01A7047AB
:10AA1000034613F8012B002AFBD1181A013870479E
:10AA200070B504F00DFA0025054E064CA41BA408D1
:10AA3000AC4200D170BD56F8043B98470135F7E7AA
:10AA4000CCFF3F02F0FF3F0200F0D6B808B500F09F
:10AA5000FDFBBDE8084004F0ABB901F0FBBE01F01E
:10AA6000F9BE01F005BF00000C2008B5024A0349F9
:10AA700001F030FDFEE700BFF5C13F02B4F83F0230
:10AA80000078B0FA80F040097047012303707047E6
:10AA9000704700000023074A01201380064A1380F4
:10AAA000064A1380064A1380064A1380064A13801A
:10AAB000704700BF24AE0710CCAD071018AE0710CA
:10AAC0001CAE0710D0AD0710CEAD07100522012037
:10AAD000064B1A80064B1880064B1880064B1880D0
:10AAE000064B1880064B1880704700BF24AE071035
:10AAF000CCAD071018AE07101CAE0710D0AD071074
:10AB0000CEAD071010B50446024B036000F072FD95
:10AB1000204610BD48FB3F0210B50446FFF7F2FF88
:10AB200020464FF49871FFF79CFF204610BD0000AF
:10AB300013B50446054B00221B788DF800303C23EA
:10AB400002F0D4F8204602B010BD00BF8CAD071053
:10AB500010B50446094B036002F0CEFE214603F017
:10AB600005F904F095F804F087F82046044B40F806
:10AB7000043B02F097FF204610BD00BF30FB3F02B0
:10AB800018FB3F0210B50446FFF7E2FF20462421E0
:10AB9000FFF767FF204610BD0EB44FF0200C0023D6
:10ABA00000B58CB00DAA52F8041BCDE904C3CDE961
:10ABB00000120392016804AA012001F099FC0CB074
:10ABC0005DF804EB03B070470EB44FF0200C002387
:10ABD00000B58CB00DAA52F8041BCDE904C3CDE931
:10ABE00000120392016804AA1E2001F081FC0CB03F
:10ABF0005DF804EB03B0704710B51C4C88B02046DC
:10AC00001B4A1C4901F07FFF20461B4A1B4901F0EB
:10AC10007AFF1B4A1B49204601F075FF01F02CFD0D
:10AC200004F036F84FF4165104F022F80022164BC7
:10AC300001A81A7001F05FF80123144C01A9204605
:10AC4000ADF8043001F05FF8204601F009F904A8DE
:10AC500000F01AFE0E4B04A904930C230D488DF846
:10AC6000143000F01DFE08B010BD00BFABCD3F0298
:10AC7000C9F83F0265AD3F02D6F83F029DAD3F02E5
:10AC8000E4F83F02A9B53F021AAE0710A4AD0710C1
:10AC9000100F110590AD071038B5046805467CB15A
:10ACA0006368013B63605BB9236820469B689847F3
:10ACB000A368013BA3601BB923682046DB68984763
:10ACC000284638BD70B51426D0E90053044606FB6B
:10ACD0000356AE4204D0284603F0E1FD1435F8E7F0
:10ACE000206801F0C5FD204670BD13B504468DED0A
:10ACF000000A019100F09CFD01222046019900F01C
:10AD000005FD20463A2100F0A3FC9DED000A2046F7
:10AD100002B0BDE8104000F097BD000070B5D2B0A1
:10AD200012A94FF4807206A800F080FC3A4B7D22F5
:10AD30007B2106A8069300F09AFC384B06A81C78E5
:10AD4000374D00F075FD012206A8364900F0DEFC03
:10AD500006A83A2100F07CFC2246294606A800F00D
:10AD6000C7FC314B314993ED000A314C06A8FFF77F
:10AD7000BCFF06A8268800F05BFD012206A82D492D
:10AD800000F0C4FC06A83A2100F062FC32462946D5
:10AD900006A800F0ADFC284B06A893ED000A274951
:10ADA000FFF7A3FF264B274993ED000A06A8FFF7FC
:10ADB0009CFF03F090FEC317024602A803F032FE88
:10ADC00006A800F035FD012206A81F4900F09EFCF0
:10ADD00006A83A2100F03CFC0299012206A800F0E6
:10ADE00095FC02A803F05BFD06A800F051FC174B90
:10ADF000079A1B7816498DF8003002A83C2301F011
:10AE000075FF03A8FFF748FF002306A82380FFF77C
:10AE100079FE52B070BD00BF48FB3F021AAE07106A
:10AE2000FEF83F02F0F83F0228AE071001F93F029A
:10AE3000FCAD07100DF93F0220AE071018F93F02D4
:10AE4000D4AD071024F93F022DF93F028DAD071054
:10AE500032F93F0208B501F01DFC18B1BDE8084009
:10AE6000FFF75CBF08BD0000F0B52DED028B474831
:10AE700083B000F053FD464E10EE100A86ED000A36
:10AE8000FFF77AFA02460B4642484349FFF784FE31
:10AE9000B7EE008AD6ED007AF4EEC87AF1EE10FA39
:10AEA0003E4C10DB23883BB93D493A48FFF78CFE06
:10AEB0003C4A1388013313803B493648FFF784FE30
:10AEC0002388013323802388384D1E2B41D9032347
:10AED000374F38492F482B70FFF776FE3B8843B930
:10AEE00068463449FFF724FE01A8FFF7D5FEFFF7B7
:10AEF000B1FF3B8801333B8096ED007AF2EE047A95
:10AF0000B4EEE77AF1EE10FA31DD02232B702A4D10
:10AF10002A492048FFF758FE2B8843B9684627493D
:10AF2000FFF706FE01A8FFF7B7FEFFF793FF2B8898
:10AF300001332B80D6ED007AF4EEC87AF1EE10FAE8
:10AF400003D523880BB10023238003B0BDEC028B13
:10AF5000F0BD2B78032BCFD119490E48FFF734FEF3
:10AF60000023134A2B701380FFF774FFC4E72B787C
:10AF7000022BDFD113490748FFF726FE00230E4AB4
:10AF80002B701380FFF766FFD4E700BF90AD07106A
:10AF9000C8AD07105CAE071041F93F02B4AD071011
:10AFA0005CF93F02FCAD071070F93F021AAE0710C2
:10AFB00018AE071081F93F02CCAD0710ABF93F0284
:10AFC00093F93F02BEF93F0273B55D4800F0D8FE29
:10AFD000DFED5C7AB4EE670AF1EE10FA5A4C00F03D
:10AFE000978010EE100AFFF7C7F953A3D3E90023A7
:10AFF000FFF71AFA554B0022FFF760F8FFF7AEFC97
:10B00000534E544D30604E4800F0F8FE237885EDE5
:10B01000000A062B07D150495048FFF7D5FD002301
:10B020004F4A237013803068FFF7A6F902460B469B
:10B030004A484C49FFF7C8FD2868FFF79DF90246CA
:10B040000B4646484849FFF7BFFDD6ED007A9FED15
:10B05000477AF4EEC77AF1EE10FA06DC9FED447AF7
:10B06000F4EEC77AF1EE10FA34D50423414E42498A
:10B070003A482370FFF7A8FD338843B968463F4933
:10B08000FFF756FD01A8FFF707FEFFF7E3FE338841
:10B090000133338095ED007ADFED397AB4EEE77A4B
:10B0A000F1EE10FA24DD05232370364C36492B4887
:10B0B000FFF78AFD238843B968463449FFF738FD16
:10B0C00001A8FFF7E9FDFFF7C5FE238801332380C0
:10B0D00002B070BD2378042BDCD12D491F48FFF747
:10B0E00073FD0023234A23701380FFF7B3FED1E7DB
:10B0F0002378052BECD127491848FFF765FD00237D
:10B10000204A2370138002B0BDE87040FFF7A2BE52
:10B1100006232370124C20491048FFF755FD238861
:10B12000002BD2D168461D49FFF702FD01A8FFF7A9
:10B13000B3FDCAE7AFF30080CDCCCCCCCCCCFC3F88
:10B14000A4AD0710000080471AAE07100000404071
:10B1500020AE0710D4AD0710D7F93F025CAE071040
:10B16000CEAD0710E7F93F0200FA3F020000BE42F1
:10B17000000034421CAE07101BFA3F0239FA3F02AE
:10B180000000A042D0AD071065FA3F0279FA3F02F5
:10B190004DFA3F028AFA3F029FFA3F02ADFA3F02A0
:10B1A00013B5214800F0F2F951EC100BFFF7D6FB74
:10B1B0001E4C2060FFF7E0F802460B461C481D4974
:10B1C000FFF702FD94ED007AF1EE007AB4EEE77A33
:10B1D000F1EE10FA184C17D801232370174C1849B8
:10B1E0001348FFF7F1FC2388042B08D8684615495B
:10B1F000FFF79EFC01A8FFF74FFDFFF72BFE23880A
:10B200000133238002B010BD2378012BFAD10E49FF
:10B210000748FFF7D9FC0023084A2370138002B0C7
:10B22000BDE81040FFF716BE00AE071028AE0710AD
:10B230005CAE0710C7FA3F021AAE071024AE071023
:10B24000DDFA3F02EEFA3F02FCFA3F0210B500F0D1
:10B2500085FE1B4C2368C01AB0F57A7F04D300F03A
:10B260007DFE2060FFF700FE00F078FE154C23689D
:10B27000C01A42F20F73984204D900F06FFE2060AA
:10B28000FFF78EFF00F06AFE0F4C2368C01A0F4BC9
:10B29000984204D900F062FE2060FFF795FE00F0AE
:10B2A0005DFE0B4C2368C01A0A4B984206D300F08F
:10B2B00055FE2060BDE81040FFF7CCBD10BD00BFBB
:10B2C000BCAD0710B8AD0710C4AD0710BF2709000B
:10B2D000C0AD071080EE360008B5FFF7C5FDFFF7DB
:10B2E00073FEFFF75DFFFFF7B5FD012008BD884243
:10B2F000F8B504460D46164616D9904215D2A2F16D
:10B300001406751AA1F114072C44B7421CD02CB1B5
:10B310003146204603F040FB337C2374304603F073
:10B32000BEFA143E143CF0E70ED0B5420CD02CB15E
:10B330002946204603F030FB2B7C2374284603F07B
:10B34000AEFA14351434F0E7F8BD00232DE9F041CE
:10B35000C0E9003383604F6804469F420E4624DDF7
:10B360004FF0140808FB07F001F074FA0546E0B14D
:10B37000D4E9001208FB0212FFF7B9FF206801F0C0
:10B3800077FA2560A760D6E9007308FB0378B84513
:10B3900009D03946284603F019FB3B7C143505F8E3
:10B3A000043C1437F3E7736863602046BDE8F0811E
:10B3B00070B5002401252F4B8CB01C702E4B1D70D6
:10B3C00003F070FD23462246042103F087FD03F0BD
:10B3D00069FD23462246202103F072FD13210E222F
:10B3E000264800F059F8264B264AC3E900449A60E3
:10B3F000022001F0B5F82146284601F0CDF8CDE94C
:10B400000044029403F044FC1F4C0546264669465E
:10B4100003A8FFF79AFF03A906A8FFF796FF1B4BA7
:10B4200006A946F8043B09A8FFF78FFF09AA1E21C9
:10B43000304602F07DFD09A8FFF744FC06A8FFF79F
:10B4400041FC134B2562236003A8FFF73BFC114B23
:10B45000236003F01DFC4FF4165103F009FC02F0C9
:10B460004BFA214602F03CFC6846FFF72BFC0CB07F
:10B4700070BD00BF8CAD07108DAD071000AE07107A
:10B4800080AD07100000FFFFD8AD071018FB3F028A
:10B49000ACFC3F0230FB3F02D0B5044600260A4F09
:10B4A0000846C4E902670026084FC4E90021C4E940
:10B4B0000467012180B203F05DFD2088002103F0C4
:10B4C00059FD2046D0BD00BF0000244000406F4021
:10B4D00010B58CB22046012103F05DFD0A2000F07A
:10B4E00021FD2046BDE81040002103F054BD70B599
:10B4F0000D461C46164600F031FDADB20444284608
:10B5000003F062FDB04203D000F028FD8442F6D87B
:10B5100070BD0000F8B504464168FFF7D9FF642309
:10B52000012221682046FFF7E2FF00F009FD6423B5
:10B530000022216805462046FFF7D9FF00F000FDF4
:10B54000401BFEF707FF00220D4BFFF797F8002284
:10B550000C4BFEF769FF06460F4602460B46D4E940
:10B560000201FFF7F1F930B9D4E9040132463B4654
:10B57000FFF7CCF908B10026034F47EC106BF8BD7C
:10B5800000003D400000E03F0000F0BF38B5FFF78D
:10B59000C1FF55EC104B002210EE100A2946074B54
:10B5A000FFF7AAF938B9204629460022044BFFF7D5
:10B5B00065F804460D4645EC104B38BD0000F0BF61
:10B5C0000000044010B5054B04460360037C1BB922
:10B5D000406808B101F04CF9204610BD68FB3F02FD
:10B5E00010B50446FFF7EEFF20461421FFF739FAA5
:10B5F000204610BD10B50446024B0360FFF7E2FF82
:10B60000204610BD78FB3F0210B50446FFF7F2FF5D
:10B6100020463021FFF725FA204610BD0023C360E5
:10B620004361038380F82A3070470000C0E90112AB
:10B630000022C26001220274044A08B502604FF081
:10B64000FF32C262FFF7EAFF08BD00BF78FB3F028E
:10B65000D0E90223934228BF012310B53FBF4268BF
:10B660005C1CC460D15428BF80F82A3010BD38B5A6
:10B670004469651C082D09D800EB44030124456189
:10B680009C76DA76FFF7E4FF204638BD0020FCE721
:10B6900010B54369044643B100EB4303597E09B139
:10B6A000FFF7D6FF6369013B63610022D4E9021012
:10B6B000636888422ABF5B181A5403F8012C10BD36
:10B6C00070B50446D0E9025066682D1A134630441E
:10B6D0000A46294601F0F6F8854237BFA368E368B9
:10B6E000E360012326BFC018E06084F82A3070BDF3
:10B6F0000EB403B503AA52F8041B0192FFF7E0FF52
:10B7000002B05DF804EB03B0704700002DE9F84388
:10B7100004460E46174612B12221FFF799FF002575
:10B72000DFF80881715D06EB0509002974D0D4E9C2
:10B7300002329A4270D20B0634D501F0F003E02BAE
:10B7400005F101091DD116F8092002F0C003802B74
:10B7500039D105F1020916F8093003F0C00080283C
:10B7600031D103F03F03920143EA013302F47C62DA
:10B770001A4392B241462046FFF7BAFF4D460135C3
:10B78000D0E701F0E003C02B1DD116F8093003F01B
:10B79000C002802A17D1890101F4F86203F03F0347
:10B7A0001A43E7E70D290AD807290CD9A1F10803A4
:10B7B000052B08D8DFE803F009231707111D2229FC
:10B7C00023D05C2921D0204604E05C212046FFF7ED
:10B7D0003FFF6221FFF73CFFD1E75C212046FFF7E6
:10B7E00037FF6621F6E75C212046FFF731FF6E2127
:10B7F000F0E75C212046FFF72BFF7221EAE75C218E
:10B800002046FFF725FF7421E4E75C212046FFF77F
:10B810001FFF99F80010DDE72FB12046BDE8F8437F
:10B820002221FFF715BFBDE8F88300BF50FB3F02A0
:10B83000426900EB42031A7E12B100221A76704769
:10B840002C21FFF705BF000037B5044610EE100AA3
:10B85000FEF792FDE56A0246002D0B4608DBCDE9B6
:10B86000002320462A460649FFF742FF03B030BDB9
:10B870002046044903B0BDE83040FFF739BF00BFA0
:10B8800057FB3F025CFB3F024FF0FF330360037145
:10B89000024B836000238381704700BFA0860100B4
:10B8A000F0B50C460546002685B001A800F058F911
:10B8B000A368E1780293237B28468DF80C30A378A7
:10B8C0008DF804608DF8053023882F1DADF8063003
:10B8D00000F063F8E37838462B7401A900F026F9EC
:10B8E000013019D03146384600F004F99DF80C10AB
:10B8F000384600F059F90299384600F060F9607B4B
:10B9000000F0F0F82179A81C00F03CF8287C00F049
:10B91000D7F8304605B0F0BDFF20FBE7F0B506468E
:10B920000A25002485B0071D307C00F0B9F80222FA
:10B9300001A9384600F050F9307C00F0C1F89DF8BC
:10B940000430013D03F01F029DF8053015F0FF059E
:10B9500043EA02231C44A4B2E6D10A23B4FBF3F465
:10B9600007EE904A9FED057AF8EEE77A87EE870AB0
:10B97000DFED037A20EE270A05B0F0BD00F07F4529
:10B980000000044110B50C4621B9007803F0F2FA2A
:10B99000204610BD4FF0FF30FBE7012908B504D168
:10B9A000008803F0E7FA002008BD4FF0FF30FBE706
:10B9B00010B50024054B1C70054B1C6003F032FBD6
:10B9C0002146BDE8104001F083BB00BF2CAE07103C
:10B9D00030AE071008B503F025FB054B196801F0E0
:10B9E00077FB03F01FFB01F077FB002008BD00BFD1
:10B9F00030AE071010B50C46044B196003F012FB73
:10BA0000214601F065FB002010BD00BF30AE0710DD
:10BA1000014B0020197070472CAE071013B50C466F
:10BA2000019203F0FFFA0B4B197801F084FB03F04D
:10BA3000F9FA03682146DB68019A984703F0F2FAA5
:10BA4000012101F07CFB013818BF4FF0FF3002B03C
:10BA500010BD00BF2CAE07102DE9F04115460E4673
:10BA600003F0E0FA0D4901232A46097801F051FB61
:10BA70000027C4B25FFA87F8454507F1010707D9E7
:10BA800003F0D0FA03685B69984706F80800F1E70D
:10BA9000B4FA84F040094042BDE8F0812CAE0710B2
:10BAA00007B50121019003F065FA044B019819785C
:10BAB00003B05DF804EB03F06EBA00BF40AE0710B0
:10BAC00007B50121019003F055FA054B019819784B
:10BAD000B1FA81F1490903B05DF804EB03F05BBAF8
:10BAE00040AE071001289CBF014B1870704700BF83
:10BAF00040AE07100020704713B50A4CD4E88F1FE2
:10BB000011F001010BD120460191FEF7B9FF019917
:10BB100028B1054802F02CFE2046FEF7B6FF024889
:10BB200002B010BD34AE071038AE071008B50121C1
:10BB3000122003F01FFA0121052003F01BFA012156
:10BB4000122003F028FA0121052003F024FAFFF760
:10BB5000D3FFFF22002102F015FE002008BD0000E7
:10BB600010B500240121122003F004FA0121052060
:10BB700003F000FA0121122003F00DFA0121052043
:10BB800003F009FA074B1C70FFF7B6FF214602F0DD
:10BB900010FEFFF7B1FFBDE810404FF47A72642148
:10BBA00002F038BE40AE071007B50191FFF7A4FFC1
:10BBB000019902F0FEFD002003B05DF804FB10B512
:10BBC0000C46FFF799FF0122214602F023FE201ABE
:10BBD00018BF4FF0FF3010BD2DE9F041002514468D
:10BBE000D31D23F0070382B0AC4202AFADEB030DCF
:10BBF00002F1FF320E46D8BF2A4629460DF1090050
:10BC00008DF8085003F055FBFFF776FF02F0E5FDD5
:10BC1000431C0DF108080CD0FFF76EFF2346324697
:10BC20004146009502F028FEFFF766FF02F0D8FDBE
:10BC30002846BD46BDE8F0812DE9F04F87B002AB44
:10BC400001464FF4004210209C4630243125114219
:10BC500000F1FF3014BF1D701C7010F0FF004FEAA0
:10BC6000520203F10103F2D1064607468646834697
:10BC7000034680468146024605461CF805100135FC
:10BC8000312908BF82F00102D4B2C246102D84EAE5
:10BC9000030884EA0B034A46F3463146DBB222D15D
:10BCA0008DF804306946002301228DF807908DF845
:10BCB00006A08DF805808DF803E08DF802708DF8F0
:10BCC00001608DF8004011F8014B0133E40748BFD3
:10BCD0001043DBB248BFC0B25200082B92B2F2D17F
:10BCE00007B0BDE8F08FBE4626460F46D146C4E7F2
:10BCF000642000F049BE4FF6FF73038000234360C9
:10BD000040230372704730B50D46044685B001A844
:10BD1000FFF74EFE6B68204602932B7801A98DF841
:10BD200006306B788DF805302B7A2373FFF752FEBF
:10BD300001300AD0217B2046FFF76AFE2046696861
:10BD4000FFF758FE002005B030BDFF20FBE773B5BC
:10BD50001E46044615468DF8071001220DF1070115
:10BD6000FFF75CFEFFF7C4FF324629462046FFF787
:10BD700073FEFFF7BDFF02B070BD000000000000C1
:10BD800037B50323E32101AAFFF7E1FFBDF8044023
:10BD90009DF8065064BAA4B22046FFF74DFF8542D5
:10BDA0001DD124F0030007EE900AFBEEC87A17EECF
:10BDB000900AFEF7E1FA0DA3D3E90023FEF734FB66
:10BDC000FEF7CCFDFEF7D8FA0AA3D3E90023FEF76D
:10BDD00073F9FEF7C3FD00EE100A03B030BD9FED0E
:10BDE000020AFAE7AFF3008000008047D7A3703D56
:10BDF0000AF76540CDCCCCCCCC6C474037B503239B
:10BE0000E52101AAFFF7A3FFBDF804409DF8065005
:10BE100064BAA4B22046FFF70FFF854201BF24F0A9
:10BE2000030307EE903AB9EE080AFBEEC87A0ABFA0
:10BE30009FED037A9FED030AA7EE870A03B030BD9A
:10BE40000000FA4200008047FE2307B501220DF1F1
:10BE500007018DF80730FFF7E1FD03B05DF804FB43
:10BE600007B50190FFF744FFFFF742FFFFF740FFE0
:10BE7000FFF73EFFFFF73CFF0198FFF7E5FFFFF7F5
:10BE800037FFFFF735FFFFF733FFFFF731FFFFF70E
:10BE90002FFF03B05DF804FB09B504480068044BAC
:10BEA00003441B685B6C029309BD000008AD0710DA
:10BEB0003000000009B504480068044B03441B68C7
:10BEC0009B6C029309BD000008AD07103000000014
:10BED00009B504480068044B03441B68DB6C0293FB
:10BEE00009BD000008AD07103000000009B5044886
:10BEF0000068044B03441B685B6D029309BD00009E
:10BF000008AD07103000000009B504480068044B74
:10BF100003441B685B68029309BD000008AD07106D
:10BF20000000000009B504480068044B03441B6886
:10BF3000DB68029309BD000008AD07100000000097
:10BF400009B504480068044B03441B681B6902934D
:10BF500009BD000008AD07100000000009B5044845
:10BF60000068044B03441B685B69029309BD000031
:10BF700008AD07100000000009B504480068044B34
:10BF800003441B689B6D029309BD000008AD0710B8
:10BF90000000000009B504480068044B03441B6816
:10BFA0005B6E029309BD000008AD071000000000A1
:10BFB00009B504480068044B03441B689B6802935E
:10BFC00009BD000008AD07101400000009B50448C1
:10BFD0000068044B03441B68DB68029309BD000042
:10BFE00008AD07101400000009B504480068044BB0
:10BFF00003441B681B69029309BD000008AD0710CC
:10C000001400000009B504480068044B03441B6891
:10C010005B69029309BD000008AD07101400000021
:10C0200009B504480068044B03441B681B6802936D
:10C0300009BD000008AD07101000000009B5044854
:10C040000068044B03441B68DB68029309BD0000D1
:10C0500008AD07101000000009B504480068044B43
:10C0600003441B689B69029309BD000008AD0710DB
:10C070001000000009B504480068044B03441B6825
:10C08000DB69029309BD000008AD07101000000035
:10C0900009B504480068044B03441B681B6A0293FB
:10C0A00009BD000008AD07101000000009B50448E4
:10C0B0000068044B03441B685B6A029309BD0000DF
:10C0C00008AD07101000000009B504480068044BD3
:10C0D00003441B689B6A029309BD000008AD07106A
:10C0E0001000000009B504480068044B03441B68B5
:10C0F000DB6A029309BD000008AD071010000000C4
:10C1000009B504480068044B03441B681B6B029389
:10C1100009BD000008AD07101000000009B5044873
:10C120000068044B03441B685B6B029309BD00006D
:10C1300008AD07101000000009B504480068044B62
:10C1400003441B681B6C029309BD000008AD071077
:10C150001000000009B504480068044B03441B6844
:10C160001B6D029309BD000008AD07101000000010
:10C1700009B504480068044B03441B685B690293DB
:10C1800009BD000008AD07104C00000009B50448C7
:10C190000068044B03441B689B68029309BD0000C0
:10C1A00008AD07105000000009B504480068044BB2
:10C1B00003441B68DB68029309BD000008AD07104B
:10C1C0005000000009B504480068044B03441B6894
:10C1D000DB68029309BD000008AD071018000000DD
:10C1E00009B504480068044B03441B681B690293AB
:10C1F00009BD000008AD07101800000009B504488B
:10C200000068044B03441B68DB69029309BD00000E
:10C2100008AD07101800000009B504480068044B79
:10C2200003441B681B6A029309BD000008AD071098
:10C230001800000009B504480068044B03441B685B
:10C240005B6A029309BD000008AD071018000000EA
:10C2500009B504480068044B03441B689B6A0293B9
:10C2600009BD000008AD07101800000009B504481A
:10C270000068044B03441B68DB6A029309BD00009D
:10C2800008AD07101800000009B504480068044B09
:10C2900003441B689B6B029309BD000008AD0710A7
:10C2A0001800000009B504480068044B03441B68EB
:10C2B0001B6C029309BD000008AD071018000000B8
:10C2C00009B504480068044B03441B685B6C029387
:10C2D00009BD000008AD07101800000009B50448AA
:10C2E0000068044B03441B689B68029309BD00006F
:10C2F00008AD07102400000009B504480068044B8D
:10C3000003441B68DB68029309BD000008AD0710F9
:10C310002400000009B504480068044B03441B686E
:10C320001B69029309BD000008AD0710240000003E
:10C3300009B504480068044B03441B685B69029319
:10C3400009BD000008AD07102400000009B504482D
:10C350000068044B03441B689B69029309BD0000FD
:10C3600008AD07102400000009B504480068044B1C
:10C3700003441B68DB69029309BD000008AD071088
:10C380002400000009B504480068044B03441B68FE
:10C390001B6A029309BD000008AD071024000000CD
:10C3A00009B504480068044B03441B689B6A029368
:10C3B00009BD000008AD07102400000009B50448BD
:10C3C0000068044B03441B68DB6A029309BD00004C
:10C3D00008AD07102400000009B504480068044BAC
:10C3E00003441B681B6C029309BD000008AD0710D5
:10C3F0002400000009B504480068044B03441B688E
:10C400001B68029309BD000008AD0710340000004E
:10C4100009B504480068044B03441B685B68029339
:10C4200009BD000008AD07103400000009B504483C
:10C430000068044B03441B689B68029309BD00001D
:10C4400008AD07103400000009B504480068044B2B
:10C4500003441B681B69029309BD000008AD071067
:10C460003400000009B504480068044B03441B680D
:10C470005B69029309BD000008AD0710340000009D
:10C4800009B504480068044B03441B689B69029388
:10C4900009BD000008AD07103400000009B50448CC
:10C4A0000068044B03441B68DB69029309BD00006C
:10C4B00008AD07103400000009B504480068044BBB
:10C4C00003441B681B6A029309BD000008AD0710F6
:10C4D0003400000009B504480068044B03441B689D
:10C4E0005B6B029309BD000008AD07104800000017
:10C4F00009B504480068044B03441B685B6D029354
:10C5000009BD000008AD07104800000009B5044847
:10C510000068044B03441B68DB6E029309BD0000F6
:10C5200008AD07104800000009B504480068044B36
:10C5300003441B681B6F029309BD000008AD071080
:10C540004800000009B504480068044B03441B6818
:10C550001B68029309BD000008AD07100800000029
:10C5600009B504480068044B03441B685B680293E8
:10C5700009BD000008AD07100800000009B5044817
:10C580000068044B03441B685B69029309BD00000B
:10C5900008AD07100800000009B504480068044B06
:10C5A00003441B68DB6A029309BD000008AD071055
:10C5B0000800000009B504480068044B03441B68E8
:10C5C000DB6C029309BD000008AD071008000000F5
:10C5D00009B504480068044B03441B685B6D029373
:10C5E00009BD000008AD07100800000009B50448A7
:10C5F0000068044B03441B689B6D029309BD000057
:10C6000008AD07100800000009B504480068044B95
:10C6100003441B68D3F88830029309BD08AD0710A6
:10C620000800000009B504480068044B03441B6877
:10C63000D3F89430029309BD08AD0710080000003C
:10C6400009B504480068044B03441B685B68029307
:10C6500009BD000008AD07102C00000009B5044812
:10C660000068044B03441B689B68029309BD0000EB
:10C6700008AD07102C00000009B504480068044B01
:10C6800003441B68DB68029309BD000008AD071076
:10C690002C00000009B504480068044B03441B68E3
:10C6A0005B69029309BD000008AD07102C00000073
:10C6B00009B504480068044B03441B681B6A0293D5
:10C6C00009BD000008AD07102C00000009B50448A2
:10C6D0000068044B03441B681B6B029309BD0000F8
:10C6E00008AD07102C00000009B504480068044B91
:10C6F00003441B68DB6B029309BD000008AD071003
:10C700002C00000009B504480068044B03441B6872
:10C710005B68029309BD000008AD07102800000007
:10C7200009B504480068044B03441B689B680293E6
:10C7300009BD000008AD07102800000009B5044835
:10C740000068044B03441B68DB68029309BD0000CA
:10C7500008AD07102800000009B504480068044B24
:10C7600003441B681B69029309BD000008AD071054
:10C770002800000009B504480068044B03441B6806
:10C780005B69029309BD000008AD07102800000096
:10C7900009B504480068044B03441B689B69029375
:10C7A00009BD000008AD07102800000009B50448C5
:10C7B0000068044B03441B68DB69029309BD000059
:10C7C00008AD07102800000009B504480068044BB4
:10C7D00003441B681B6A029309BD000008AD0710E3
:10C7E0002800000009B504480068044B03441B6896
:10C7F0001B6B029309BD000008AD07102800000064
:10C8000009B504480068044B03441B685B6B029342
:10C8100009BD000008AD07102800000009B5044854
:10C820000068044B03441B681B6C029309BD0000A5
:10C8300008AD07102800000009B504480068044B43
:10C8400003441B685B6C029309BD000008AD071030
:10C850002800000009B504480068044B03441B6825
:10C860001B68029309BD000008AD0710040000001A
:10C8700009B504480068044B03441B685B680293D5
:10C8800009BD000008AD07100400000009B5044808
:10C890000068044B03441B689B68029309BD0000B9
:10C8A00008AD07100400000009B504480068044BF7
:10C8B00003441B681B69029309BD000008AD071003
:10C8C0000400000009B504480068044B03441B68D9
:10C8D0005B6A029309BD000008AD07100400000068
:10C8E00009B504480068044B03441B68DB6A0293E3
:10C8F00009BD000008AD07100400000009B5044898
:10C900000068044B03441B681B6B029309BD0000C5
:10C9100008AD07100400000009B504480068044B86
:10C9200003441B68DB6B029309BD000008AD0710D0
:10C930000400000009B504480068044B03441B6868
:10C940001B6C029309BD000008AD07100400000035
:10C9500009B504480068044B03441B685B6C0293F0
:10C9600009BD000008AD07100400000009B5044827
:10C970000068044B03441B68DB6C029309BD000094
:10C9800008AD0710040000000021FFF7F7BD10B547
:10C99000836804460BB902F02DFCC3689847A3686E
:10C9A0001BB103222146204698472046BDE810408F
:10C9B0001021FEF756B810B58368044613B1032260
:10C9C00001469847204610BD10B543680446013B18
:10C9D000436063B903689B689847A368013BA36001
:10C9E0002BB923682046BDE81040DB68184710BD0E
:10C9F00070B50446D0E9005305EB0316AE4204D0EF
:10CA0000284601F04CFF1035F8E72068FFF730FFAB
:10CA1000204670BD13B56C460B460246D0E90001B6
:10CA200084E8030093E8030082E8030094E803002D
:10CA300083E8030002B010BD002302480360FFF743
:10CA40002BBA00BF44AE071070470020704710B5E6
:10CA500004461021FEF705F8204610BD08B5FFF783
:10CA6000F6FF08BD002230B54FF69C74026084804A
:10CA70008D888C800C68858004600A6030BD10B59C
:10CA800004460068FFF7F4FE204610BD38B5C468C0
:10CA900014B32378DBB2022B03D104F10C00FFF7AF
:10CAA000EEFF231D1D6835B12846FFF784FF1021D6
:10CAB0002846FDF7D6FF04F108031D6835B1284666
:10CAC000FFF779FF10212846FDF7CBFF2046BDE890
:10CAD00038401421FDF7C5BF38BD10B588B00446F5
:10CAE000684601F027FF694604A801F06FFF04A81B
:10CAF000A047044604A801F0D2FE684601F0CFFE2C
:10CB0000204608B010BD1FB500231024CDE9020156
:10CB1000019269461A461846ADF80230ADF8004059
:10CB2000FFF78EFD04B010BD0B6803604B684360D7
:10CB300013B15A6801325A60704737B504466846E7
:10CB40000D46FFF7F1FF009B019A2360002362600E
:10CB500001A801930093FEF79FF835B1281DFEF759
:10CB60009BF808212846FDF77CFF204603B030BD26
:10CB7000826810B50AB902F03DFBC368BDE81040F9
:10CB8000184708B5006800F11001FFF7F1FF08BD74
:10CB9000826810B50AB902F02DFBC368BDE81040E9
:10CBA000184708B5006800F11001FFF7F1FF08BD54
:10CBB00038B500230446036010200D46FDF74DFFF5
:10CBC00028B10123C0E90133024BC5600360206036
:10CBD000204638BD88FB3F0238B5002383608B6850
:10CBE00004460D462BB102229847EB68E360AB6820
:10CBF000A360204638BD0000F0B589B004686846DF
:10CC0000FFF730FF4FF00203D4E84F2F002A03D183
:10CC1000C4E8413F0029F7D121D104F10C05694650
:10CC20002846FFF71FFF0122631CC3E88F2F002057
:10CC300004F10803D3E8EF6FC3E8E20F002AF9D14B
:10CC40006EB1FFF7B7FC78B129463046FFF790FF89
:10CC50003046FFF7B0FE10213046FDF702FF684670
:10CC6000FFF70DFF09B0F0BD314602A8FFF7B4FF92
:10CC7000E068B4F9105008B102F072FB0690102081
:10CC8000ADF81C50FDF7E9FE0546E8B100278760C6
:10CC90001820FDF7E2FE044688B10146876002A82D
:10CCA000FFF7B8FE049BA268A360059B0492E268AC
:10CCB00006A9E36004F110000592FFF7D3FE084BCC
:10CCC0002C60EB60074BAB6006A8FFF7D8FE02A80C
:10CCD000FFF771FE002229460348FFF779FCB7E70A
:10CCE00053CE3F02CDD03F025FCC3F022DE9F04F43
:10CCF0008BB005460F46904699469DF850A0FFF729
:10CD0000C9FC07AE834638BB4FF62E73059005A9C4
:10CD10003046ADF81830FFF7A5FE1420FDF79DFE54
:10CD2000044648B1022303700123C0E901BB4370EC
:10CD300031460C30FFF796FE2846214640F8044B5A
:10CD4000FFF736FF3046FFF79AFE05A8FFF797FE7C
:10CD500028460BB0BDE8F08F0C2300241420CDE949
:10CD600008440793FDF779FE014618B1C0E9014474
:10CD70000470447004A80391FFF71AFF1E4B0820AB
:10CD80000893FDF76AFE044610B103A9FFF7CCFE35
:10CD90004A464146384600965FFA8AF30994FFF7FF
:10CDA00087FCB8B9039B01331B78DBB293B90593B9
:10CDB0004FF69C7305A903A8ADF81830FFF71CFFC8
:10CDC00005A8FFF75CFE05A80999FFF7B6FE06A8BF
:10CDD000FDF762FF03A905A8FFF7A6FE059B069ACB
:10CDE0002B6000236A6006A806930593FDF754FFA5
:10CDF00004A8FDF751FFABE749D13F02012AF8B57E
:10CE0000054603D10B6803600020F8BD022A10D04C
:10CE1000032AF9D10468002CF6D004F11000FFF7C2
:10CE20002EFE2046FFF7C7FD18212046FDF719FE0C
:10CE3000EAE718200E68FDF710FE044650B13146AF
:10CE4000FFF7CAFE3069B6F9147008B102F088FA2B
:10CE50002061A7822C60D7E738B5002383608B68F8
:10CE600004460D462BB102229847EB68E360AB689D
:10CE7000A360204638BD0000F0B5044689B00D46D9
:10CE800001A81146FFF759FEA4B124B21DB12846EE
:10CE900002F066FA054601A803A90395ADF8104013
:10CEA000FFF7AAFE03A8FFF7EAFD02A8FDF7F4FECC
:10CEB00009B0F0BD0123019DD5E84F2F002A03D111
:10CEC000C5E8413F0029F7D1EFD12B730122EB18C0
:10CED000C3E88F2F2B1DD3E8EF6FC3E8E24F002A82
:10CEE000F9D1002EE1D02046FFF764FB074660B180
:10CEF000304605F10C01FFF74BFE3046FFF75BFDB6
:10CF000010213046FDF7ADFDCFE7314603A8FFF70E
:10CF1000A3FF2B7B10208DF81C30FDF79EFD0546EE
:10CF2000D0B187601420FDF798FD044678B1014622
:10CF3000876003A8FFF76EFD059BA268A360069BB0
:10CF40000592E268E3609DF81C3006922374074B5B
:10CF50002C60EB60064BAB6003A8FFF72CFD0022B2
:10CF600029460448FFF734FBC7E700BF73CE3F02F2
:10CF700049D23F025FCC3F02012A70B5044603D17B
:10CF80000B680360002070BD022A0CD0032AF9D17F
:10CF90000468002CF6D02046FFF70DFD1421204632
:10CFA000FDF75FFDEEE714200E68FDF756FD054620
:10CFB00020B13146FFF750FF337C2B742560E1E749
:10CFC000002240681146FFF7FFBB0022406811466F
:10CFD000FFF716BC00224068FFF704BC002240683F
:10CFE00081F00101FFF7E2BB002340681A461946B1
:10CFF000FFF7CEBB002340681A461946FFF7BABBBD
:10D00000002240681146FFF7A7BB00224068114686
:10D01000FFF786BB002202214068FFF78FBB002389
:10D0200040681A46FFF76EBB0322024B5A60024A61
:10D030001A60704748AE0710A4FB3F027047F8B56E
:10D04000064615460C468F18BC4206D0336830465B
:10D050009B6814F8011B9847F6E72846F8BD0022A4
:10D06000007CFFF715B80021007CFFF71FB80021F6
:10D07000007CFFF729B80021007CFFF733B80021BE
:10D08000007CFFF73DB810B504461421FDF7E9FC1C
:10D09000204610BD38B5044615464FF47A73002279
:10D0A000C4E90123094B0846217423602946FFF790
:10D0B00043F8BF3008D16B69DB0705D56868FFF717
:10D0C000D7FBE868FFF7D4FB204638BDE0FB3F0202
:10D0D0000022007CFEF7A4BF0023007C1A461946FC
:10D0E000FEF7ACBF7FB500221423CDE90122ADF8D5
:10D0F00004300B78007C8DF808304B680393CB68C4
:10D1000004930B7A01A90593FFF724F807B05DF8A3
:10D1100004FB1FB5003B8DF800104FF0640118BFF1
:10D1200001230391694601928DF80830FFF7DAFF79
:10D1300005B05DF804FB0022007CFEF78DBF0022E5
:10D14000007CFEF797BF704710B504461821FDF725
:10D1500088FC204610BDF0B5037D0E46062B4FF02F
:10D1600000048DB000F1040712D000F1080515F895
:10D17000011D0A22304601F0D0FAAF42044419D012
:10D18000002CF4D02E21304601F0C4FA0444EEE71E
:10D190002F236A4639460A208DF80040FEF7E8FF43
:10D1A0006846FDF735FC3368024669463046DB6861
:10D1B0009847044620460DB0F0BD000010B5044667
:10D1C000044B1122002140F8043B02F072F8204683
:10D1D00010BD00BF08FC3F020346074A10B543F8E4
:10D1E000042B01F1100251F8044B914243F8044B17
:10D1F000F9D10A781A7010BD08FC3F0210B59DF8ED
:10D20000084044EA032343EA0242042342EA01615C
:10D210004160037510BD000007B5064B0360CB7875
:10D2200000938B784A780978FFF7E8FF03B05DF840
:10D2300004FB00BF08FC3F02012200F1100313F8B9
:10D24000101C1846012908D153F8041C02EB4102B6
:10D25000013A03F11003F2D17047022904BF53F8D9
:10D26000041C5218F4E70EB4F0B588B0102100AFDA
:10D2700007F1340555F8042B04462B4678187A60DC
:10D28000FD60FFF71FFB0F287A681AD900F1080329
:10D2900023F007036E46ADEB030D411C2B46684699
:10D2A000FD60FFF70FFB021E04DD23686946204680
:10D2B0009B689847B5462037BD46BDE8F04003B0AF
:10D2C00070470028F7D0236802469B68204607F184
:10D2D00010019847EFE738B50B68044603604D68C6
:10D2E00043689D4208D015B16B6801336B6060687C
:10D2F00008B1FFF769FB656038BD07B503688DF8B5
:10D30000071001229B680DF10701984703B05DF8F3
:10D3100004FB0B461146002210B50446C0E900226A
:10D3200083600BB9204610BDFFF7D5FFFAE783688D
:10D33000EBB11A78032A1AD8DFE802F00417021BAF
:10D340000520704702685B685268D05C2D2812D0B7
:10D35000A0F13003092B0ED974280ED066280CD00A
:10D36000A0F16E03584258417047062070470020D4
:10D37000704704207047032070470220704710B5A3
:10D380000446FFF7D4FF02280ED0C31EDBB2012BE8
:10D3900014D82268A36850685B680A22BDE8104070
:10D3A0000021184402F0A4B82268A36852685B68A0
:10D3B000D05CA0F174035842584110BD0020FCE736
:10D3C00038B500230446C0E900330E48C4E902031F
:10D3D000A9B10B78032B06D08BB9136858684B683A
:10D3E000C35C6E2B07D013684D6858688B6828445F
:10D3F0005B1BA060E36011462046FFF76CFF2046F0
:10D4000038BD00BF77FC3F0238B500250B46044607
:10D410001146C0E90055C0E90255C0E904554BB1B9
:10D420001A78012A06D103F11002DB688260436199
:10D43000FFF751FF204638BD10B54369044663B17C
:10D440008068013BE0601030A0602061636113B12F
:10D45000FFF7F2FEA060012000E0184610BD10B5F5
:10D460007D210446FFF749FF01232046237110BDAB
:10D4700008B50379012B02D0022B04D008BD2C2162
:10D48000FFF73BFFFAE73A21FAE710B50446FFF74A
:10D49000EFFF20467B21FFF730FF0023204623715A
:10D4A00010BD000013B504460191FFF7E1FF2368AA
:10D4B0002046DB68019A03499847012320462371DF
:10D4C00002B010BDFEF83F0213B504460191FFF70C
:10D4D000CFFF23682046DB68019A03499847012360
:10D4E0002046237102B010BD14FC3F022DE9F04725
:10D4F0000D469046222104462F46FFF7FEFEDFF838
:10D50000A490A8444745BA463DD017F8016B222E97
:10D5100006D05C2E04D0304601F09CFE0028F1D1EC
:10D520002368294620469B68AAEB050298475C21A0
:10D530002046FFF7E2FE0D2E0AD8072E1CD9A6F1D1
:10D540000803052B18D8DFE803F00D0F111713158A
:10D55000222E01D05C2E0FD131462046FFF7CDFEA2
:10D560003D46CFE76221F8E77421F6E76E21F4E744
:10D570006621F2E77221F0E72368324649462046E9
:10D58000DB689847ECE7BD4205D023682946204672
:10D590009B687A1B984722212046FFF7AEFEBDE824
:10D5A000F08700BF17FC3F0213B50446CDE9002108
:10D5B000FFF75EFFDDE900212046FFF797FF02231A
:10D5C0002046237102B010BD13B50446CDE90021F9
:10D5D000FFF74EFFDDE900212046FFF787FF01231B
:10D5E0002046237102B010BD80680368DB681847CD
:10D5F0007047084611B10B685B6818477047704761
:10D6000070477047704738B504460D4600682E21B4
:10D6100001F093FE2368C31A2B6023B1037803B192
:10D62000013023682060184638BD10B504460C212F
:10D63000FDF717FA204610BD10B504460421FDF78A
:10D6400010FA204610BD10B504460421FDF709FA72
:10D65000204610BDFEF73CBC08B5FDF7CFF9B0FA87
:10D6600080F0400908BD704710B50C4601F010FB72
:10D67000844205D101F00CFBBDE8104001F0FCBA7A
:10D6800001F024FD844205D101F020FDBDE81040E9
:10D6900001F095BA2CB123682046BDE810405B68C4
:10D6A000184710BD0B6803604B68436013B15A689C
:10D6B00001325A60704713B5044608460191FDF7E0
:10D6C000A7F902462046019902B0BDE81040FFF7D5
:10D6D0007BBF13B5044608460191FDF799F9024650
:10D6E000204623680199DB6802B0BDE81040184766
:10D6F00007B503688DF807100122DB680DF10701FB
:10D70000984703B05DF804FB0A6810B502604A68E8
:10D7100042600022C0E9022202618C688A60846053
:10D72000CC68CA60C4600C690A61046110BD000065
:10D730002DE9F74F4FF0140AD0E90084174645460B
:10D740000AFB04F40093174BA4105C43002C21DD6A
:10D7500066100AFB06F005EB0009B9F804B03A467A
:10D760005F4528BF5A462858019101F016FE00284F
:10D770004FF0010301990BD15F4503D1009A13705B
:10D780003446E3E7FCD9A61B09F11405013EF7E78F
:10D79000F9DBF5E7A5EB08050248AD10684303B0D7
:10D7A000BDE8F08FCDCCCCCC7FB50369057E01916F
:10D7B00003B3F9B1002600F10C04039603A901A8F4
:10D7C000FFF721FF0146A8B10DF10B032046039A94
:10D7D0008DF80B60FFF7ACFF9DF80B3053B1236859
:10D7E000142404FB0034B4F906300834002BA8BF1D
:10D7F000DDB2E3E7284604B070BD0EB4F0B58CB0DE
:10D8000000AF07F1440555F8042B04462B462021B0
:10D8100007F110007A60FD60FFF754F81F287A685E
:10D820001AD900F1080323F007036E46ADEB030D90
:10D83000411C2B466846FD60FFF744F8021E04DDDC
:10D84000236869462046DB689847B5463037BD46B1
:10D85000BDE8F04003B070470028F7D023680246C7
:10D86000DB68204607F110019847EFE710B5084C38
:10D87000D4E88F3FDB0709D42046FDF701F928B132
:10D880002046FDF702F9034801F0DEFC024810BD16
:10D8900054AE0710CFD83F020CAD071010B5084C9E
:10D8A000D4E88F3FDB0709D42046FDF7E9F828B11B
:10D8B0002046FDF7EAF8034801F0C6FC024810BD17
:10D8C00058AE071037D93F0210AD071038B5002504
:10D8D0000446C0E90055C0E904558560856140F8FB
:10D8E000245FFEF7D9FAFFF7C1FFE061FFF7D6FF2B
:10D8F00025732062204638BD10B50A4CD4E88F3F0E
:10D90000DB070CD42046FDF7BBF840B10648FFF713
:10D91000DDFF2046FDF7B9F8044801F095FC024808
:10D9200010BD00BF50AE071060AE071019E13F02F6
:10D930000023024A02490348FEF7F6BD01DF3F0219
:10D940008DDE3F020DDE3F0200231A4619461846BF
:10D95000FEF7EABD37B504468D686846FFF7A2FEBC
:10D960006A4629462046FFF74FFD01A8FDF794F9C6
:10D97000204603B030BD37B50446CD686846FFF792
:10D9800091FE6A4629462046FFF71AFD01A8FDF7D9
:10D9900083F9204603B030BD37B504460D696846AB
:10D9A000FFF780FE6A4629462046FFF7B2FC01A831
:10D9B000FDF772F9204603B030BD000070B58AB0A3
:10D9C0000D46014604A8FFF7C5FF144E04A8FFF753
:10D9D00033FDE8B1684604A9FFF7CDFF3146029850
:10D9E000FFF73AFE044610B12C1E18BF012401A80F
:10D9F000FDF752F9002CE9D0684604A9FFF7CCFFE7
:10DA00006846FFF7BCFC286001A8FDF745F9DDE793
:10DA100005A8FDF741F90AB070BD00BF1DFC3F022B
:10DA200037B50C46134920461546FCF7E7FF50B9B9
:10DA300001F02EF94FF4165101F01AF903B0BDE8C8
:10DA4000304001F025B920460B49FCF7D7FF78B9E3
:10DA50004FF4165301A928460193FFF7AFFF01F0D9
:10DA600035FB019901F0A8F801F030FB03B030BD9F
:10DA70000020FBE722FC3F0229FC3F0270B5142680
:10DA8000D0E90053044606FB0356AE4205D005F12B
:10DA90000800FFF7F3FF1435F7E72068FEF7E8FE0C
:10DAA000204670BD10B504460C30FFF7E7FF204656
:10DAB000FEF79EFF204610BD10B50446034B40F80C
:10DAC000043BFFF7EFFF204610BD00BF18FB3F02ED
:10DAD00010B50446FFF7F0FF20462421FCF7C1FFF4
:10DAE000204610BD10B50446024B0360FFF7E4FF6B
:10DAF000204610BDC4FC3F0210B50446FFF7F2FFFC
:10DB000020462421FCF7ADFF204610BD0022C0E9CD
:10DB10000022826010B50C680A6004604C684A609C
:10DB200044608C688A60846010BD10B50446036848
:10DB30001868FEF7DBF9204610BD00002DE9F04F14
:10DB400087B003931C4B80465B688946C3F3080388
:10DB500016466BB9FFF7D0FE044600F12403406A75
:10DB60000593FFF777FD237B2BB105A8FFF7DDFFBA
:10DB700007B0BDE8F08F01235FFA89F92373D4E978
:10DB8000005305EB830AAA4512D055F8047B3146B1
:10DB9000381DFFF709FE8145F5D3039A3B680092D3
:10DBA000D3F808B04A46334641463846D847EAE7F4
:10DBB00000232373D9E700BF00ED00E02DE9F74F04
:10DBC0009B461A4B80465B688946C3F3080316469A
:10DBD0006BB9FFF791FE044600F12403406A0193FC
:10DBE000FFF738FD237B2BB101A8FFF79EFF03B0A1
:10DBF000BDE8F08F0123F6B22373D4E9005305EB9F
:10DC0000830A55450ED055F8047B5946381DFFF759
:10DC1000CBFD8642F5D33B684A4641463846DB6831
:10DC20009847EEE700232373DEE700BF00ED00E036
:10DC30002DE9F341164B05465B680F46C3F3080315
:10DC40001BBBFFF759FE044600F12403406A019311
:10DC5000FFF700FDD4E90063462406EB8308B045D6
:10DC600009D101A8FFF761FFA542B4BF0020012040
:10DC700002B0BDE8F08156F8040B39460430FFF7D6
:10DC800093FD8442A8BF0446E9E70020F0E700BF07
:10DC900000ED00E0F8B5D0E901539D4204460E4680
:10DCA0000DDB6F1C002F006804DDB900FEF7EEFDF0
:10DCB00018B9F8BDFEF7DCFD00202060A7602768DA
:10DCC000626807EB85019200A2EB8502081D01F056
:10DCD000D6FA47F825606368012001336360E8E7FE
:10DCE00037B5044600F12403406A01930D46FFF75F
:10DCF000B1FCD4E9003203EB8202934219460AD008
:10DD000009680433A942F8D101A8FFF70EFF0025E6
:10DD1000284603B030BD29462046FFF7BBFF054625
:10DD20000028F1D06368012B01D1FFF701FE01A8A3
:10DD3000FFF7FBFEECE70B4670B50446D0E90002A6
:10DD400000EB820282420FD001461D6851F8046B3D
:10DD5000AE4207D1521A01F092FA01206368013BEA
:10DD6000636070BD0846EDE70020FAE71FB5044682
:10DD700000F12403406A01910393FFF76BFC2046F6
:10DD800001A9FFF7D8FF18B163680BB9FFF7DCFDF5
:10DD900003A8FFF7CAFE04B010BD182370B50446EF
:10DDA000D0E9045603FB0656AE4215D0204605F1D5
:10DDB0001001FFF7C0FF63680BB9FFF7C5FDE0690D
:10DDC00029690368DB689847696919B1206A0368A3
:10DDD000DB6898471835E7E71826D4E9045306FBB3
:10DDE0000356AE4204D0284600F059FD1835F8E736
:10DDF0000023636170BD73B50446FFF7A5FD04F110
:10DE00002403606A0193FFF725FC2046FFF7C5FF56
:10DE100001A8FFF78AFE606A08B1FEF74BF8D4E963
:10DE20000453182606FB0356AE4204D0284600F0E1
:10DE300036FD1835F8E72069FEF71AFD2068FEF771
:10DE400017FD204602B070BD0148FFF7D4BF00BFE8
:10DE500060AE07108842F8B504460D46164615D93F
:10DE6000904214D2A2F11406751AA1F114072C44A1
:10DE7000B7421AD01CB131462046FFF745FC06F1E7
:10DE80000800FFF7FBFD143E143CF1E70DD0B5424E
:10DE90000BD01CB129462046FFF736FC05F10800DF
:10DEA000FFF7ECFD14351434F1E7F8BD8842F8B5FE
:10DEB00004460D46164614D9904213D2A2F110061C
:10DEC000751AA1F110072C44B74218D01CB1314685
:10DED000204600F061FD304600F0E1FC103E103CB1
:10DEE000F2E70CD0B5420AD01CB12946204600F01A
:10DEF00053FD284600F0D3FC10351034F2E7F8BD8E
:10DF000070B50E1E054611DD3001FEF7A3FC044678
:10DF100058B1D5E9001201EB0212FFF7C7FF2868DC
:10DF2000FEF7A6FC01202C60AE6070BD0024F6E771
:10DF30002DE9F04F90460023462295B00391D8F882
:10DF4000041004469942C0E90033C0E90233C0E935
:10DF50000433CDE9083302760A9323DCD8E900576D
:10DF6000142303FB0757AF423BD029460BA800F010
:10DF700013FD0BA90FA8099E00F00EFDDDE90913A2
:10DF800099421BDA089B099A03EB0616314603EB0C
:10DF9000021206F11000FFF789FFEEB9099B013369
:10DFA000099311E008A8FFF7ABFF0028D6D108A815
:10DFB000FEF71EFD204615B0BDE8F08F013108A820
:10DFC000FFF79EFF0028DDD10FA800F068FC0BA82A
:10DFD00000F065FC1435C6E730460FA900F0DCFC04
:10DFE000DCE700264FF01409CDE90B660D96DDE95C
:10DFF00008239E427CDA3301D35806930BB90136CD
:10E00000F5E70023079309FB06F30BAD029307A97D
:10E0100006A8FFF7F8FA82460028F0D04FF0000378
:10E0200001468DF817302846079A0DF11703FFF7C0
:10E030007FFB9DF817700190002F4AD1BDF81C306E
:10E04000CDE91177ADF840304FF6FF73CDF83CA025
:10E05000ADF842301397D5E90132934217DB03F153
:10E06000010ABAF1000F30DD09FB0AF0FEF7F2FBFE
:10E07000834660B3D5E9001209FB0212FFF7EAFEFE
:10E080002868FEF7F5FBC5F800B0C5F808A02B68B6
:10E09000019A09FB023A6A68514609FB02320AF109
:10E0A0001400FFF7D7FEBAF1000F03D050460FA9B6
:10E0B000FFF72AFB6B6801336B6011A8FFF7DEFCEA
:10E0C0003FB10BA8FFF7DAFC71E7BB46D8E70127A1
:10E0D000F3E7019B2D6809FB0355069B1B782BB9C1
:10E0E000D8F80030029A13441B7CEB8008358EE789
:10E0F0002168226062686360A36809920A9A0A93A1
:10E10000E368A2600B9A0B932369E2600C9A0C936C
:10E11000636922610D9A0D93039B089162612376D6
:10E12000CFE70000F0B504462646174687B00D46F7
:10E1300068461946FDF709F90B4B694646F8043B5A
:10E1400003A8FDF702F9394603AA3046FFF7F0FEAF
:10E1500003A8FCF7B7FD6846FCF7B4FD2046034B67
:10E160002562236007B0F0BD18FB3F02ACFC3F0204
:10E17000F0B50F4685B038461C4916461D460A9C28
:10E18000FCF73CFCC0B9A4B1294601A8FFF7BEFCCE
:10E190002420174901F02AF8054630B101AB324678
:10E1A0002146FFF7BFFF134B2B6001A8FCF78AFD48
:10E1B0002C46204605B0F0BD38460F49FCF71EFC42
:10E1C00090B9002CF5D0294601A8FFF79FFC242028
:10E1D000074901F00BF805460028E6D032462146F3
:10E1E00001ABFFF79FFFE0E70024E2E731FC3F02CD
:10E1F00000FE3F02C4FC3F0235FC3F02014B024AD5
:10E200001A6070475CAE071046FC3F022DE9F047EC
:10E21000089DD0F8209004460E461746984600F018
:10E2200037FD81454DD02B79190704D520466A6901
:10E230005449FFF7E2FAB8F1000F0DD05B212046F8
:10E24000FFF756FA41462046FFF743FA23680222B9
:10E250002046DB684C4998472B79DA0724D5D5F856
:10E2600008802F21404601F0ACF808B100F1010808
:10E2700041462046FFF72DFA2B799B0708D53A2116
:10E280002046FFF735FA2046EA684049FFF7B5FA1D
:10E290002A79236812F0040F20464FF00202DB684F
:10E2A00014BF3B493B4998472B7958071DD529692D
:10E2B0000B461A4613F8010B60B1202808D1194605
:10E2C000F7E7354800F083F90028ACD0BDE8F087C7
:10E2D0002828EED12368521A2046DB689847236825
:10E2E00004222046DB682D49984700213846FEF776
:10E2F0000DF901462046FFF7ECF92368022220467B
:10E30000DB68244998471EB131462046FFF7E1F902
:10E310002B7913F0300F2CD023682149DB680222BF
:10E32000204698472B79D9060AD52368072220462C
:10E330001C49DB6898472046AA691B49FFF75DFA2C
:10E340002B799A0611D5DB0605D5236802222046D3
:10E35000DB680F4998472368204614490A22DB6886
:10E3600098472046E969FFF7B4F95D212046FFF799
:10E37000BFF923682046BDE8F0470222DB680C495C
:10E38000184700BF4AFC3F0251FC3F02FEF83F0223
:10E3900054FC3F0259FC3F0288AE071057FC3F0275
:10E3A0005CFC3F025FFC3F0267FC3F026AFC3F02ED
:10E3B00075FC3F022DE9F0410446076A0D461646FA
:10E3C00000F066FC874207D0206A3246036829467F
:10E3D000BDE8F041DB681847034800F0F8F8002872
:10E3E000F2D0BDE8F08100BF88AE07102DE9F04300
:10E3F00085B0D0F8209005460F4690461E460C9CEE
:10E4000000F046FC814505D1494800F0E0F80028BD
:10E4100040F08A804FF000092B6A464A01A8019219
:10E4200003938DF80890FFF730F849464046FEF711
:10E430006DF880464049012201A8FFF7B5F8414632
:10E44000FFF739F93FB13D49012201A8FFF7ACF8C8
:10E450003946FFF730F93EB13949012201A8FFF7EB
:10E46000A3F83146FFF727F92379DF070ED5A66811
:10E470002F21304600F0A5FF00B1461C3149012292
:10E4800001A8FFF791F83146FFF715F923799E07A8
:10E4900007D52D49022201A8FFF786F8E168FFF7AA
:10E4A00001F82379580714D5266933461F4613F817
:10E4B000012B2AB1202A01D11E46F7E7282AF5D1DF
:10E4C0000222224901A8FFF76FF83146BA1BFFF775
:10E4D0007BF82379190707D51D49012201A8FFF709
:10E4E00063F86169FEF7F0FF2379DA0608D50422A4
:10E4F00018490DEB0200FFF757F8A169FEF7D2FFAC
:10E5000023799B0607D51449062201A8FFF74CF88A
:10E51000E169FFF7D0F801A8FEF7A1FF286A0222FF
:10E5200003680E49DB68984705B0BDE8F08300BF7B
:10E5300088AE071094FC3F0227FC3F0278FC3F02A4
:10E54000C8FE3F025DFB3F027AFC3F027DFC3F02BA
:10E550000EFB3F0280FC3F0285FC3F0275FC3F0240
:10E56000002340681A46FEF7CDB800220221406819
:10E57000FEF7E4B8002240681146FEF7D1B8002249
:10E5800040681146FEF7E8B8002340681A4619466D
:10E59000FEF7F0B8002340681A461946FEF7F8B8AF
:10E5A00000214068FEF73AB900214068FEF744B9FF
:10E5B0000022406881F00101FEF7F8B800224068AF
:10E5C000FEF710B9002240681146FEF719B9002283
:10E5D00040681146FEF7F8B82DE9F04395B01446AF
:10E5E0000D460746FEF7EAFD00211C220DA800910A
:10E5F00000F05FFE402320460C9300216B460CAADE
:10E60000FDF7D2FD044600284BD10246012168687F
:10E61000FEF7A2F80221804622466868FEF79CF8C1
:10E6200021468146009E002E3BD0002939D17368D7
:10E63000022B03D00A2B11D0F669F4E7B8F1000FD2
:10E64000FAD0716906A804313C1D07ADFEF7E4FD60
:10E650000FCD0FC42B6841462370EDE7B9F1000FD1
:10E66000EAD0102201A8746900F023FE062301AD50
:10E670008DF8143004F1080318342A4618685968D4
:10E68000083303C2A3421546F7D101A906A83C1DD1
:10E6900007ADFEF7A1FD0FCD0FC42B6849462370CF
:10E6A000CAE70098FDF772FD384615B0BDE8F08363
:10E6B000024B034A1A6000225A60704788AE071066
:10E6C0000CFD3F02F8B506460D4600248F18BD42EA
:10E6D0000CD0336830469B6815F8011B9847031E21
:10E6E00001DB1C44F3E7002C08BF1C462046F8BDA4
:10E6F00013B50446084659B10191FCF789F9024661
:10E70000204623680199DB6802B0BDE81040184735
:10E7100002B010BD03689B6818470023012A98BF08
:10E720000A2230B58BB08DF8243009AC0D46B1FB10
:10E73000F2F101FB125303F0FF03092B94BF3033B6
:10E740003733DBB2AA4204F8013DEFD92146FFF787
:10E75000CFFF0BB030BD00000022014B9A60704724
:10E7600090AE07100021FDF7ABBD0021FDF79ABD6B
:10E7700010B5044608462170FDF740FD00232046F1
:10E78000636010BD13B504460078CDE90021FFF7A2
:10E79000ECFFDDE90021034648B920780090FDF741
:10E7A00065FD009802B0BDE81040FFF7DBBF02B086
:10E7B00010BD13B5044600780191FFF7D6FF01990B
:10E7C00048B920780190FDF7FDFC019802B0BDE842
:10E7D0001040FFF7C7BF02B010BD0078FFF7C5BFFC
:10E7E0000078FFF7BFBF000030B500244008186074
:10E7F0001868E5B2884206D90134082C02D04008D6
:10E800001860F5E70725024B5B5D137030BD00BF54
:10E8100040FD3F0200232DE9F041044688B0007816
:10E820000E4617460293FFF7A0FF054600BB0146C0
:10E83000142203A894F8008000F03BFD0B232A4625
:10E84000404603A9ADF80C30FDF7F4FC07FB06F1D8
:10E85000049802AB0DF107028DF80750FFF7C4FFD3
:10E8600020789DF80710FDF7BBFC2078FFF77AFFB2
:10E87000029808B0BDE8F08130B587B00A9D044623
:10E8800000950078FDF7E4FC3DB9207802A9FDF77A
:10E89000FBFC9DF81430DB07F7D407B030BD10B592
:10E8A00004460068FDF7E4FF204610BD10B504469D
:10E8B000006808B1FDF7DCFF0023C4E901332360E1
:10E8C00010BD38B504460D4600680131FDF7DEFF86
:10E8D00010B1C4E90005012038BD10B50368044635
:10E8E00023B143688B4201D3012010BD2046FFF7BE
:10E8F000E8FF0028F9D0A368002BF5D12268137037
:10E90000F2E737B50D46114601920446FFF7E5FFE1
:10E91000019A28B92046FFF7C9FF204603B030BD51
:10E920002946A260206800F09DFC00212268A368AF
:10E93000D154F2E7002313B50446C0E900338360E5
:10E94000037341B108460191FCF762F80199024650
:10E950002046FFF7D6FF204602B010BD38B5054669
:10E9600000680C4670B16A688B689A4208D30968DF
:10E9700031B100F0ECFCA368AB600023A36038BDAC
:10E98000FDF776FF23682B6063686B60A368AB605C
:10E990000023C4E90033F1E7002310B50446C0E9C1
:10E9A000003383600373FFF7D9FF204610BD884210
:10E9B00010B5044605D00B682BB18A681946FFF7DD
:10E9C000A0FF204610BDFFF771FFFAE7002310B546
:10E9D0000446C0E9003383600373FFF7E8FF204675
:10E9E00010BD000002220020044B1A60044B054AAF
:10E9F000C3E900009A60FDF7B3BD00BFACAE0710DD
:10EA0000A0AE07100000FFFF08B50020FDF75EFE76
:10EA100028B1FDF73FFE80F00100C0B208BD012023
:10EA2000FCE7000030B593B0CDE90023194B044654
:10EA3000D3E90010019B521843EB00031648002550
:10EA4000D0E90010521843EB0003CDE90023242243
:10EA500000210DEB020000F02CFC09A96846FDF72F
:10EA600085FF1622294603A8029500F022FC02A980
:10EA700009A800F0C3FB02A8FBF7CAFF12AB1844B9
:10EA800000F8415C02A92046FFF754FF204613B06E
:10EA900030BD00BFC0AE0710B8AE071010B50020E3
:10EAA000FDF76AFA0446A0B9FDF74CFD012810D124
:10EAB0002046FDF79BFD60B9FFF7A6FF10B9FDF7F3
:10EAC000CDFDF9E7FFF7A0FFBDE810400020FDF7FE
:10EAD00053BA204610BD1FB5FFF7E0FF10220021FA
:10EAE000684600F0E6FB00216846FDF753FA0098FF
:10EAF00005B05DF804FB0000024B1A68024B1A6077
:10EB0000704700BF14AD0710B0AE071070474174D6
:10EB1000704708B5007CFDF743FC20EAE07008BDB3
:10EB200008B5007CFDF7F6FB20EAE07008BD08B5EB
:10EB3000007CFDF70BFC40EAE07008BD08B5007CE6
:10EB4000FDF7F6FB40EAE07008BD007CFDF70CBC69
:10EB500037B5457C04462DB1207C03B0BDE830407C
:10EB6000FDF7CABB007C0191FDF71AFC0028019952
:10EB7000F2DC284603B030BD10B504461421FBF783
:10EB800070FF204610BD000010B54FF47A730446A4
:10EB9000084611460022C4E90123044B2074236077
:10EBA00001236374FDF718FC204610BD6CFD3F0285
:10EBB0000023007CFDF702BC0022FFF7F9BF007CB8
:10EBC000FDF78CBB007CFDF7DDBB417470477047DF
:10EBD000704708B50021007CFDF752FC40EAE07068
:10EBE00008BD08B50121007CFDF74AFC40EAE07051
:10EBF00008BD08B5007CFDF735FC20EAE07008BDD3
:10EC000008B5007CFDF720FC20EAE07008BD13B5D4
:10EC10000446007C0191FDF725FC0028019901DCE8
:10EC2000607C20B1207CFDF739FC20EAE07002B066
:10EC300010BD007CFDF740BC10B504461421FBF765
:10EC400010FF204610BD000010B54FF47A73044643
:10EC500008460021C4E90113044B207423600123FA
:10EC600011466374FDF7C6FB204610BD9CFD3F02B4
:10EC70000022007CFDF7CCBB007CFDF7D7BB10B5B4
:10EC800004461422002100F014FB204610BD0000B1
:10EC900010B588B003A8FFF7F2FF0C4CD4E88F1F23
:10ECA00011F001010FD120460191FBF7E9FE019916
:10ECB00048B103AA0648FFF7C7FF2046FBF7E5FE69
:10ECC000044800F0C1FA024808B010BDC8AE0710F1
:10ECD000CCAE07109FEE3F02002240681146FDF7C0
:10ECE0003BBD002240681146FDF76EBD0022406822
:10ECF0001146FDF785BD00224068FDF773BD002277
:10ED0000406881F00101FDF751BD002340681A46BB
:10ED10001946FDF73DBD002340681A461946FDF728
:10ED200029BD002240681146FDF7FABC00220221ED
:10ED30004068FDF703BD002340681A46FDF7E2BCBA
:10ED40000422024B5A60024A1A607047E0AE071074
:10ED5000CCFD3F02014B1860704700BF18AD071093
:10ED600008B50F4B43B1FFF793FF03681B69984742
:10ED7000002801DD00E000BF0A4B43B100F0A6F916
:10ED800003681B699847002801DD00E000BF064BBF
:10ED90000BB100F0E1F9054B0BB100F013FA08BD1F
:10EDA0000000000000000000000000000000000063
:10EDB00008B5FFF7D5FFFDF7D1F8014B186008BD86
:10EDC000F0AE07100548064A08B5121A054900F0CA
:10EDD00049FA054B054A1A6008BD00BF00B4071088
:10EDE00004B4071098FD5F0800B407101E1C279A92
:10EDF000002307B51A466FF077010093FDF712FC68
:10EE000003B05DF804FB000007B543880A2B08D067
:10EE1000502B0BD1094B1B684BB103B05DF804EBD1
:10EE20001847FFF7E5FF03B05DF804FB00231A461F
:10EE30006FF077010093FDF7F5FBF4E7ECAE0710F8
:10EE4000002110B51148FDF783FD114B1A68114BD5
:10EE50009A420CBF012200220F4B1A7001D0FFF71B
:10EE6000B1FFFDF751F8044600F02CFA0B4B13B13B
:10EE7000204600E000BF00210848FDF735FCBDE852
:10EE8000104000210648FDF7BFBB00BF25F03F0240
:10EE900000B407101E1C279AE8AE071000000000FF
:10EEA000D9F03F0209B504480068044B03441B68CD
:10EEB0001B68029309BD000008AD07104400000064
:10EEC00009B504480068044B03441B685B6802935F
:10EED00009BD000008AD07104400000009B5044852
:10EEE0000068044B03441B689B68029309BD000043
:10EEF00008AD0710440000001B2837B5044602D9AE
:10EF0000002003B030BDA0F10F03022B0BD9012864
:10EF100021D800F087F80021007CFDF7FFF880F091
:10EF20000100C0B2EDE7114DD5E88F1F11F00101CE
:10EF30000BD128460191FBF7A3FD019928B10C489C
:10EF4000FFF716FC2846FBF7A0FD094B1878FDF7E4
:10EF500063F90028D4D1083C012C05D800F0B6F89C
:10EF6000007CFDF70FFADAE70120CAE734AE07109C
:10EF700038AE07101B2838B504460D460AD8FF29BD
:10EF800008D0FFF7B9FF28B129462046BDE8384030
:10EF9000FDF70EB838BD38B504460D46FDF716F836
:10EFA000FF2810D0062804D84D2323FA00F0C30709
:10EFB00009D42046FFF7A0FF28B129462046BDE826
:10EFC0003840FDF711B838BD10B50446FCF7FEFF18
:10EFD000031FDBB2012B08D92046FFF78DFF20B1BC
:10EFE0002046BDE81040FDF70DB8002010BD704769
:10EFF00038B50A4B044603600123094943612020C8
:10F0000000F0F6F82025606005492846A56000F06C
:10F01000EFF8C4E90305204638BD00BF1800010021
:10F0200000FE3F0230B50E4D87B0D5E88F1F11F0BE
:10F03000010411D12846FBF723FD68B16846FFF7AC
:10F04000D7FF6A4621460748FEF724F82846FBF713
:10F050001CFD054800F0F8F8024807B030BD00BFBD
:10F06000F4AE0710F8AE0710BFF23F027047000081
:10F0700038B5142504462A46002100F01AF92580E7
:10F080004025074928462581258200F0B1F804492A
:10F090006060284600F0ACF8E060204638BD00BF54
:10F0A00000FE3F027047704710B50446FFF7E0FFCF
:10F0B000204610BD10B50446FFF7DAFF204610BD0C
:10F0C00010B50446FFF7D4FF204610BD30B50E4DF5
:10F0D00087B0D5E88F1F11F0010411D12846FBF746
:10F0E000CFFC68B101A8FFF7DFFF214601AA07485E
:10F0F000FFF74AFD2846FBF7C8FC054800F0A4F8D6
:10F10000024807B030BD00BF0CAF071018AF0710A2
:10F110003DF33F0210B50D4C86B0D4E88F3FDB07BE
:10F1200011D42046FBF7ACFC68B101A8FFF7C2FF81
:10F13000012101AA0648FFF727FD2046FBF7A5FCA1
:10F14000044800F081F8024806B010BD10AF071067
:10F150002CAF071077F33F0210B5FFF7DBFF074B2B
:10F16000044653B1FFF72EFD38B1236820461B69D2
:10F170009847002801DD00E000BF10BD000000003E
:10F1800010B50D4C86B0D4E88F3FDB0711D4204674
:10F19000FBF776FC68B101A8FFF792FF022101AAF4
:10F1A0000648FFF7F1FC2046FBF76FFC044800F02F
:10F1B0004BF8024806B010BD14AF071040AF07105F
:10F1C00075F33F0210B5FFF7DBFF074B044653B161
:10F1D000FFF7F8FC38B1236820461B6998470028E0
:10F1E00001DD00E000BF10BD00000000FBF735BCF2
:10F1F000FBF735BC08B5FDF773FB000010B50C46F6
:10F20000416986B0036901F26C71826903EB4303C3
:10F21000049102EB42020168039141680291816806
:10F220000191C1682046009104490B4404490A44F5
:10F230000449FDF739FB204606B010BD36FE3F02FB
:10F2400021FE3F0201FE3F02002301461A461846F6
:10F2500000F058B9024B1844407800F0970070470E
:10F26000CAFE3F020A44431E914200D1704710B5C6
:10F2700011F8014B914203F8014FF9D110BD8842BA
:10F2800010B501EB020402D98442234607D8431E7D
:10F29000A14208D011F8012B03F8012FF8E702442E
:10F2A00001468A4200D110BD13F8014D02F8014D0C
:10F2B000F7E702440346934200D1704703F8011B6D
:10F2C000F9E7000038B5104B04461D68AB6BB3B9C5
:10F2D0001820FDF7BFFA0246A86320B90B4B422164
:10F2E0000B48FDF727FB0B490B4BC0E900130B4BF9
:10F2F000002183600B2383810120C2E90401AB6BF1
:10F3000000221C615A6138BD18AD07105AFE3F0239
:10F3100071FE3F020E33CDAB34126DE6ECDE05001C
:10F32000C9B2034610F8012B1AB18A42F9D1184626
:10F330007047002918BF0023F9E710B50446FFF70E
:10F34000EFFF18B92046FBF763FB204410BD0346CE
:10F3500011F8012B03F8012B002AF9D170470000A6
:10F36000024B0146186800F003B800BF18AD071043
:10F3700037B5044608460D46FBF74AFB421C2046BB
:10F3800011460192FDF7BAFA044618B1019A2946CE
:10F39000FFF768FF204603B030BD10B57AB10346D1
:10F3A0000139841813F8010B11F8012F904201D193
:10F3B000A34201D1801A10BD0028F3D1FAE710460C
:10F3C000F9E738B503460C4669B9BDE83840FFF7A0
:10F3D000A7BF431C054621461846FFF7A1FF00289A
:10F3E000F7D1284638BD0025F5E70000012B2DE9AF
:10F3F000F04701D0242B06D9FDF78EFA16230360BF
:10F400000020BDE8F0870D46DFF8E0C02E4615F875
:10F41000014B14F80C7017F00807F7D12D2C32D1DE
:10F420002C780127B51C002B5BD0102B09D1302C78
:10F4300007D12C7804F0DF04582C4DD16C781023C0
:10F44000023507F100484FF0000C08F1FF3866461E
:10F45000B8FBF3F903FB198AA4F1300EBEF1090FD2
:10F4600016D87446A34224DDBCF1000F1EDBB14563
:10F470001CD301D1A24519DB06FB03464FF0010C5A
:10F4800015F8014BE8E72B2C04BF2C78B51CCAE714
:10F49000A4F1410EBEF1190F01D8373CE2E7A4F107
:10F4A000610EBEF1190F04D8573CDBE74FF0FF3C6B
:10F4B000E6E7BCF1000F05DA22234646036042B9B5
:10F4C00030469EE707B17642002AF9D0BCF1000F22
:10F4D00000D0691E1160F3E73024002BB1D108235E
:10F4E000AFE7302CA5D00A23ABE700BFCBFE3F022D
:10F4F00013460A46014602480068FFF777BF00BF7F
:10F5000018AD07102DE9F843DFF8BC8006461F460A
:10F510000D46D8F80000914600F058F8264B1C68BC
:10F5200034B9264C1C60264B13B11B68C4F88830D4
:10F5300063681F2B07DDD8F8000000F049F84FF092
:10F54000FF30BDE8F8835EB3D4F8880088B91D4B5E
:10F5500023B9D8F8000000F03AF8F0E74FF48470CF
:10F56000FDF778F90028F4D00023C0E94033C4F84F
:10F57000880063680122022E40F8239002FA03F209
:10F5800000EB8301D0F8003143EA0203C0F80031F8
:10F59000C1F8807002BFD0F804311343C0F80431C1
:10F5A0006368D8F800005A1C0233626044F82350A4
:10F5B00000F00EF80020C4E7E0AF071054AF0710CA
:10F5C0000000000025CB3F027CAD0710704770475C
:10F5D00070470000F1AC3F0219AD3F021DAD3F0284
:10F5E0000000000043616C6C206F6E2070757265C6
:10F5F000207669727475616C00526573657420437E
:10F600006F756E74730053746F70204D6573736102
:10F610006765730053656E6420537461747573007D
:10F6200053797374656D2053746174757300256428
:10F63000005761746572204C6576656C0050756D7D
:10F640007020436F756E740054656D7065726174DF
:10F650007572650048756D69646974790054696DE7
:10F660006500537461747573204D657373616765CC
:10F670000043757272656E742076616C7565204109
:10F68000203A202530362E3466200A0050756D70E1
:10F69000206A757374207475726E6564206F6E00D5
:10F6A00050756D70206973207374696C6C206F6E77
:10F6B00000466C6F617420737475636B20457665CA
:10F6C0006E7400466C6F617420737475636B2045B3
:10F6D00076656E74205265736574004869676820AA
:10F6E00043757272656E74204576656E7400486964
:10F6F00067682043757272656E74204576656E7416
:10F7000020526573657400493243204572726F72EE
:10F710002052657365740054656D7065726174750F
:10F72000726520C2B046203A20252E3266200A009B
:10F7300052656C61746976652048756D6964697499
:10F7400079203A20252E3266200A0074656D706596
:10F75000726174757265206F757473696465206F6A
:10F76000662077696E646F770054656D70657261AD
:10F7700074757265205761726E696E670054656DAD
:10F780007065726174757265204576656E7420527D
:10F790006573657400686967682068756D69646978
:10F7A0007479206576656E740048756D6964697456
:10F7B00079205761726E696E670048756D6964697A
:10F7C0007479204576656E742052657365740049BE
:10F7D000324320427573204572726F720074656DFA
:10F7E000702F68756D646974792073656E736F72BC
:10F7F000206572726F720053656E736F7220696E4E
:10F8000020494E203A20252E3266200A006869677A
:10F8100068207761746572206576656E7400576143
:10F82000746572205761726E696E67005761746506
:10F8300072205761726E696E67205265736574003D
:10F8400000000000000000000000000000000000B8
:10F8500039AD3F0261AD3F02000000000000000032
:10F8600021AE3F0255AE3F02DDE43F0285E63F0296
:10F870000000000000000000D5AD3F02E9AD3F02EE
:10F880005C752530345800252E2A66002566000058
:10F89000000000000000000095B83F02B1B83F0230
:10F8A0000000000000000000C5B83F02D9B83F02C8
:10F8B000000000000000000019CD3F021FCD3F02F4
:10F8C0005DCD3F022DCD3F021BCD3F020000000069
:10F8D00000000000EFD23F02E5D23F02DBD23F0240
:10F8E000D1D23F02C5D23F02B9D23F0271E83F02F6
:10F8F00079E83F02ADD23F02A5D23F029BD23F0240
:10F9000091D23F02A9E83F02000000000000000081
:10F910000DD33F0257D33F022FD33F020FD33F02F5
:10F9200037D33F023FD33F0247D33F024FD33F027B
:10F93000000000000000000027D43F0217D43F025F
:10F9400019D43F0225750075253034780062617541
:10F95000640053657269616C0053657269616C3152
:10F96000004A534F4E53747265616D4C6F67486126
:10F970006E646C65720061707000253031307520E6
:10F98000005D20002C200028293A2000205B006325
:10F990006F6465203D200025690064657461696CB1
:10F9A00073203D20000D0A006D006C6E00666E0035
:10F9B000636F64650064657461696C000000000039
:10F9C00000000000D5D83F02FBD83F02B9D83F0263
:10F9D00037D53F02000000000000000089DD3F0233
:10F9E000A1DD3F02DDE43F0285E63F0200000000AA
:10F9F00000000000B5DD3F02C9DD3F02BDE63F0269
:10FA0000C1D83F020000000000000000D3D83F0230
:10FA100009D93F0241E43F02C3D83F020000000081
:10FA200000000000D1D83F0217D93F02F1DC3F02AD
:10FA300039D93F02000000000000000031E83F0219
:10FA40003BE83F0245E83F024FE83F0259E83F02EA
:10FA500065E83F0271E83F0279E83F0281E83F0232
:10FA60008DE83F0295E83F029FE83F02A9E83F0288
:10FA7000000810182028303825592D256D2D2564B3
:10FA80005425483A254D3A2553257A00617363740D
:10FA9000696D65000000000000000000DDED3F0220
:10FAA00049EE3F0221EE3F0295E93F02F1ED3F02B0
:10FAB0000DEE3F02FFED3F021BEE3F02DFED3F0286
:10FAC000E3ED3F020000000000000000A1EE3F0255
:10FAD00009EF3F02DFEE3F0295E93F02D1EE3F0220
